{
	"contracts/003_Function.sol": {
		"FunctionTypes": {
			"abi": [
				{
					"inputs": [],
					"name": "add",
					"outputs": [],
					"stateMutability": "nonpayable",
					"type": "function"
				},
				{
					"inputs": [
						{
							"internalType": "uint256",
							"name": "_number",
							"type": "uint256"
						}
					],
					"name": "addPure",
					"outputs": [
						{
							"internalType": "uint256",
							"name": "new_number",
							"type": "uint256"
						}
					],
					"stateMutability": "pure",
					"type": "function"
				},
				{
					"inputs": [],
					"name": "addView",
					"outputs": [
						{
							"internalType": "uint256",
							"name": "new_number",
							"type": "uint256"
						}
					],
					"stateMutability": "view",
					"type": "function"
				},
				{
					"inputs": [],
					"name": "minusCall",
					"outputs": [],
					"stateMutability": "nonpayable",
					"type": "function"
				},
				{
					"inputs": [],
					"name": "number",
					"outputs": [
						{
							"internalType": "uint256",
							"name": "",
							"type": "uint256"
						}
					],
					"stateMutability": "view",
					"type": "function"
				}
			],
			"devdoc": {
				"kind": "dev",
				"methods": {},
				"version": 1
			},
			"evm": {
				"assembly": "    /* \"contracts/003_Function.sol\":60:3216  contract FunctionTypes {... */\n  mstore(0x40, 0x80)\n    /* \"contracts/003_Function.sol\":2610:2611  5 */\n  0x05\n    /* \"contracts/003_Function.sol\":2586:2611  uint256 public number = 5 */\n  0x00\n  sstore\n    /* \"contracts/003_Function.sol\":60:3216  contract FunctionTypes {... */\n  callvalue\n  dup1\n  iszero\n  tag_1\n  jumpi\n  0x00\n  dup1\n  revert\ntag_1:\n  pop\n  dataSize(sub_0)\n  dup1\n  dataOffset(sub_0)\n  0x00\n  codecopy\n  0x00\n  return\nstop\n\nsub_0: assembly {\n        /* \"contracts/003_Function.sol\":60:3216  contract FunctionTypes {... */\n      mstore(0x40, 0x80)\n      callvalue\n      dup1\n      iszero\n      tag_1\n      jumpi\n      0x00\n      dup1\n      revert\n    tag_1:\n      pop\n      jumpi(tag_2, lt(calldatasize, 0x04))\n      shr(0xe0, calldataload(0x00))\n      dup1\n      0x4f2be91f\n      eq\n      tag_3\n      jumpi\n      dup1\n      0x7032c4f2\n      eq\n      tag_4\n      jumpi\n      dup1\n      0x80b4ea08\n      eq\n      tag_5\n      jumpi\n      dup1\n      0x8381f58a\n      eq\n      tag_6\n      jumpi\n      dup1\n      0xb262eb7f\n      eq\n      tag_7\n      jumpi\n    tag_2:\n      0x00\n      dup1\n      revert\n        /* \"contracts/003_Function.sol\":2624:2678  function add() external {... */\n    tag_3:\n      tag_8\n      tag_9\n      jump\t// in\n    tag_8:\n      stop\n        /* \"contracts/003_Function.sol\":2692:2811  function addPure(uint256 _number) external pure returns(uint256 new_number) {... */\n    tag_4:\n      tag_10\n      0x04\n      dup1\n      calldatasize\n      sub\n      dup2\n      add\n      swap1\n      tag_11\n      swap2\n      swap1\n      tag_12\n      jump\t// in\n    tag_11:\n      tag_13\n      jump\t// in\n    tag_10:\n      mload(0x40)\n      tag_14\n      swap2\n      swap1\n      tag_15\n      jump\t// in\n    tag_14:\n      mload(0x40)\n      dup1\n      swap2\n      sub\n      swap1\n      return\n        /* \"contracts/003_Function.sol\":3003:3059  function minusCall() external {... */\n    tag_5:\n      tag_16\n      tag_17\n      jump\t// in\n    tag_16:\n      stop\n        /* \"contracts/003_Function.sol\":2586:2611  uint256 public number = 5 */\n    tag_6:\n      tag_18\n      tag_19\n      jump\t// in\n    tag_18:\n      mload(0x40)\n      tag_20\n      swap2\n      swap1\n      tag_15\n      jump\t// in\n    tag_20:\n      mload(0x40)\n      dup1\n      swap2\n      sub\n      swap1\n      return\n        /* \"contracts/003_Function.sol\":2819:2923  function addView() external view returns (uint256 new_number) {... */\n    tag_7:\n      tag_21\n      tag_22\n      jump\t// in\n    tag_21:\n      mload(0x40)\n      tag_23\n      swap2\n      swap1\n      tag_15\n      jump\t// in\n    tag_23:\n      mload(0x40)\n      dup1\n      swap2\n      sub\n      swap1\n      return\n        /* \"contracts/003_Function.sol\":2624:2678  function add() external {... */\n    tag_9:\n        /* \"contracts/003_Function.sol\":2669:2670  1 */\n      0x01\n        /* \"contracts/003_Function.sol\":2659:2665  number */\n      0x00\n      dup1\n        /* \"contracts/003_Function.sol\":2659:2670  number += 1 */\n      dup3\n      dup3\n      sload\n      tag_25\n      swap2\n      swap1\n      tag_26\n      jump\t// in\n    tag_25:\n      swap3\n      pop\n      pop\n      dup2\n      swap1\n      sstore\n      pop\n        /* \"contracts/003_Function.sol\":2624:2678  function add() external {... */\n      jump\t// out\n        /* \"contracts/003_Function.sol\":2692:2811  function addPure(uint256 _number) external pure returns(uint256 new_number) {... */\n    tag_13:\n        /* \"contracts/003_Function.sol\":2748:2766  uint256 new_number */\n      0x00\n        /* \"contracts/003_Function.sol\":2802:2803  1 */\n      0x01\n        /* \"contracts/003_Function.sol\":2792:2799  _number */\n      dup3\n        /* \"contracts/003_Function.sol\":2792:2803  _number + 1 */\n      tag_28\n      swap2\n      swap1\n      tag_26\n      jump\t// in\n    tag_28:\n        /* \"contracts/003_Function.sol\":2779:2803  new_number = _number + 1 */\n      swap1\n      pop\n        /* \"contracts/003_Function.sol\":2692:2811  function addPure(uint256 _number) external pure returns(uint256 new_number) {... */\n      swap2\n      swap1\n      pop\n      jump\t// out\n        /* \"contracts/003_Function.sol\":3003:3059  function minusCall() external {... */\n    tag_17:\n        /* \"contracts/003_Function.sol\":3044:3051  minus() */\n      tag_30\n        /* \"contracts/003_Function.sol\":3044:3049  minus */\n      tag_31\n        /* \"contracts/003_Function.sol\":3044:3051  minus() */\n      jump\t// in\n    tag_30:\n        /* \"contracts/003_Function.sol\":3003:3059  function minusCall() external {... */\n      jump\t// out\n        /* \"contracts/003_Function.sol\":2586:2611  uint256 public number = 5 */\n    tag_19:\n      sload(0x00)\n      dup2\n      jump\t// out\n        /* \"contracts/003_Function.sol\":2819:2923  function addView() external view returns (uint256 new_number) {... */\n    tag_22:\n        /* \"contracts/003_Function.sol\":2861:2879  uint256 new_number */\n      0x00\n        /* \"contracts/003_Function.sol\":2914:2915  1 */\n      0x01\n        /* \"contracts/003_Function.sol\":2905:2911  number */\n      sload(0x00)\n        /* \"contracts/003_Function.sol\":2905:2915  number + 1 */\n      tag_33\n      swap2\n      swap1\n      tag_26\n      jump\t// in\n    tag_33:\n        /* \"contracts/003_Function.sol\":2892:2915  new_number = number + 1 */\n      swap1\n      pop\n        /* \"contracts/003_Function.sol\":2819:2923  function addView() external view returns (uint256 new_number) {... */\n      swap1\n      jump\t// out\n        /* \"contracts/003_Function.sol\":2931:2995  function minus() internal {... */\n    tag_31:\n        /* \"contracts/003_Function.sol\":2986:2987  1 */\n      0x01\n        /* \"contracts/003_Function.sol\":2977:2983  number */\n      sload(0x00)\n        /* \"contracts/003_Function.sol\":2977:2987  number - 1 */\n      tag_35\n      swap2\n      swap1\n      tag_36\n      jump\t// in\n    tag_35:\n        /* \"contracts/003_Function.sol\":2968:2974  number */\n      0x00\n        /* \"contracts/003_Function.sol\":2968:2987  number = number - 1 */\n      dup2\n      swap1\n      sstore\n      pop\n        /* \"contracts/003_Function.sol\":2931:2995  function minus() internal {... */\n      jump\t// out\n        /* \"#utility.yul\":88:205   */\n    tag_38:\n        /* \"#utility.yul\":197:198   */\n      0x00\n        /* \"#utility.yul\":194:195   */\n      dup1\n        /* \"#utility.yul\":187:199   */\n      revert\n        /* \"#utility.yul\":334:411   */\n    tag_40:\n        /* \"#utility.yul\":371:378   */\n      0x00\n        /* \"#utility.yul\":400:405   */\n      dup2\n        /* \"#utility.yul\":389:405   */\n      swap1\n      pop\n        /* \"#utility.yul\":334:411   */\n      swap2\n      swap1\n      pop\n      jump\t// out\n        /* \"#utility.yul\":417:539   */\n    tag_41:\n        /* \"#utility.yul\":490:514   */\n      tag_51\n        /* \"#utility.yul\":508:513   */\n      dup2\n        /* \"#utility.yul\":490:514   */\n      tag_40\n      jump\t// in\n    tag_51:\n        /* \"#utility.yul\":483:488   */\n      dup2\n        /* \"#utility.yul\":480:515   */\n      eq\n        /* \"#utility.yul\":470:533   */\n      tag_52\n      jumpi\n        /* \"#utility.yul\":529:530   */\n      0x00\n        /* \"#utility.yul\":526:527   */\n      dup1\n        /* \"#utility.yul\":519:531   */\n      revert\n        /* \"#utility.yul\":470:533   */\n    tag_52:\n        /* \"#utility.yul\":417:539   */\n      pop\n      jump\t// out\n        /* \"#utility.yul\":545:684   */\n    tag_42:\n        /* \"#utility.yul\":591:596   */\n      0x00\n        /* \"#utility.yul\":629:635   */\n      dup2\n        /* \"#utility.yul\":616:636   */\n      calldataload\n        /* \"#utility.yul\":607:636   */\n      swap1\n      pop\n        /* \"#utility.yul\":645:678   */\n      tag_54\n        /* \"#utility.yul\":672:677   */\n      dup2\n        /* \"#utility.yul\":645:678   */\n      tag_41\n      jump\t// in\n    tag_54:\n        /* \"#utility.yul\":545:684   */\n      swap3\n      swap2\n      pop\n      pop\n      jump\t// out\n        /* \"#utility.yul\":690:1019   */\n    tag_12:\n        /* \"#utility.yul\":749:755   */\n      0x00\n        /* \"#utility.yul\":798:800   */\n      0x20\n        /* \"#utility.yul\":786:795   */\n      dup3\n        /* \"#utility.yul\":777:784   */\n      dup5\n        /* \"#utility.yul\":773:796   */\n      sub\n        /* \"#utility.yul\":769:801   */\n      slt\n        /* \"#utility.yul\":766:885   */\n      iszero\n      tag_56\n      jumpi\n        /* \"#utility.yul\":804:883   */\n      tag_57\n      tag_38\n      jump\t// in\n    tag_57:\n        /* \"#utility.yul\":766:885   */\n    tag_56:\n        /* \"#utility.yul\":924:925   */\n      0x00\n        /* \"#utility.yul\":949:1002   */\n      tag_58\n        /* \"#utility.yul\":994:1001   */\n      dup5\n        /* \"#utility.yul\":985:991   */\n      dup3\n        /* \"#utility.yul\":974:983   */\n      dup6\n        /* \"#utility.yul\":970:992   */\n      add\n        /* \"#utility.yul\":949:1002   */\n      tag_42\n      jump\t// in\n    tag_58:\n        /* \"#utility.yul\":939:1002   */\n      swap2\n      pop\n        /* \"#utility.yul\":895:1012   */\n      pop\n        /* \"#utility.yul\":690:1019   */\n      swap3\n      swap2\n      pop\n      pop\n      jump\t// out\n        /* \"#utility.yul\":1025:1143   */\n    tag_43:\n        /* \"#utility.yul\":1112:1136   */\n      tag_60\n        /* \"#utility.yul\":1130:1135   */\n      dup2\n        /* \"#utility.yul\":1112:1136   */\n      tag_40\n      jump\t// in\n    tag_60:\n        /* \"#utility.yul\":1107:1110   */\n      dup3\n        /* \"#utility.yul\":1100:1137   */\n      mstore\n        /* \"#utility.yul\":1025:1143   */\n      pop\n      pop\n      jump\t// out\n        /* \"#utility.yul\":1149:1371   */\n    tag_15:\n        /* \"#utility.yul\":1242:1246   */\n      0x00\n        /* \"#utility.yul\":1280:1282   */\n      0x20\n        /* \"#utility.yul\":1269:1278   */\n      dup3\n        /* \"#utility.yul\":1265:1283   */\n      add\n        /* \"#utility.yul\":1257:1283   */\n      swap1\n      pop\n        /* \"#utility.yul\":1293:1364   */\n      tag_62\n        /* \"#utility.yul\":1361:1362   */\n      0x00\n        /* \"#utility.yul\":1350:1359   */\n      dup4\n        /* \"#utility.yul\":1346:1363   */\n      add\n        /* \"#utility.yul\":1337:1343   */\n      dup5\n        /* \"#utility.yul\":1293:1364   */\n      tag_43\n      jump\t// in\n    tag_62:\n        /* \"#utility.yul\":1149:1371   */\n      swap3\n      swap2\n      pop\n      pop\n      jump\t// out\n        /* \"#utility.yul\":1377:1557   */\n    tag_44:\n        /* \"#utility.yul\":1425:1502   */\n      0x4e487b7100000000000000000000000000000000000000000000000000000000\n        /* \"#utility.yul\":1422:1423   */\n      0x00\n        /* \"#utility.yul\":1415:1503   */\n      mstore\n        /* \"#utility.yul\":1522:1526   */\n      0x11\n        /* \"#utility.yul\":1519:1520   */\n      0x04\n        /* \"#utility.yul\":1512:1527   */\n      mstore\n        /* \"#utility.yul\":1546:1550   */\n      0x24\n        /* \"#utility.yul\":1543:1544   */\n      0x00\n        /* \"#utility.yul\":1536:1551   */\n      revert\n        /* \"#utility.yul\":1563:1754   */\n    tag_26:\n        /* \"#utility.yul\":1603:1606   */\n      0x00\n        /* \"#utility.yul\":1622:1642   */\n      tag_65\n        /* \"#utility.yul\":1640:1641   */\n      dup3\n        /* \"#utility.yul\":1622:1642   */\n      tag_40\n      jump\t// in\n    tag_65:\n        /* \"#utility.yul\":1617:1642   */\n      swap2\n      pop\n        /* \"#utility.yul\":1656:1676   */\n      tag_66\n        /* \"#utility.yul\":1674:1675   */\n      dup4\n        /* \"#utility.yul\":1656:1676   */\n      tag_40\n      jump\t// in\n    tag_66:\n        /* \"#utility.yul\":1651:1676   */\n      swap3\n      pop\n        /* \"#utility.yul\":1699:1700   */\n      dup3\n        /* \"#utility.yul\":1696:1697   */\n      dup3\n        /* \"#utility.yul\":1692:1701   */\n      add\n        /* \"#utility.yul\":1685:1701   */\n      swap1\n      pop\n        /* \"#utility.yul\":1720:1723   */\n      dup1\n        /* \"#utility.yul\":1717:1718   */\n      dup3\n        /* \"#utility.yul\":1714:1724   */\n      gt\n        /* \"#utility.yul\":1711:1747   */\n      iszero\n      tag_67\n      jumpi\n        /* \"#utility.yul\":1727:1745   */\n      tag_68\n      tag_44\n      jump\t// in\n    tag_68:\n        /* \"#utility.yul\":1711:1747   */\n    tag_67:\n        /* \"#utility.yul\":1563:1754   */\n      swap3\n      swap2\n      pop\n      pop\n      jump\t// out\n        /* \"#utility.yul\":1760:1954   */\n    tag_36:\n        /* \"#utility.yul\":1800:1804   */\n      0x00\n        /* \"#utility.yul\":1820:1840   */\n      tag_70\n        /* \"#utility.yul\":1838:1839   */\n      dup3\n        /* \"#utility.yul\":1820:1840   */\n      tag_40\n      jump\t// in\n    tag_70:\n        /* \"#utility.yul\":1815:1840   */\n      swap2\n      pop\n        /* \"#utility.yul\":1854:1874   */\n      tag_71\n        /* \"#utility.yul\":1872:1873   */\n      dup4\n        /* \"#utility.yul\":1854:1874   */\n      tag_40\n      jump\t// in\n    tag_71:\n        /* \"#utility.yul\":1849:1874   */\n      swap3\n      pop\n        /* \"#utility.yul\":1898:1899   */\n      dup3\n        /* \"#utility.yul\":1895:1896   */\n      dup3\n        /* \"#utility.yul\":1891:1900   */\n      sub\n        /* \"#utility.yul\":1883:1900   */\n      swap1\n      pop\n        /* \"#utility.yul\":1922:1923   */\n      dup2\n        /* \"#utility.yul\":1916:1920   */\n      dup2\n        /* \"#utility.yul\":1913:1924   */\n      gt\n        /* \"#utility.yul\":1910:1947   */\n      iszero\n      tag_72\n      jumpi\n        /* \"#utility.yul\":1927:1945   */\n      tag_73\n      tag_44\n      jump\t// in\n    tag_73:\n        /* \"#utility.yul\":1910:1947   */\n    tag_72:\n        /* \"#utility.yul\":1760:1954   */\n      swap3\n      swap2\n      pop\n      pop\n      jump\t// out\n\n    auxdata: 0xa26469706673582212200788e6edd716e45c847c596a1972dd5f32d0d286a60cfa961fa020258d1d70e664736f6c634300081a0033\n}\n",
				"bytecode": {
					"linkReferences": {},
					"object": "608060405260055f553480156012575f80fd5b50610293806100205f395ff3fe608060405234801561000f575f80fd5b5060043610610055575f3560e01c80634f2be91f146100595780637032c4f21461006357806380b4ea08146100935780638381f58a1461009d578063b262eb7f146100bb575b5f80fd5b6100616100d9565b005b61007d60048036038101906100789190610177565b6100f3565b60405161008a91906101b1565b60405180910390f35b61009b610108565b005b6100a5610112565b6040516100b291906101b1565b60405180910390f35b6100c3610117565b6040516100d091906101b1565b60405180910390f35b60015f808282546100ea91906101f7565b92505081905550565b5f60018261010191906101f7565b9050919050565b61011061012b565b565b5f5481565b5f60015f5461012691906101f7565b905090565b60015f54610139919061022a565b5f81905550565b5f80fd5b5f819050919050565b61015681610144565b8114610160575f80fd5b50565b5f813590506101718161014d565b92915050565b5f6020828403121561018c5761018b610140565b5b5f61019984828501610163565b91505092915050565b6101ab81610144565b82525050565b5f6020820190506101c45f8301846101a2565b92915050565b7f4e487b71000000000000000000000000000000000000000000000000000000005f52601160045260245ffd5b5f61020182610144565b915061020c83610144565b9250828201905080821115610224576102236101ca565b5b92915050565b5f61023482610144565b915061023f83610144565b9250828203905081811115610257576102566101ca565b5b9291505056fea26469706673582212200788e6edd716e45c847c596a1972dd5f32d0d286a60cfa961fa020258d1d70e664736f6c634300081a0033",
					"opcodes": "PUSH1 0x80 PUSH1 0x40 MSTORE PUSH1 0x5 PUSH0 SSTORE CALLVALUE DUP1 ISZERO PUSH1 0x12 JUMPI PUSH0 DUP1 REVERT JUMPDEST POP PUSH2 0x293 DUP1 PUSH2 0x20 PUSH0 CODECOPY PUSH0 RETURN INVALID PUSH1 0x80 PUSH1 0x40 MSTORE CALLVALUE DUP1 ISZERO PUSH2 0xF JUMPI PUSH0 DUP1 REVERT JUMPDEST POP PUSH1 0x4 CALLDATASIZE LT PUSH2 0x55 JUMPI PUSH0 CALLDATALOAD PUSH1 0xE0 SHR DUP1 PUSH4 0x4F2BE91F EQ PUSH2 0x59 JUMPI DUP1 PUSH4 0x7032C4F2 EQ PUSH2 0x63 JUMPI DUP1 PUSH4 0x80B4EA08 EQ PUSH2 0x93 JUMPI DUP1 PUSH4 0x8381F58A EQ PUSH2 0x9D JUMPI DUP1 PUSH4 0xB262EB7F EQ PUSH2 0xBB JUMPI JUMPDEST PUSH0 DUP1 REVERT JUMPDEST PUSH2 0x61 PUSH2 0xD9 JUMP JUMPDEST STOP JUMPDEST PUSH2 0x7D PUSH1 0x4 DUP1 CALLDATASIZE SUB DUP2 ADD SWAP1 PUSH2 0x78 SWAP2 SWAP1 PUSH2 0x177 JUMP JUMPDEST PUSH2 0xF3 JUMP JUMPDEST PUSH1 0x40 MLOAD PUSH2 0x8A SWAP2 SWAP1 PUSH2 0x1B1 JUMP JUMPDEST PUSH1 0x40 MLOAD DUP1 SWAP2 SUB SWAP1 RETURN JUMPDEST PUSH2 0x9B PUSH2 0x108 JUMP JUMPDEST STOP JUMPDEST PUSH2 0xA5 PUSH2 0x112 JUMP JUMPDEST PUSH1 0x40 MLOAD PUSH2 0xB2 SWAP2 SWAP1 PUSH2 0x1B1 JUMP JUMPDEST PUSH1 0x40 MLOAD DUP1 SWAP2 SUB SWAP1 RETURN JUMPDEST PUSH2 0xC3 PUSH2 0x117 JUMP JUMPDEST PUSH1 0x40 MLOAD PUSH2 0xD0 SWAP2 SWAP1 PUSH2 0x1B1 JUMP JUMPDEST PUSH1 0x40 MLOAD DUP1 SWAP2 SUB SWAP1 RETURN JUMPDEST PUSH1 0x1 PUSH0 DUP1 DUP3 DUP3 SLOAD PUSH2 0xEA SWAP2 SWAP1 PUSH2 0x1F7 JUMP JUMPDEST SWAP3 POP POP DUP2 SWAP1 SSTORE POP JUMP JUMPDEST PUSH0 PUSH1 0x1 DUP3 PUSH2 0x101 SWAP2 SWAP1 PUSH2 0x1F7 JUMP JUMPDEST SWAP1 POP SWAP2 SWAP1 POP JUMP JUMPDEST PUSH2 0x110 PUSH2 0x12B JUMP JUMPDEST JUMP JUMPDEST PUSH0 SLOAD DUP2 JUMP JUMPDEST PUSH0 PUSH1 0x1 PUSH0 SLOAD PUSH2 0x126 SWAP2 SWAP1 PUSH2 0x1F7 JUMP JUMPDEST SWAP1 POP SWAP1 JUMP JUMPDEST PUSH1 0x1 PUSH0 SLOAD PUSH2 0x139 SWAP2 SWAP1 PUSH2 0x22A JUMP JUMPDEST PUSH0 DUP2 SWAP1 SSTORE POP JUMP JUMPDEST PUSH0 DUP1 REVERT JUMPDEST PUSH0 DUP2 SWAP1 POP SWAP2 SWAP1 POP JUMP JUMPDEST PUSH2 0x156 DUP2 PUSH2 0x144 JUMP JUMPDEST DUP2 EQ PUSH2 0x160 JUMPI PUSH0 DUP1 REVERT JUMPDEST POP JUMP JUMPDEST PUSH0 DUP2 CALLDATALOAD SWAP1 POP PUSH2 0x171 DUP2 PUSH2 0x14D JUMP JUMPDEST SWAP3 SWAP2 POP POP JUMP JUMPDEST PUSH0 PUSH1 0x20 DUP3 DUP5 SUB SLT ISZERO PUSH2 0x18C JUMPI PUSH2 0x18B PUSH2 0x140 JUMP JUMPDEST JUMPDEST PUSH0 PUSH2 0x199 DUP5 DUP3 DUP6 ADD PUSH2 0x163 JUMP JUMPDEST SWAP2 POP POP SWAP3 SWAP2 POP POP JUMP JUMPDEST PUSH2 0x1AB DUP2 PUSH2 0x144 JUMP JUMPDEST DUP3 MSTORE POP POP JUMP JUMPDEST PUSH0 PUSH1 0x20 DUP3 ADD SWAP1 POP PUSH2 0x1C4 PUSH0 DUP4 ADD DUP5 PUSH2 0x1A2 JUMP JUMPDEST SWAP3 SWAP2 POP POP JUMP JUMPDEST PUSH32 0x4E487B7100000000000000000000000000000000000000000000000000000000 PUSH0 MSTORE PUSH1 0x11 PUSH1 0x4 MSTORE PUSH1 0x24 PUSH0 REVERT JUMPDEST PUSH0 PUSH2 0x201 DUP3 PUSH2 0x144 JUMP JUMPDEST SWAP2 POP PUSH2 0x20C DUP4 PUSH2 0x144 JUMP JUMPDEST SWAP3 POP DUP3 DUP3 ADD SWAP1 POP DUP1 DUP3 GT ISZERO PUSH2 0x224 JUMPI PUSH2 0x223 PUSH2 0x1CA JUMP JUMPDEST JUMPDEST SWAP3 SWAP2 POP POP JUMP JUMPDEST PUSH0 PUSH2 0x234 DUP3 PUSH2 0x144 JUMP JUMPDEST SWAP2 POP PUSH2 0x23F DUP4 PUSH2 0x144 JUMP JUMPDEST SWAP3 POP DUP3 DUP3 SUB SWAP1 POP DUP2 DUP2 GT ISZERO PUSH2 0x257 JUMPI PUSH2 0x256 PUSH2 0x1CA JUMP JUMPDEST JUMPDEST SWAP3 SWAP2 POP POP JUMP INVALID LOG2 PUSH5 0x6970667358 0x22 SLT KECCAK256 SMOD DUP9 0xE6 0xED 0xD7 AND 0xE4 TLOAD DUP5 PUSH29 0x596A1972DD5F32D0D286A60CFA961FA020258D1D70E664736F6C634300 ADDMOD BYTE STOP CALLER "
				},
				"gasEstimates": {
					"creation": {
						"codeDepositCost": "131800",
						"executionCost": "22280",
						"totalCost": "154080"
					},
					"external": {
						"add()": "infinite",
						"addPure(uint256)": "infinite",
						"addView()": "infinite",
						"minusCall()": "infinite",
						"number()": "2468"
					},
					"internal": {
						"minus()": "infinite"
					}
				},
				"methodIdentifiers": {
					"add()": "4f2be91f",
					"addPure(uint256)": "7032c4f2",
					"addView()": "b262eb7f",
					"minusCall()": "80b4ea08",
					"number()": "8381f58a"
				}
			},
			"storageLayout": {
				"storage": [
					{
						"astId": 4,
						"contract": "contracts/003_Function.sol:FunctionTypes",
						"label": "number",
						"offset": 0,
						"slot": "0",
						"type": "t_uint256"
					}
				],
				"types": {
					"t_uint256": {
						"encoding": "inplace",
						"label": "uint256",
						"numberOfBytes": "32"
					}
				}
			},
			"userdoc": {
				"kind": "user",
				"methods": {},
				"version": 1
			}
		}
	}
}