{
	"contracts/005_DataStorage.sol": {
		"DataStorage": {
			"abi": [
				{
					"inputs": [],
					"name": "bar",
					"outputs": [
						{
							"internalType": "uint256",
							"name": "",
							"type": "uint256"
						}
					],
					"stateMutability": "pure",
					"type": "function"
				},
				{
					"inputs": [],
					"name": "daysUnit",
					"outputs": [
						{
							"internalType": "uint256",
							"name": "",
							"type": "uint256"
						}
					],
					"stateMutability": "pure",
					"type": "function"
				},
				{
					"inputs": [],
					"name": "etherUnit",
					"outputs": [
						{
							"internalType": "uint256",
							"name": "",
							"type": "uint256"
						}
					],
					"stateMutability": "pure",
					"type": "function"
				},
				{
					"inputs": [
						{
							"internalType": "uint256[]",
							"name": "x",
							"type": "uint256[]"
						}
					],
					"name": "fCalldata",
					"outputs": [
						{
							"internalType": "uint256[]",
							"name": "",
							"type": "uint256[]"
						}
					],
					"stateMutability": "pure",
					"type": "function"
				},
				{
					"inputs": [],
					"name": "fStorage",
					"outputs": [],
					"stateMutability": "nonpayable",
					"type": "function"
				},
				{
					"inputs": [],
					"name": "foo",
					"outputs": [],
					"stateMutability": "nonpayable",
					"type": "function"
				},
				{
					"inputs": [],
					"name": "global",
					"outputs": [
						{
							"internalType": "address",
							"name": "",
							"type": "address"
						},
						{
							"internalType": "uint256",
							"name": "",
							"type": "uint256"
						},
						{
							"internalType": "bytes",
							"name": "",
							"type": "bytes"
						}
					],
					"stateMutability": "view",
					"type": "function"
				},
				{
					"inputs": [],
					"name": "gweiUnit",
					"outputs": [
						{
							"internalType": "uint256",
							"name": "",
							"type": "uint256"
						}
					],
					"stateMutability": "pure",
					"type": "function"
				},
				{
					"inputs": [],
					"name": "hoursUnit",
					"outputs": [
						{
							"internalType": "uint256",
							"name": "",
							"type": "uint256"
						}
					],
					"stateMutability": "pure",
					"type": "function"
				},
				{
					"inputs": [],
					"name": "minutesUnit",
					"outputs": [
						{
							"internalType": "uint256",
							"name": "",
							"type": "uint256"
						}
					],
					"stateMutability": "pure",
					"type": "function"
				},
				{
					"inputs": [],
					"name": "secondsUnit",
					"outputs": [
						{
							"internalType": "uint256",
							"name": "",
							"type": "uint256"
						}
					],
					"stateMutability": "pure",
					"type": "function"
				},
				{
					"inputs": [],
					"name": "weeksUnit",
					"outputs": [
						{
							"internalType": "uint256",
							"name": "",
							"type": "uint256"
						}
					],
					"stateMutability": "pure",
					"type": "function"
				},
				{
					"inputs": [],
					"name": "weiUnit",
					"outputs": [
						{
							"internalType": "uint256",
							"name": "",
							"type": "uint256"
						}
					],
					"stateMutability": "pure",
					"type": "function"
				},
				{
					"inputs": [],
					"name": "x",
					"outputs": [
						{
							"internalType": "uint256",
							"name": "",
							"type": "uint256"
						}
					],
					"stateMutability": "view",
					"type": "function"
				},
				{
					"inputs": [],
					"name": "y",
					"outputs": [
						{
							"internalType": "uint256",
							"name": "",
							"type": "uint256"
						}
					],
					"stateMutability": "view",
					"type": "function"
				},
				{
					"inputs": [],
					"name": "z",
					"outputs": [
						{
							"internalType": "string",
							"name": "",
							"type": "string"
						}
					],
					"stateMutability": "view",
					"type": "function"
				}
			],
			"devdoc": {
				"kind": "dev",
				"methods": {},
				"version": 1
			},
			"evm": {
				"assembly": "    /* \"contracts/005_DataStorage.sol\":60:3817  contract DataStorage {... */\n  mstore(0x40, 0x80)\n    /* \"contracts/005_DataStorage.sol\":1510:1531  uint[] _x = [1, 2, 3] */\n  mload(0x40)\n  dup1\n  0x60\n  add\n  0x40\n  mstore\n  dup1\n    /* \"contracts/005_DataStorage.sol\":1523:1524  1 */\n  0x01\n    /* \"contracts/005_DataStorage.sol\":1510:1531  uint[] _x = [1, 2, 3] */\n  0xff\n  and\n  dup2\n  mstore\n  0x20\n  add\n    /* \"contracts/005_DataStorage.sol\":1526:1527  2 */\n  0x02\n    /* \"contracts/005_DataStorage.sol\":1510:1531  uint[] _x = [1, 2, 3] */\n  0xff\n  and\n  dup2\n  mstore\n  0x20\n  add\n    /* \"contracts/005_DataStorage.sol\":1529:1530  3 */\n  0x03\n    /* \"contracts/005_DataStorage.sol\":1510:1531  uint[] _x = [1, 2, 3] */\n  0xff\n  and\n  dup2\n  mstore\n  pop\n  0x00\n  swap1\n  0x03\n  tag_1\n  swap3\n  swap2\n  swap1\n  tag_2\n  jump\t// in\ntag_1:\n  pop\n    /* \"contracts/005_DataStorage.sol\":1687:1688  1 */\n  0x01\n    /* \"contracts/005_DataStorage.sol\":1671:1688  uint public x = 1 */\n  dup1\n  sstore\n    /* \"contracts/005_DataStorage.sol\":60:3817  contract DataStorage {... */\n  callvalue\n  dup1\n  iszero\n  tag_3\n  jumpi\n  0x00\n  dup1\n  revert\ntag_3:\n  pop\n  jump(tag_4)\ntag_2:\n  dup3\n  dup1\n  sload\n  dup3\n  dup3\n  sstore\n  swap1\n  0x00\n  mstore\n  keccak256(0x00, 0x20)\n  swap1\n  dup2\n  add\n  swap3\n  dup3\n  iszero\n  tag_5\n  jumpi\n  swap2\n  0x20\n  mul\n  dup3\n  add\ntag_6:\n  dup3\n  dup2\n  gt\n  iszero\n  tag_7\n  jumpi\n  dup3\n  mload\n  dup3\n  swap1\n  0xff\n  and\n  swap1\n  sstore\n  swap2\n  0x20\n  add\n  swap2\n  swap1\n  0x01\n  add\n  swap1\n  jump(tag_6)\ntag_7:\ntag_5:\n  pop\n  swap1\n  pop\n  tag_8\n  swap2\n  swap1\n  tag_9\n  jump\t// in\ntag_8:\n  pop\n  swap1\n  jump\t// out\ntag_9:\ntag_10:\n  dup1\n  dup3\n  gt\n  iszero\n  tag_11\n  jumpi\n  0x00\n  dup2\n  0x00\n  swap1\n  sstore\n  pop\n  0x01\n  add\n  jump(tag_10)\ntag_11:\n  pop\n  swap1\n  jump\t// out\ntag_4:\n  dataSize(sub_0)\n  dup1\n  dataOffset(sub_0)\n  0x00\n  codecopy\n  0x00\n  return\nstop\n\nsub_0: assembly {\n        /* \"contracts/005_DataStorage.sol\":60:3817  contract DataStorage {... */\n      mstore(0x40, 0x80)\n      callvalue\n      dup1\n      iszero\n      tag_1\n      jumpi\n      0x00\n      dup1\n      revert\n    tag_1:\n      pop\n      jumpi(tag_2, lt(calldatasize, 0x04))\n      shr(0xe0, calldataload(0x00))\n      dup1\n      0xa56dfe4a\n      gt\n      tag_19\n      jumpi\n      dup1\n      0xc5d7802e\n      gt\n      tag_20\n      jumpi\n      dup1\n      0xc5d7802e\n      eq\n      tag_15\n      jumpi\n      dup1\n      0xcb9f1220\n      eq\n      tag_16\n      jumpi\n      dup1\n      0xf1e6d198\n      eq\n      tag_17\n      jumpi\n      dup1\n      0xfebb0f7e\n      eq\n      tag_18\n      jumpi\n      jump(tag_2)\n    tag_20:\n      dup1\n      0xa56dfe4a\n      eq\n      tag_11\n      jumpi\n      dup1\n      0xaec3d640\n      eq\n      tag_12\n      jumpi\n      dup1\n      0xbe44f864\n      eq\n      tag_13\n      jumpi\n      dup1\n      0xc2985578\n      eq\n      tag_14\n      jumpi\n      jump(tag_2)\n    tag_19:\n      dup1\n      0x6a8d1e08\n      gt\n      tag_21\n      jumpi\n      dup1\n      0x6a8d1e08\n      eq\n      tag_7\n      jumpi\n      dup1\n      0x9b1a379c\n      eq\n      tag_8\n      jumpi\n      dup1\n      0xa05f9906\n      eq\n      tag_9\n      jumpi\n      dup1\n      0xa0d0d59e\n      eq\n      tag_10\n      jumpi\n      jump(tag_2)\n    tag_21:\n      dup1\n      0x09879682\n      eq\n      tag_3\n      jumpi\n      dup1\n      0x0c55699c\n      eq\n      tag_4\n      jumpi\n      dup1\n      0x12176349\n      eq\n      tag_5\n      jumpi\n      dup1\n      0x2aca45f1\n      eq\n      tag_6\n      jumpi\n    tag_2:\n      0x00\n      dup1\n      revert\n        /* \"contracts/005_DataStorage.sol\":3028:3147  function secondsUnit() external pure returns(uint) {... */\n    tag_3:\n      tag_22\n      tag_23\n      jump\t// in\n    tag_22:\n      mload(0x40)\n      tag_24\n      swap2\n      swap1\n      tag_25\n      jump\t// in\n    tag_24:\n      mload(0x40)\n      dup1\n      swap2\n      sub\n      swap1\n      return\n        /* \"contracts/005_DataStorage.sol\":1671:1688  uint public x = 1 */\n    tag_4:\n      tag_26\n      tag_27\n      jump\t// in\n    tag_26:\n      mload(0x40)\n      tag_28\n      swap2\n      swap1\n      tag_25\n      jump\t// in\n    tag_28:\n      mload(0x40)\n      dup1\n      swap2\n      sub\n      swap1\n      return\n        /* \"contracts/005_DataStorage.sol\":2362:2500  function weiUnit() external pure returns(uint) {... */\n    tag_5:\n      tag_29\n      tag_30\n      jump\t// in\n    tag_29:\n      mload(0x40)\n      tag_31\n      swap2\n      swap1\n      tag_25\n      jump\t// in\n    tag_31:\n      mload(0x40)\n      dup1\n      swap2\n      sub\n      swap1\n      return\n        /* \"contracts/005_DataStorage.sol\":3648:3802  function weeksUnit() external pure returns(uint) {... */\n    tag_6:\n      tag_32\n      tag_33\n      jump\t// in\n    tag_32:\n      mload(0x40)\n      tag_34\n      swap2\n      swap1\n      tag_25\n      jump\t// in\n    tag_34:\n      mload(0x40)\n      dup1\n      swap2\n      sub\n      swap1\n      return\n        /* \"contracts/005_DataStorage.sol\":1538:1640  function fStorage() public {... */\n    tag_7:\n      tag_35\n      tag_36\n      jump\t// in\n    tag_35:\n      stop\n        /* \"contracts/005_DataStorage.sol\":1194:1298  function fCalldata(uint[] calldata x) public pure returns (uint[] calldata) {... */\n    tag_8:\n      tag_37\n      0x04\n      dup1\n      calldatasize\n      sub\n      dup2\n      add\n      swap1\n      tag_38\n      swap2\n      swap1\n      tag_39\n      jump\t// in\n    tag_38:\n      tag_40\n      jump\t// in\n    tag_37:\n      mload(0x40)\n      tag_41\n      swap3\n      swap2\n      swap1\n      tag_42\n      jump\t// in\n    tag_41:\n      mload(0x40)\n      dup1\n      swap2\n      sub\n      swap1\n      return\n        /* \"contracts/005_DataStorage.sol\":2102:2335  function global() external view returns(address, uint, bytes memory){... */\n    tag_9:\n      tag_43\n      tag_44\n      jump\t// in\n    tag_43:\n      mload(0x40)\n      tag_45\n      swap4\n      swap3\n      swap2\n      swap1\n      tag_46\n      jump\t// in\n    tag_45:\n      mload(0x40)\n      dup1\n      swap2\n      sub\n      swap1\n      return\n        /* \"contracts/005_DataStorage.sol\":3489:3640  function daysUnit() external pure returns(uint) {... */\n    tag_10:\n      tag_47\n      tag_48\n      jump\t// in\n    tag_47:\n      mload(0x40)\n      tag_49\n      swap2\n      swap1\n      tag_25\n      jump\t// in\n    tag_49:\n      mload(0x40)\n      dup1\n      swap2\n      sub\n      swap1\n      return\n        /* \"contracts/005_DataStorage.sol\":1695:1708  uint public y */\n    tag_11:\n      tag_50\n      tag_51\n      jump\t// in\n    tag_50:\n      mload(0x40)\n      tag_52\n      swap2\n      swap1\n      tag_25\n      jump\t// in\n    tag_52:\n      mload(0x40)\n      dup1\n      swap2\n      sub\n      swap1\n      return\n        /* \"contracts/005_DataStorage.sol\":2508:2659  function gweiUnit() external pure returns(uint) {... */\n    tag_12:\n      tag_53\n      tag_54\n      jump\t// in\n    tag_53:\n      mload(0x40)\n      tag_55\n      swap2\n      swap1\n      tag_25\n      jump\t// in\n    tag_55:\n      mload(0x40)\n      dup1\n      swap2\n      sub\n      swap1\n      return\n        /* \"contracts/005_DataStorage.sol\":3325:3481  function hoursUnit() external pure returns(uint) {... */\n    tag_13:\n      tag_56\n      tag_57\n      jump\t// in\n    tag_56:\n      mload(0x40)\n      tag_58\n      swap2\n      swap1\n      tag_25\n      jump\t// in\n    tag_58:\n      mload(0x40)\n      dup1\n      swap2\n      sub\n      swap1\n      return\n        /* \"contracts/005_DataStorage.sol\":1811:1896  function foo() external {... */\n    tag_14:\n      tag_59\n      tag_60\n      jump\t// in\n    tag_59:\n      stop\n        /* \"contracts/005_DataStorage.sol\":1715:1730  string public z */\n    tag_15:\n      tag_61\n      tag_62\n      jump\t// in\n    tag_61:\n      mload(0x40)\n      tag_63\n      swap2\n      swap1\n      tag_64\n      jump\t// in\n    tag_63:\n      mload(0x40)\n      dup1\n      swap2\n      sub\n      swap1\n      return\n        /* \"contracts/005_DataStorage.sol\":2667:2832  function etherUnit() external pure returns(uint) {... */\n    tag_16:\n      tag_65\n      tag_66\n      jump\t// in\n    tag_65:\n      mload(0x40)\n      tag_67\n      swap2\n      swap1\n      tag_25\n      jump\t// in\n    tag_67:\n      mload(0x40)\n      dup1\n      swap2\n      sub\n      swap1\n      return\n        /* \"contracts/005_DataStorage.sol\":3155:3317  function minutesUnit() external pure returns(uint) {... */\n    tag_17:\n      tag_68\n      tag_69\n      jump\t// in\n    tag_68:\n      mload(0x40)\n      tag_70\n      swap2\n      swap1\n      tag_25\n      jump\t// in\n    tag_70:\n      mload(0x40)\n      dup1\n      swap2\n      sub\n      swap1\n      return\n        /* \"contracts/005_DataStorage.sol\":1927:2070  function bar() external pure returns(uint){... */\n    tag_18:\n      tag_71\n      tag_72\n      jump\t// in\n    tag_71:\n      mload(0x40)\n      tag_73\n      swap2\n      swap1\n      tag_25\n      jump\t// in\n    tag_73:\n      mload(0x40)\n      dup1\n      swap2\n      sub\n      swap1\n      return\n        /* \"contracts/005_DataStorage.sol\":3028:3147  function secondsUnit() external pure returns(uint) {... */\n    tag_23:\n        /* \"contracts/005_DataStorage.sol\":3073:3077  uint */\n      0x00\n        /* \"contracts/005_DataStorage.sol\":3110:3111  1 */\n      0x01\n        /* \"contracts/005_DataStorage.sol\":3097:3106  1 seconds */\n      dup1\n        /* \"contracts/005_DataStorage.sol\":3097:3111  1 seconds == 1 */\n      eq\n        /* \"contracts/005_DataStorage.sol\":3090:3112  assert(1 seconds == 1) */\n      tag_75\n      jumpi\n      tag_76\n      tag_77\n      jump\t// in\n    tag_76:\n    tag_75:\n        /* \"contracts/005_DataStorage.sol\":3130:3139  1 seconds */\n      0x01\n        /* \"contracts/005_DataStorage.sol\":3123:3139  return 1 seconds */\n      swap1\n      pop\n        /* \"contracts/005_DataStorage.sol\":3028:3147  function secondsUnit() external pure returns(uint) {... */\n      swap1\n      jump\t// out\n        /* \"contracts/005_DataStorage.sol\":1671:1688  uint public x = 1 */\n    tag_27:\n      sload(0x01)\n      dup2\n      jump\t// out\n        /* \"contracts/005_DataStorage.sol\":2362:2500  function weiUnit() external pure returns(uint) {... */\n    tag_30:\n        /* \"contracts/005_DataStorage.sol\":2403:2407  uint */\n      0x00\n        /* \"contracts/005_DataStorage.sol\":2436:2439  1e0 */\n      0x01\n        /* \"contracts/005_DataStorage.sol\":2427:2432  1 wei */\n      dup1\n        /* \"contracts/005_DataStorage.sol\":2427:2439  1 wei == 1e0 */\n      eq\n        /* \"contracts/005_DataStorage.sol\":2420:2440  assert(1 wei == 1e0) */\n      tag_79\n      jumpi\n      tag_80\n      tag_77\n      jump\t// in\n    tag_80:\n    tag_79:\n        /* \"contracts/005_DataStorage.sol\":2467:2468  1 */\n      0x01\n        /* \"contracts/005_DataStorage.sol\":2458:2463  1 wei */\n      dup1\n        /* \"contracts/005_DataStorage.sol\":2458:2468  1 wei == 1 */\n      eq\n        /* \"contracts/005_DataStorage.sol\":2451:2469  assert(1 wei == 1) */\n      tag_81\n      jumpi\n      tag_82\n      tag_77\n      jump\t// in\n    tag_82:\n    tag_81:\n        /* \"contracts/005_DataStorage.sol\":2487:2492  1 wei */\n      0x01\n        /* \"contracts/005_DataStorage.sol\":2480:2492  return 1 wei */\n      swap1\n      pop\n        /* \"contracts/005_DataStorage.sol\":2362:2500  function weiUnit() external pure returns(uint) {... */\n      swap1\n      jump\t// out\n        /* \"contracts/005_DataStorage.sol\":3648:3802  function weeksUnit() external pure returns(uint) {... */\n    tag_33:\n        /* \"contracts/005_DataStorage.sol\":3691:3695  uint */\n      0x00\n        /* \"contracts/005_DataStorage.sol\":3726:3732  604800 */\n      0x093a80\n        /* \"contracts/005_DataStorage.sol\":3715:3722  1 weeks */\n      dup1\n        /* \"contracts/005_DataStorage.sol\":3715:3732  1 weeks == 604800 */\n      eq\n        /* \"contracts/005_DataStorage.sol\":3708:3733  assert(1 weeks == 604800) */\n      tag_84\n      jumpi\n      tag_85\n      tag_77\n      jump\t// in\n    tag_85:\n    tag_84:\n        /* \"contracts/005_DataStorage.sol\":3762:3768  7 days */\n      0x093a80\n        /* \"contracts/005_DataStorage.sol\":3751:3758  1 weeks */\n      dup1\n        /* \"contracts/005_DataStorage.sol\":3751:3768  1 weeks == 7 days */\n      eq\n        /* \"contracts/005_DataStorage.sol\":3744:3769  assert(1 weeks == 7 days) */\n      tag_86\n      jumpi\n      tag_87\n      tag_77\n      jump\t// in\n    tag_87:\n    tag_86:\n        /* \"contracts/005_DataStorage.sol\":3787:3794  1 weeks */\n      0x093a80\n        /* \"contracts/005_DataStorage.sol\":3780:3794  return 1 weeks */\n      swap1\n      pop\n        /* \"contracts/005_DataStorage.sol\":3648:3802  function weeksUnit() external pure returns(uint) {... */\n      swap1\n      jump\t// out\n        /* \"contracts/005_DataStorage.sol\":1538:1640  function fStorage() public {... */\n    tag_36:\n        /* \"contracts/005_DataStorage.sol\":1576:1599  uint[] storage xStorage */\n      0x00\n        /* \"contracts/005_DataStorage.sol\":1629:1632  100 */\n      0x64\n        /* \"contracts/005_DataStorage.sol\":1615:1623  xStorage */\n      dup2\n        /* \"contracts/005_DataStorage.sol\":1624:1625  0 */\n      0x00\n        /* \"contracts/005_DataStorage.sol\":1615:1626  xStorage[0] */\n      dup2\n      sload\n      dup2\n      lt\n      tag_89\n      jumpi\n      tag_90\n      tag_91\n      jump\t// in\n    tag_90:\n    tag_89:\n      swap1\n      0x00\n      mstore\n      keccak256(0x00, 0x20)\n      add\n        /* \"contracts/005_DataStorage.sol\":1615:1632  xStorage[0] = 100 */\n      dup2\n      swap1\n      sstore\n      pop\n        /* \"contracts/005_DataStorage.sol\":1565:1640  {... */\n      pop\n        /* \"contracts/005_DataStorage.sol\":1538:1640  function fStorage() public {... */\n      jump\t// out\n        /* \"contracts/005_DataStorage.sol\":1194:1298  function fCalldata(uint[] calldata x) public pure returns (uint[] calldata) {... */\n    tag_40:\n        /* \"contracts/005_DataStorage.sol\":1253:1268  uint[] calldata */\n      calldatasize\n      0x00\n        /* \"contracts/005_DataStorage.sol\":1288:1289  x */\n      dup4\n      dup4\n        /* \"contracts/005_DataStorage.sol\":1281:1290  return(x) */\n      swap2\n      pop\n      swap2\n      pop\n        /* \"contracts/005_DataStorage.sol\":1194:1298  function fCalldata(uint[] calldata x) public pure returns (uint[] calldata) {... */\n      swap3\n      pop\n      swap3\n      swap1\n      pop\n      jump\t// out\n        /* \"contracts/005_DataStorage.sol\":2102:2335  function global() external view returns(address, uint, bytes memory){... */\n    tag_44:\n        /* \"contracts/005_DataStorage.sol\":2142:2149  address */\n      0x00\n        /* \"contracts/005_DataStorage.sol\":2151:2155  uint */\n      dup1\n        /* \"contracts/005_DataStorage.sol\":2157:2169  bytes memory */\n      0x60\n        /* \"contracts/005_DataStorage.sol\":2181:2195  address sender */\n      0x00\n        /* \"contracts/005_DataStorage.sol\":2198:2208  msg.sender */\n      caller\n        /* \"contracts/005_DataStorage.sol\":2181:2208  address sender = msg.sender */\n      swap1\n      pop\n        /* \"contracts/005_DataStorage.sol\":2219:2232  uint blockNum */\n      0x00\n        /* \"contracts/005_DataStorage.sol\":2235:2247  block.number */\n      number\n        /* \"contracts/005_DataStorage.sol\":2219:2247  uint blockNum = block.number */\n      swap1\n      pop\n        /* \"contracts/005_DataStorage.sol\":2258:2275  bytes memory data */\n      0x00\n        /* \"contracts/005_DataStorage.sol\":2278:2286  msg.data */\n      dup1\n      calldatasize\n        /* \"contracts/005_DataStorage.sol\":2258:2286  bytes memory data = msg.data */\n      dup1\n      dup1\n      0x1f\n      add\n      0x20\n      dup1\n      swap2\n      div\n      mul\n      0x20\n      add\n      mload(0x40)\n      swap1\n      dup2\n      add\n      0x40\n      mstore\n      dup1\n      swap4\n      swap3\n      swap2\n      swap1\n      dup2\n      dup2\n      mstore\n      0x20\n      add\n      dup4\n      dup4\n      dup1\n      dup3\n      dup5\n      calldatacopy\n      0x00\n      dup2\n      dup5\n      add\n      mstore\n      not(0x1f)\n      0x1f\n      dup3\n      add\n      and\n      swap1\n      pop\n      dup1\n      dup4\n      add\n      swap3\n      pop\n      pop\n      pop\n      pop\n      pop\n      pop\n      pop\n      swap1\n      pop\n        /* \"contracts/005_DataStorage.sol\":2304:2310  sender */\n      dup3\n        /* \"contracts/005_DataStorage.sol\":2312:2320  blockNum */\n      dup3\n        /* \"contracts/005_DataStorage.sol\":2322:2326  data */\n      dup3\n        /* \"contracts/005_DataStorage.sol\":2297:2327  return(sender, blockNum, data) */\n      swap6\n      pop\n      swap6\n      pop\n      swap6\n      pop\n      pop\n      pop\n      pop\n        /* \"contracts/005_DataStorage.sol\":2102:2335  function global() external view returns(address, uint, bytes memory){... */\n      swap1\n      swap2\n      swap3\n      jump\t// out\n        /* \"contracts/005_DataStorage.sol\":3489:3640  function daysUnit() external pure returns(uint) {... */\n    tag_48:\n        /* \"contracts/005_DataStorage.sol\":3531:3535  uint */\n      0x00\n        /* \"contracts/005_DataStorage.sol\":3565:3570  86400 */\n      0x015180\n        /* \"contracts/005_DataStorage.sol\":3555:3561  1 days */\n      dup1\n        /* \"contracts/005_DataStorage.sol\":3555:3570  1 days == 86400 */\n      eq\n        /* \"contracts/005_DataStorage.sol\":3548:3571  assert(1 days == 86400) */\n      tag_96\n      jumpi\n      tag_97\n      tag_77\n      jump\t// in\n    tag_97:\n    tag_96:\n        /* \"contracts/005_DataStorage.sol\":3599:3607  24 hours */\n      0x015180\n        /* \"contracts/005_DataStorage.sol\":3589:3595  1 days */\n      dup1\n        /* \"contracts/005_DataStorage.sol\":3589:3607  1 days == 24 hours */\n      eq\n        /* \"contracts/005_DataStorage.sol\":3582:3608  assert(1 days == 24 hours) */\n      tag_98\n      jumpi\n      tag_99\n      tag_77\n      jump\t// in\n    tag_99:\n    tag_98:\n        /* \"contracts/005_DataStorage.sol\":3626:3632  1 days */\n      0x015180\n        /* \"contracts/005_DataStorage.sol\":3619:3632  return 1 days */\n      swap1\n      pop\n        /* \"contracts/005_DataStorage.sol\":3489:3640  function daysUnit() external pure returns(uint) {... */\n      swap1\n      jump\t// out\n        /* \"contracts/005_DataStorage.sol\":1695:1708  uint public y */\n    tag_51:\n      sload(0x02)\n      dup2\n      jump\t// out\n        /* \"contracts/005_DataStorage.sol\":2508:2659  function gweiUnit() external pure returns(uint) {... */\n    tag_54:\n        /* \"contracts/005_DataStorage.sol\":2550:2554  uint */\n      0x00\n        /* \"contracts/005_DataStorage.sol\":2584:2587  1e9 */\n      0x3b9aca00\n        /* \"contracts/005_DataStorage.sol\":2574:2580  1 gwei */\n      dup1\n        /* \"contracts/005_DataStorage.sol\":2574:2587  1 gwei == 1e9 */\n      eq\n        /* \"contracts/005_DataStorage.sol\":2567:2588  assert(1 gwei == 1e9) */\n      tag_101\n      jumpi\n      tag_102\n      tag_77\n      jump\t// in\n    tag_102:\n    tag_101:\n        /* \"contracts/005_DataStorage.sol\":2616:2626  1000000000 */\n      0x3b9aca00\n        /* \"contracts/005_DataStorage.sol\":2606:2612  1 gwei */\n      dup1\n        /* \"contracts/005_DataStorage.sol\":2606:2626  1 gwei == 1000000000 */\n      eq\n        /* \"contracts/005_DataStorage.sol\":2599:2627  assert(1 gwei == 1000000000) */\n      tag_103\n      jumpi\n      tag_104\n      tag_77\n      jump\t// in\n    tag_104:\n    tag_103:\n        /* \"contracts/005_DataStorage.sol\":2645:2651  1 gwei */\n      0x3b9aca00\n        /* \"contracts/005_DataStorage.sol\":2638:2651  return 1 gwei */\n      swap1\n      pop\n        /* \"contracts/005_DataStorage.sol\":2508:2659  function gweiUnit() external pure returns(uint) {... */\n      swap1\n      jump\t// out\n        /* \"contracts/005_DataStorage.sol\":3325:3481  function hoursUnit() external pure returns(uint) {... */\n    tag_57:\n        /* \"contracts/005_DataStorage.sol\":3368:3372  uint */\n      0x00\n        /* \"contracts/005_DataStorage.sol\":3403:3407  3600 */\n      0x0e10\n        /* \"contracts/005_DataStorage.sol\":3392:3399  1 hours */\n      dup1\n        /* \"contracts/005_DataStorage.sol\":3392:3407  1 hours == 3600 */\n      eq\n        /* \"contracts/005_DataStorage.sol\":3385:3408  assert(1 hours == 3600) */\n      tag_106\n      jumpi\n      tag_107\n      tag_77\n      jump\t// in\n    tag_107:\n    tag_106:\n        /* \"contracts/005_DataStorage.sol\":3437:3447  60 minutes */\n      0x0e10\n        /* \"contracts/005_DataStorage.sol\":3426:3433  1 hours */\n      dup1\n        /* \"contracts/005_DataStorage.sol\":3426:3447  1 hours == 60 minutes */\n      eq\n        /* \"contracts/005_DataStorage.sol\":3419:3448  assert(1 hours == 60 minutes) */\n      tag_108\n      jumpi\n      tag_109\n      tag_77\n      jump\t// in\n    tag_109:\n    tag_108:\n        /* \"contracts/005_DataStorage.sol\":3466:3473  1 hours */\n      0x0e10\n        /* \"contracts/005_DataStorage.sol\":3459:3473  return 1 hours */\n      swap1\n      pop\n        /* \"contracts/005_DataStorage.sol\":3325:3481  function hoursUnit() external pure returns(uint) {... */\n      swap1\n      jump\t// out\n        /* \"contracts/005_DataStorage.sol\":1811:1896  function foo() external {... */\n    tag_60:\n        /* \"contracts/005_DataStorage.sol\":1850:1851  5 */\n      0x05\n        /* \"contracts/005_DataStorage.sol\":1846:1847  x */\n      0x01\n        /* \"contracts/005_DataStorage.sol\":1846:1851  x = 5 */\n      dup2\n      swap1\n      sstore\n      pop\n        /* \"contracts/005_DataStorage.sol\":1866:1867  2 */\n      0x02\n        /* \"contracts/005_DataStorage.sol\":1862:1863  y */\n      dup1\n        /* \"contracts/005_DataStorage.sol\":1862:1867  y = 2 */\n      dup2\n      swap1\n      sstore\n      pop\n        /* \"contracts/005_DataStorage.sol\":1878:1888  z = \"0xAA\" */\n      mload(0x40)\n      dup1\n      0x40\n      add\n      0x40\n      mstore\n      dup1\n      0x04\n      dup2\n      mstore\n      0x20\n      add\n      0x3078414100000000000000000000000000000000000000000000000000000000\n      dup2\n      mstore\n      pop\n        /* \"contracts/005_DataStorage.sol\":1878:1879  z */\n      0x03\n        /* \"contracts/005_DataStorage.sol\":1878:1888  z = \"0xAA\" */\n      swap1\n      dup2\n      tag_111\n      swap2\n      swap1\n      tag_112\n      jump\t// in\n    tag_111:\n      pop\n        /* \"contracts/005_DataStorage.sol\":1811:1896  function foo() external {... */\n      jump\t// out\n        /* \"contracts/005_DataStorage.sol\":1715:1730  string public z */\n    tag_62:\n      0x03\n      dup1\n      sload\n      tag_113\n      swap1\n      tag_114\n      jump\t// in\n    tag_113:\n      dup1\n      0x1f\n      add\n      0x20\n      dup1\n      swap2\n      div\n      mul\n      0x20\n      add\n      mload(0x40)\n      swap1\n      dup2\n      add\n      0x40\n      mstore\n      dup1\n      swap3\n      swap2\n      swap1\n      dup2\n      dup2\n      mstore\n      0x20\n      add\n      dup3\n      dup1\n      sload\n      tag_115\n      swap1\n      tag_114\n      jump\t// in\n    tag_115:\n      dup1\n      iszero\n      tag_116\n      jumpi\n      dup1\n      0x1f\n      lt\n      tag_117\n      jumpi\n      0x0100\n      dup1\n      dup4\n      sload\n      div\n      mul\n      dup4\n      mstore\n      swap2\n      0x20\n      add\n      swap2\n      jump(tag_116)\n    tag_117:\n      dup3\n      add\n      swap2\n      swap1\n      0x00\n      mstore\n      keccak256(0x00, 0x20)\n      swap1\n    tag_118:\n      dup2\n      sload\n      dup2\n      mstore\n      swap1\n      0x01\n      add\n      swap1\n      0x20\n      add\n      dup1\n      dup4\n      gt\n      tag_118\n      jumpi\n      dup3\n      swap1\n      sub\n      0x1f\n      and\n      dup3\n      add\n      swap2\n    tag_116:\n      pop\n      pop\n      pop\n      pop\n      pop\n      dup2\n      jump\t// out\n        /* \"contracts/005_DataStorage.sol\":2667:2832  function etherUnit() external pure returns(uint) {... */\n    tag_66:\n        /* \"contracts/005_DataStorage.sol\":2710:2714  uint */\n      0x00\n        /* \"contracts/005_DataStorage.sol\":2745:2749  1e18 */\n      0x0de0b6b3a7640000\n        /* \"contracts/005_DataStorage.sol\":2734:2741  1 ether */\n      dup1\n        /* \"contracts/005_DataStorage.sol\":2734:2749  1 ether == 1e18 */\n      eq\n        /* \"contracts/005_DataStorage.sol\":2727:2750  assert(1 ether == 1e18) */\n      tag_120\n      jumpi\n      tag_121\n      tag_77\n      jump\t// in\n    tag_121:\n    tag_120:\n        /* \"contracts/005_DataStorage.sol\":2779:2798  1000000000000000000 */\n      0x0de0b6b3a7640000\n        /* \"contracts/005_DataStorage.sol\":2768:2775  1 ether */\n      dup1\n        /* \"contracts/005_DataStorage.sol\":2768:2798  1 ether == 1000000000000000000 */\n      eq\n        /* \"contracts/005_DataStorage.sol\":2761:2799  assert(1 ether == 1000000000000000000) */\n      tag_122\n      jumpi\n      tag_123\n      tag_77\n      jump\t// in\n    tag_123:\n    tag_122:\n        /* \"contracts/005_DataStorage.sol\":2817:2824  1 ether */\n      0x0de0b6b3a7640000\n        /* \"contracts/005_DataStorage.sol\":2810:2824  return 1 ether */\n      swap1\n      pop\n        /* \"contracts/005_DataStorage.sol\":2667:2832  function etherUnit() external pure returns(uint) {... */\n      swap1\n      jump\t// out\n        /* \"contracts/005_DataStorage.sol\":3155:3317  function minutesUnit() external pure returns(uint) {... */\n    tag_69:\n        /* \"contracts/005_DataStorage.sol\":3200:3204  uint */\n      0x00\n        /* \"contracts/005_DataStorage.sol\":3237:3239  60 */\n      0x3c\n        /* \"contracts/005_DataStorage.sol\":3224:3233  1 minutes */\n      dup1\n        /* \"contracts/005_DataStorage.sol\":3224:3239  1 minutes == 60 */\n      eq\n        /* \"contracts/005_DataStorage.sol\":3217:3240  assert(1 minutes == 60) */\n      tag_125\n      jumpi\n      tag_126\n      tag_77\n      jump\t// in\n    tag_126:\n    tag_125:\n        /* \"contracts/005_DataStorage.sol\":3271:3281  60 seconds */\n      0x3c\n        /* \"contracts/005_DataStorage.sol\":3258:3267  1 minutes */\n      dup1\n        /* \"contracts/005_DataStorage.sol\":3258:3281  1 minutes == 60 seconds */\n      eq\n        /* \"contracts/005_DataStorage.sol\":3251:3282  assert(1 minutes == 60 seconds) */\n      tag_127\n      jumpi\n      tag_128\n      tag_77\n      jump\t// in\n    tag_128:\n    tag_127:\n        /* \"contracts/005_DataStorage.sol\":3300:3309  1 minutes */\n      0x3c\n        /* \"contracts/005_DataStorage.sol\":3293:3309  return 1 minutes */\n      swap1\n      pop\n        /* \"contracts/005_DataStorage.sol\":3155:3317  function minutesUnit() external pure returns(uint) {... */\n      swap1\n      jump\t// out\n        /* \"contracts/005_DataStorage.sol\":1927:2070  function bar() external pure returns(uint){... */\n    tag_72:\n        /* \"contracts/005_DataStorage.sol\":1964:1968  uint */\n      0x00\n        /* \"contracts/005_DataStorage.sol\":1980:1987  uint xx */\n      dup1\n        /* \"contracts/005_DataStorage.sol\":1990:1991  1 */\n      0x01\n        /* \"contracts/005_DataStorage.sol\":1980:1991  uint xx = 1 */\n      swap1\n      pop\n        /* \"contracts/005_DataStorage.sol\":2002:2009  uint yy */\n      0x00\n        /* \"contracts/005_DataStorage.sol\":2012:2013  3 */\n      0x03\n        /* \"contracts/005_DataStorage.sol\":2002:2013  uint yy = 3 */\n      swap1\n      pop\n        /* \"contracts/005_DataStorage.sol\":2024:2031  uint zz */\n      0x00\n        /* \"contracts/005_DataStorage.sol\":2039:2041  yy */\n      dup2\n        /* \"contracts/005_DataStorage.sol\":2034:2036  xx */\n      dup4\n        /* \"contracts/005_DataStorage.sol\":2034:2041  xx + yy */\n      tag_130\n      swap2\n      swap1\n      tag_131\n      jump\t// in\n    tag_130:\n        /* \"contracts/005_DataStorage.sol\":2024:2041  uint zz = xx + yy */\n      swap1\n      pop\n        /* \"contracts/005_DataStorage.sol\":2059:2061  zz */\n      dup1\n        /* \"contracts/005_DataStorage.sol\":2052:2062  return(zz) */\n      swap4\n      pop\n      pop\n      pop\n      pop\n        /* \"contracts/005_DataStorage.sol\":1927:2070  function bar() external pure returns(uint){... */\n      swap1\n      jump\t// out\n        /* \"#utility.yul\":7:84   */\n    tag_132:\n        /* \"#utility.yul\":44:51   */\n      0x00\n        /* \"#utility.yul\":73:78   */\n      dup2\n        /* \"#utility.yul\":62:78   */\n      swap1\n      pop\n        /* \"#utility.yul\":7:84   */\n      swap2\n      swap1\n      pop\n      jump\t// out\n        /* \"#utility.yul\":90:208   */\n    tag_133:\n        /* \"#utility.yul\":177:201   */\n      tag_177\n        /* \"#utility.yul\":195:200   */\n      dup2\n        /* \"#utility.yul\":177:201   */\n      tag_132\n      jump\t// in\n    tag_177:\n        /* \"#utility.yul\":172:175   */\n      dup3\n        /* \"#utility.yul\":165:202   */\n      mstore\n        /* \"#utility.yul\":90:208   */\n      pop\n      pop\n      jump\t// out\n        /* \"#utility.yul\":214:436   */\n    tag_25:\n        /* \"#utility.yul\":307:311   */\n      0x00\n        /* \"#utility.yul\":345:347   */\n      0x20\n        /* \"#utility.yul\":334:343   */\n      dup3\n        /* \"#utility.yul\":330:348   */\n      add\n        /* \"#utility.yul\":322:348   */\n      swap1\n      pop\n        /* \"#utility.yul\":358:429   */\n      tag_179\n        /* \"#utility.yul\":426:427   */\n      0x00\n        /* \"#utility.yul\":415:424   */\n      dup4\n        /* \"#utility.yul\":411:428   */\n      add\n        /* \"#utility.yul\":402:408   */\n      dup5\n        /* \"#utility.yul\":358:429   */\n      tag_133\n      jump\t// in\n    tag_179:\n        /* \"#utility.yul\":214:436   */\n      swap3\n      swap2\n      pop\n      pop\n      jump\t// out\n        /* \"#utility.yul\":523:640   */\n    tag_135:\n        /* \"#utility.yul\":632:633   */\n      0x00\n        /* \"#utility.yul\":629:630   */\n      dup1\n        /* \"#utility.yul\":622:634   */\n      revert\n        /* \"#utility.yul\":646:763   */\n    tag_136:\n        /* \"#utility.yul\":755:756   */\n      0x00\n        /* \"#utility.yul\":752:753   */\n      dup1\n        /* \"#utility.yul\":745:757   */\n      revert\n        /* \"#utility.yul\":769:886   */\n    tag_137:\n        /* \"#utility.yul\":878:879   */\n      0x00\n        /* \"#utility.yul\":875:876   */\n      dup1\n        /* \"#utility.yul\":868:880   */\n      revert\n        /* \"#utility.yul\":892:1009   */\n    tag_138:\n        /* \"#utility.yul\":1001:1002   */\n      0x00\n        /* \"#utility.yul\":998:999   */\n      dup1\n        /* \"#utility.yul\":991:1003   */\n      revert\n        /* \"#utility.yul\":1015:1132   */\n    tag_139:\n        /* \"#utility.yul\":1124:1125   */\n      0x00\n        /* \"#utility.yul\":1121:1122   */\n      dup1\n        /* \"#utility.yul\":1114:1126   */\n      revert\n        /* \"#utility.yul\":1155:1723   */\n    tag_140:\n        /* \"#utility.yul\":1228:1236   */\n      0x00\n        /* \"#utility.yul\":1238:1244   */\n      dup1\n        /* \"#utility.yul\":1288:1291   */\n      dup4\n        /* \"#utility.yul\":1281:1285   */\n      0x1f\n        /* \"#utility.yul\":1273:1279   */\n      dup5\n        /* \"#utility.yul\":1269:1286   */\n      add\n        /* \"#utility.yul\":1265:1292   */\n      slt\n        /* \"#utility.yul\":1255:1377   */\n      tag_187\n      jumpi\n        /* \"#utility.yul\":1296:1375   */\n      tag_188\n      tag_137\n      jump\t// in\n    tag_188:\n        /* \"#utility.yul\":1255:1377   */\n    tag_187:\n        /* \"#utility.yul\":1409:1415   */\n      dup3\n        /* \"#utility.yul\":1396:1416   */\n      calldataload\n        /* \"#utility.yul\":1386:1416   */\n      swap1\n      pop\n        /* \"#utility.yul\":1439:1457   */\n      0xffffffffffffffff\n        /* \"#utility.yul\":1431:1437   */\n      dup2\n        /* \"#utility.yul\":1428:1458   */\n      gt\n        /* \"#utility.yul\":1425:1542   */\n      iszero\n      tag_189\n      jumpi\n        /* \"#utility.yul\":1461:1540   */\n      tag_190\n      tag_138\n      jump\t// in\n    tag_190:\n        /* \"#utility.yul\":1425:1542   */\n    tag_189:\n        /* \"#utility.yul\":1575:1579   */\n      0x20\n        /* \"#utility.yul\":1567:1573   */\n      dup4\n        /* \"#utility.yul\":1563:1580   */\n      add\n        /* \"#utility.yul\":1551:1580   */\n      swap2\n      pop\n        /* \"#utility.yul\":1629:1632   */\n      dup4\n        /* \"#utility.yul\":1621:1625   */\n      0x20\n        /* \"#utility.yul\":1613:1619   */\n      dup3\n        /* \"#utility.yul\":1609:1626   */\n      mul\n        /* \"#utility.yul\":1599:1607   */\n      dup4\n        /* \"#utility.yul\":1595:1627   */\n      add\n        /* \"#utility.yul\":1592:1633   */\n      gt\n        /* \"#utility.yul\":1589:1717   */\n      iszero\n      tag_191\n      jumpi\n        /* \"#utility.yul\":1636:1715   */\n      tag_192\n      tag_139\n      jump\t// in\n    tag_192:\n        /* \"#utility.yul\":1589:1717   */\n    tag_191:\n        /* \"#utility.yul\":1155:1723   */\n      swap3\n      pop\n      swap3\n      swap1\n      pop\n      jump\t// out\n        /* \"#utility.yul\":1729:2288   */\n    tag_39:\n        /* \"#utility.yul\":1815:1821   */\n      0x00\n        /* \"#utility.yul\":1823:1829   */\n      dup1\n        /* \"#utility.yul\":1872:1874   */\n      0x20\n        /* \"#utility.yul\":1860:1869   */\n      dup4\n        /* \"#utility.yul\":1851:1858   */\n      dup6\n        /* \"#utility.yul\":1847:1870   */\n      sub\n        /* \"#utility.yul\":1843:1875   */\n      slt\n        /* \"#utility.yul\":1840:1959   */\n      iszero\n      tag_194\n      jumpi\n        /* \"#utility.yul\":1878:1957   */\n      tag_195\n      tag_135\n      jump\t// in\n    tag_195:\n        /* \"#utility.yul\":1840:1959   */\n    tag_194:\n        /* \"#utility.yul\":2026:2027   */\n      0x00\n        /* \"#utility.yul\":2015:2024   */\n      dup4\n        /* \"#utility.yul\":2011:2028   */\n      add\n        /* \"#utility.yul\":1998:2029   */\n      calldataload\n        /* \"#utility.yul\":2056:2074   */\n      0xffffffffffffffff\n        /* \"#utility.yul\":2048:2054   */\n      dup2\n        /* \"#utility.yul\":2045:2075   */\n      gt\n        /* \"#utility.yul\":2042:2159   */\n      iszero\n      tag_196\n      jumpi\n        /* \"#utility.yul\":2078:2157   */\n      tag_197\n      tag_136\n      jump\t// in\n    tag_197:\n        /* \"#utility.yul\":2042:2159   */\n    tag_196:\n        /* \"#utility.yul\":2191:2271   */\n      tag_198\n        /* \"#utility.yul\":2263:2270   */\n      dup6\n        /* \"#utility.yul\":2254:2260   */\n      dup3\n        /* \"#utility.yul\":2243:2252   */\n      dup7\n        /* \"#utility.yul\":2239:2261   */\n      add\n        /* \"#utility.yul\":2191:2271   */\n      tag_140\n      jump\t// in\n    tag_198:\n        /* \"#utility.yul\":2173:2271   */\n      swap3\n      pop\n      swap3\n      pop\n        /* \"#utility.yul\":1969:2281   */\n      pop\n        /* \"#utility.yul\":1729:2288   */\n      swap3\n      pop\n      swap3\n      swap1\n      pop\n      jump\t// out\n        /* \"#utility.yul\":2294:2478   */\n    tag_141:\n        /* \"#utility.yul\":2393:2404   */\n      0x00\n        /* \"#utility.yul\":2427:2433   */\n      dup3\n        /* \"#utility.yul\":2422:2425   */\n      dup3\n        /* \"#utility.yul\":2415:2434   */\n      mstore\n        /* \"#utility.yul\":2467:2471   */\n      0x20\n        /* \"#utility.yul\":2462:2465   */\n      dup3\n        /* \"#utility.yul\":2458:2472   */\n      add\n        /* \"#utility.yul\":2443:2472   */\n      swap1\n      pop\n        /* \"#utility.yul\":2294:2478   */\n      swap3\n      swap2\n      pop\n      pop\n      jump\t// out\n        /* \"#utility.yul\":2484:2601   */\n    tag_142:\n        /* \"#utility.yul\":2593:2594   */\n      0x00\n        /* \"#utility.yul\":2590:2591   */\n      dup1\n        /* \"#utility.yul\":2583:2595   */\n      revert\n        /* \"#utility.yul\":2607:2706   */\n    tag_143:\n        /* \"#utility.yul\":2692:2698   */\n      dup3\n        /* \"#utility.yul\":2687:2690   */\n      dup2\n        /* \"#utility.yul\":2682:2685   */\n      dup4\n        /* \"#utility.yul\":2669:2699   */\n      calldatacopy\n        /* \"#utility.yul\":2607:2706   */\n      pop\n      pop\n      pop\n      jump\t// out\n        /* \"#utility.yul\":2742:3279   */\n    tag_144:\n        /* \"#utility.yul\":2870:2873   */\n      0x00\n        /* \"#utility.yul\":2891:2977   */\n      tag_203\n        /* \"#utility.yul\":2970:2976   */\n      dup4\n        /* \"#utility.yul\":2965:2968   */\n      dup6\n        /* \"#utility.yul\":2891:2977   */\n      tag_141\n      jump\t// in\n    tag_203:\n        /* \"#utility.yul\":2884:2977   */\n      swap4\n      pop\n        /* \"#utility.yul\":3001:3067   */\n      0x07ffffffffffffffffffffffffffffffffffffffffffffffffffffffffffffff\n        /* \"#utility.yul\":2993:2999   */\n      dup4\n        /* \"#utility.yul\":2990:3068   */\n      gt\n        /* \"#utility.yul\":2987:3152   */\n      iszero\n      tag_204\n      jumpi\n        /* \"#utility.yul\":3071:3150   */\n      tag_205\n      tag_142\n      jump\t// in\n    tag_205:\n        /* \"#utility.yul\":2987:3152   */\n    tag_204:\n        /* \"#utility.yul\":3183:3187   */\n      0x20\n        /* \"#utility.yul\":3175:3181   */\n      dup4\n        /* \"#utility.yul\":3171:3188   */\n      mul\n        /* \"#utility.yul\":3161:3188   */\n      swap3\n      pop\n        /* \"#utility.yul\":3198:3241   */\n      tag_206\n        /* \"#utility.yul\":3234:3240   */\n      dup4\n        /* \"#utility.yul\":3229:3232   */\n      dup6\n        /* \"#utility.yul\":3222:3227   */\n      dup5\n        /* \"#utility.yul\":3198:3241   */\n      tag_143\n      jump\t// in\n    tag_206:\n        /* \"#utility.yul\":3266:3272   */\n      dup3\n        /* \"#utility.yul\":3261:3264   */\n      dup5\n        /* \"#utility.yul\":3257:3273   */\n      add\n        /* \"#utility.yul\":3250:3273   */\n      swap1\n      pop\n        /* \"#utility.yul\":2742:3279   */\n      swap4\n      swap3\n      pop\n      pop\n      pop\n      jump\t// out\n        /* \"#utility.yul\":3285:3678   */\n    tag_42:\n        /* \"#utility.yul\":3438:3442   */\n      0x00\n        /* \"#utility.yul\":3476:3478   */\n      0x20\n        /* \"#utility.yul\":3465:3474   */\n      dup3\n        /* \"#utility.yul\":3461:3479   */\n      add\n        /* \"#utility.yul\":3453:3479   */\n      swap1\n      pop\n        /* \"#utility.yul\":3525:3534   */\n      dup2\n        /* \"#utility.yul\":3519:3523   */\n      dup2\n        /* \"#utility.yul\":3515:3535   */\n      sub\n        /* \"#utility.yul\":3511:3512   */\n      0x00\n        /* \"#utility.yul\":3500:3509   */\n      dup4\n        /* \"#utility.yul\":3496:3513   */\n      add\n        /* \"#utility.yul\":3489:3536   */\n      mstore\n        /* \"#utility.yul\":3553:3671   */\n      tag_208\n        /* \"#utility.yul\":3666:3670   */\n      dup2\n        /* \"#utility.yul\":3657:3663   */\n      dup5\n        /* \"#utility.yul\":3649:3655   */\n      dup7\n        /* \"#utility.yul\":3553:3671   */\n      tag_144\n      jump\t// in\n    tag_208:\n        /* \"#utility.yul\":3545:3671   */\n      swap1\n      pop\n        /* \"#utility.yul\":3285:3678   */\n      swap4\n      swap3\n      pop\n      pop\n      pop\n      jump\t// out\n        /* \"#utility.yul\":3684:3810   */\n    tag_145:\n        /* \"#utility.yul\":3721:3728   */\n      0x00\n        /* \"#utility.yul\":3761:3803   */\n      0xffffffffffffffffffffffffffffffffffffffff\n        /* \"#utility.yul\":3754:3759   */\n      dup3\n        /* \"#utility.yul\":3750:3804   */\n      and\n        /* \"#utility.yul\":3739:3804   */\n      swap1\n      pop\n        /* \"#utility.yul\":3684:3810   */\n      swap2\n      swap1\n      pop\n      jump\t// out\n        /* \"#utility.yul\":3816:3912   */\n    tag_146:\n        /* \"#utility.yul\":3853:3860   */\n      0x00\n        /* \"#utility.yul\":3882:3906   */\n      tag_211\n        /* \"#utility.yul\":3900:3905   */\n      dup3\n        /* \"#utility.yul\":3882:3906   */\n      tag_145\n      jump\t// in\n    tag_211:\n        /* \"#utility.yul\":3871:3906   */\n      swap1\n      pop\n        /* \"#utility.yul\":3816:3912   */\n      swap2\n      swap1\n      pop\n      jump\t// out\n        /* \"#utility.yul\":3918:4036   */\n    tag_147:\n        /* \"#utility.yul\":4005:4029   */\n      tag_213\n        /* \"#utility.yul\":4023:4028   */\n      dup2\n        /* \"#utility.yul\":4005:4029   */\n      tag_146\n      jump\t// in\n    tag_213:\n        /* \"#utility.yul\":4000:4003   */\n      dup3\n        /* \"#utility.yul\":3993:4030   */\n      mstore\n        /* \"#utility.yul\":3918:4036   */\n      pop\n      pop\n      jump\t// out\n        /* \"#utility.yul\":4042:4140   */\n    tag_148:\n        /* \"#utility.yul\":4093:4099   */\n      0x00\n        /* \"#utility.yul\":4127:4132   */\n      dup2\n        /* \"#utility.yul\":4121:4133   */\n      mload\n        /* \"#utility.yul\":4111:4133   */\n      swap1\n      pop\n        /* \"#utility.yul\":4042:4140   */\n      swap2\n      swap1\n      pop\n      jump\t// out\n        /* \"#utility.yul\":4146:4314   */\n    tag_149:\n        /* \"#utility.yul\":4229:4240   */\n      0x00\n        /* \"#utility.yul\":4263:4269   */\n      dup3\n        /* \"#utility.yul\":4258:4261   */\n      dup3\n        /* \"#utility.yul\":4251:4270   */\n      mstore\n        /* \"#utility.yul\":4303:4307   */\n      0x20\n        /* \"#utility.yul\":4298:4301   */\n      dup3\n        /* \"#utility.yul\":4294:4308   */\n      add\n        /* \"#utility.yul\":4279:4308   */\n      swap1\n      pop\n        /* \"#utility.yul\":4146:4314   */\n      swap3\n      swap2\n      pop\n      pop\n      jump\t// out\n        /* \"#utility.yul\":4320:4459   */\n    tag_150:\n        /* \"#utility.yul\":4409:4415   */\n      dup3\n        /* \"#utility.yul\":4404:4407   */\n      dup2\n        /* \"#utility.yul\":4399:4402   */\n      dup4\n        /* \"#utility.yul\":4393:4416   */\n      mcopy\n        /* \"#utility.yul\":4450:4451   */\n      0x00\n        /* \"#utility.yul\":4441:4447   */\n      dup4\n        /* \"#utility.yul\":4436:4439   */\n      dup4\n        /* \"#utility.yul\":4432:4448   */\n      add\n        /* \"#utility.yul\":4425:4452   */\n      mstore\n        /* \"#utility.yul\":4320:4459   */\n      pop\n      pop\n      pop\n      jump\t// out\n        /* \"#utility.yul\":4465:4567   */\n    tag_151:\n        /* \"#utility.yul\":4506:4512   */\n      0x00\n        /* \"#utility.yul\":4557:4559   */\n      0x1f\n        /* \"#utility.yul\":4553:4560   */\n      not\n        /* \"#utility.yul\":4548:4550   */\n      0x1f\n        /* \"#utility.yul\":4541:4546   */\n      dup4\n        /* \"#utility.yul\":4537:4551   */\n      add\n        /* \"#utility.yul\":4533:4561   */\n      and\n        /* \"#utility.yul\":4523:4561   */\n      swap1\n      pop\n        /* \"#utility.yul\":4465:4567   */\n      swap2\n      swap1\n      pop\n      jump\t// out\n        /* \"#utility.yul\":4573:4946   */\n    tag_152:\n        /* \"#utility.yul\":4659:4662   */\n      0x00\n        /* \"#utility.yul\":4687:4725   */\n      tag_219\n        /* \"#utility.yul\":4719:4724   */\n      dup3\n        /* \"#utility.yul\":4687:4725   */\n      tag_148\n      jump\t// in\n    tag_219:\n        /* \"#utility.yul\":4741:4811   */\n      tag_220\n        /* \"#utility.yul\":4804:4810   */\n      dup2\n        /* \"#utility.yul\":4799:4802   */\n      dup6\n        /* \"#utility.yul\":4741:4811   */\n      tag_149\n      jump\t// in\n    tag_220:\n        /* \"#utility.yul\":4734:4811   */\n      swap4\n      pop\n        /* \"#utility.yul\":4820:4885   */\n      tag_221\n        /* \"#utility.yul\":4878:4884   */\n      dup2\n        /* \"#utility.yul\":4873:4876   */\n      dup6\n        /* \"#utility.yul\":4866:4870   */\n      0x20\n        /* \"#utility.yul\":4859:4864   */\n      dup7\n        /* \"#utility.yul\":4855:4871   */\n      add\n        /* \"#utility.yul\":4820:4885   */\n      tag_150\n      jump\t// in\n    tag_221:\n        /* \"#utility.yul\":4910:4939   */\n      tag_222\n        /* \"#utility.yul\":4932:4938   */\n      dup2\n        /* \"#utility.yul\":4910:4939   */\n      tag_151\n      jump\t// in\n    tag_222:\n        /* \"#utility.yul\":4905:4908   */\n      dup5\n        /* \"#utility.yul\":4901:4940   */\n      add\n        /* \"#utility.yul\":4894:4940   */\n      swap2\n      pop\n        /* \"#utility.yul\":4663:4946   */\n      pop\n        /* \"#utility.yul\":4573:4946   */\n      swap3\n      swap2\n      pop\n      pop\n      jump\t// out\n        /* \"#utility.yul\":4952:5481   */\n    tag_46:\n        /* \"#utility.yul\":5119:5123   */\n      0x00\n        /* \"#utility.yul\":5157:5159   */\n      0x60\n        /* \"#utility.yul\":5146:5155   */\n      dup3\n        /* \"#utility.yul\":5142:5160   */\n      add\n        /* \"#utility.yul\":5134:5160   */\n      swap1\n      pop\n        /* \"#utility.yul\":5170:5241   */\n      tag_224\n        /* \"#utility.yul\":5238:5239   */\n      0x00\n        /* \"#utility.yul\":5227:5236   */\n      dup4\n        /* \"#utility.yul\":5223:5240   */\n      add\n        /* \"#utility.yul\":5214:5220   */\n      dup7\n        /* \"#utility.yul\":5170:5241   */\n      tag_147\n      jump\t// in\n    tag_224:\n        /* \"#utility.yul\":5251:5323   */\n      tag_225\n        /* \"#utility.yul\":5319:5321   */\n      0x20\n        /* \"#utility.yul\":5308:5317   */\n      dup4\n        /* \"#utility.yul\":5304:5322   */\n      add\n        /* \"#utility.yul\":5295:5301   */\n      dup6\n        /* \"#utility.yul\":5251:5323   */\n      tag_133\n      jump\t// in\n    tag_225:\n        /* \"#utility.yul\":5370:5379   */\n      dup2\n        /* \"#utility.yul\":5364:5368   */\n      dup2\n        /* \"#utility.yul\":5360:5380   */\n      sub\n        /* \"#utility.yul\":5355:5357   */\n      0x40\n        /* \"#utility.yul\":5344:5353   */\n      dup4\n        /* \"#utility.yul\":5340:5358   */\n      add\n        /* \"#utility.yul\":5333:5381   */\n      mstore\n        /* \"#utility.yul\":5398:5474   */\n      tag_226\n        /* \"#utility.yul\":5469:5473   */\n      dup2\n        /* \"#utility.yul\":5460:5466   */\n      dup5\n        /* \"#utility.yul\":5398:5474   */\n      tag_152\n      jump\t// in\n    tag_226:\n        /* \"#utility.yul\":5390:5474   */\n      swap1\n      pop\n        /* \"#utility.yul\":4952:5481   */\n      swap5\n      swap4\n      pop\n      pop\n      pop\n      pop\n      jump\t// out\n        /* \"#utility.yul\":5487:5586   */\n    tag_153:\n        /* \"#utility.yul\":5539:5545   */\n      0x00\n        /* \"#utility.yul\":5573:5578   */\n      dup2\n        /* \"#utility.yul\":5567:5579   */\n      mload\n        /* \"#utility.yul\":5557:5579   */\n      swap1\n      pop\n        /* \"#utility.yul\":5487:5586   */\n      swap2\n      swap1\n      pop\n      jump\t// out\n        /* \"#utility.yul\":5592:5761   */\n    tag_154:\n        /* \"#utility.yul\":5676:5687   */\n      0x00\n        /* \"#utility.yul\":5710:5716   */\n      dup3\n        /* \"#utility.yul\":5705:5708   */\n      dup3\n        /* \"#utility.yul\":5698:5717   */\n      mstore\n        /* \"#utility.yul\":5750:5754   */\n      0x20\n        /* \"#utility.yul\":5745:5748   */\n      dup3\n        /* \"#utility.yul\":5741:5755   */\n      add\n        /* \"#utility.yul\":5726:5755   */\n      swap1\n      pop\n        /* \"#utility.yul\":5592:5761   */\n      swap3\n      swap2\n      pop\n      pop\n      jump\t// out\n        /* \"#utility.yul\":5767:6144   */\n    tag_155:\n        /* \"#utility.yul\":5855:5858   */\n      0x00\n        /* \"#utility.yul\":5883:5922   */\n      tag_230\n        /* \"#utility.yul\":5916:5921   */\n      dup3\n        /* \"#utility.yul\":5883:5922   */\n      tag_153\n      jump\t// in\n    tag_230:\n        /* \"#utility.yul\":5938:6009   */\n      tag_231\n        /* \"#utility.yul\":6002:6008   */\n      dup2\n        /* \"#utility.yul\":5997:6000   */\n      dup6\n        /* \"#utility.yul\":5938:6009   */\n      tag_154\n      jump\t// in\n    tag_231:\n        /* \"#utility.yul\":5931:6009   */\n      swap4\n      pop\n        /* \"#utility.yul\":6018:6083   */\n      tag_232\n        /* \"#utility.yul\":6076:6082   */\n      dup2\n        /* \"#utility.yul\":6071:6074   */\n      dup6\n        /* \"#utility.yul\":6064:6068   */\n      0x20\n        /* \"#utility.yul\":6057:6062   */\n      dup7\n        /* \"#utility.yul\":6053:6069   */\n      add\n        /* \"#utility.yul\":6018:6083   */\n      tag_150\n      jump\t// in\n    tag_232:\n        /* \"#utility.yul\":6108:6137   */\n      tag_233\n        /* \"#utility.yul\":6130:6136   */\n      dup2\n        /* \"#utility.yul\":6108:6137   */\n      tag_151\n      jump\t// in\n    tag_233:\n        /* \"#utility.yul\":6103:6106   */\n      dup5\n        /* \"#utility.yul\":6099:6138   */\n      add\n        /* \"#utility.yul\":6092:6138   */\n      swap2\n      pop\n        /* \"#utility.yul\":5859:6144   */\n      pop\n        /* \"#utility.yul\":5767:6144   */\n      swap3\n      swap2\n      pop\n      pop\n      jump\t// out\n        /* \"#utility.yul\":6150:6463   */\n    tag_64:\n        /* \"#utility.yul\":6263:6267   */\n      0x00\n        /* \"#utility.yul\":6301:6303   */\n      0x20\n        /* \"#utility.yul\":6290:6299   */\n      dup3\n        /* \"#utility.yul\":6286:6304   */\n      add\n        /* \"#utility.yul\":6278:6304   */\n      swap1\n      pop\n        /* \"#utility.yul\":6350:6359   */\n      dup2\n        /* \"#utility.yul\":6344:6348   */\n      dup2\n        /* \"#utility.yul\":6340:6360   */\n      sub\n        /* \"#utility.yul\":6336:6337   */\n      0x00\n        /* \"#utility.yul\":6325:6334   */\n      dup4\n        /* \"#utility.yul\":6321:6338   */\n      add\n        /* \"#utility.yul\":6314:6361   */\n      mstore\n        /* \"#utility.yul\":6378:6456   */\n      tag_235\n        /* \"#utility.yul\":6451:6455   */\n      dup2\n        /* \"#utility.yul\":6442:6448   */\n      dup5\n        /* \"#utility.yul\":6378:6456   */\n      tag_155\n      jump\t// in\n    tag_235:\n        /* \"#utility.yul\":6370:6456   */\n      swap1\n      pop\n        /* \"#utility.yul\":6150:6463   */\n      swap3\n      swap2\n      pop\n      pop\n      jump\t// out\n        /* \"#utility.yul\":6469:6649   */\n    tag_77:\n        /* \"#utility.yul\":6517:6594   */\n      0x4e487b7100000000000000000000000000000000000000000000000000000000\n        /* \"#utility.yul\":6514:6515   */\n      0x00\n        /* \"#utility.yul\":6507:6595   */\n      mstore\n        /* \"#utility.yul\":6614:6618   */\n      0x01\n        /* \"#utility.yul\":6611:6612   */\n      0x04\n        /* \"#utility.yul\":6604:6619   */\n      mstore\n        /* \"#utility.yul\":6638:6642   */\n      0x24\n        /* \"#utility.yul\":6635:6636   */\n      0x00\n        /* \"#utility.yul\":6628:6643   */\n      revert\n        /* \"#utility.yul\":6655:6835   */\n    tag_91:\n        /* \"#utility.yul\":6703:6780   */\n      0x4e487b7100000000000000000000000000000000000000000000000000000000\n        /* \"#utility.yul\":6700:6701   */\n      0x00\n        /* \"#utility.yul\":6693:6781   */\n      mstore\n        /* \"#utility.yul\":6800:6804   */\n      0x32\n        /* \"#utility.yul\":6797:6798   */\n      0x04\n        /* \"#utility.yul\":6790:6805   */\n      mstore\n        /* \"#utility.yul\":6824:6828   */\n      0x24\n        /* \"#utility.yul\":6821:6822   */\n      0x00\n        /* \"#utility.yul\":6814:6829   */\n      revert\n        /* \"#utility.yul\":6841:7021   */\n    tag_156:\n        /* \"#utility.yul\":6889:6966   */\n      0x4e487b7100000000000000000000000000000000000000000000000000000000\n        /* \"#utility.yul\":6886:6887   */\n      0x00\n        /* \"#utility.yul\":6879:6967   */\n      mstore\n        /* \"#utility.yul\":6986:6990   */\n      0x41\n        /* \"#utility.yul\":6983:6984   */\n      0x04\n        /* \"#utility.yul\":6976:6991   */\n      mstore\n        /* \"#utility.yul\":7010:7014   */\n      0x24\n        /* \"#utility.yul\":7007:7008   */\n      0x00\n        /* \"#utility.yul\":7000:7015   */\n      revert\n        /* \"#utility.yul\":7027:7207   */\n    tag_157:\n        /* \"#utility.yul\":7075:7152   */\n      0x4e487b7100000000000000000000000000000000000000000000000000000000\n        /* \"#utility.yul\":7072:7073   */\n      0x00\n        /* \"#utility.yul\":7065:7153   */\n      mstore\n        /* \"#utility.yul\":7172:7176   */\n      0x22\n        /* \"#utility.yul\":7169:7170   */\n      0x04\n        /* \"#utility.yul\":7162:7177   */\n      mstore\n        /* \"#utility.yul\":7196:7200   */\n      0x24\n        /* \"#utility.yul\":7193:7194   */\n      0x00\n        /* \"#utility.yul\":7186:7201   */\n      revert\n        /* \"#utility.yul\":7213:7533   */\n    tag_114:\n        /* \"#utility.yul\":7257:7263   */\n      0x00\n        /* \"#utility.yul\":7294:7295   */\n      0x02\n        /* \"#utility.yul\":7288:7292   */\n      dup3\n        /* \"#utility.yul\":7284:7296   */\n      div\n        /* \"#utility.yul\":7274:7296   */\n      swap1\n      pop\n        /* \"#utility.yul\":7341:7342   */\n      0x01\n        /* \"#utility.yul\":7335:7339   */\n      dup3\n        /* \"#utility.yul\":7331:7343   */\n      and\n        /* \"#utility.yul\":7362:7380   */\n      dup1\n        /* \"#utility.yul\":7352:7433   */\n      tag_241\n      jumpi\n        /* \"#utility.yul\":7418:7422   */\n      0x7f\n        /* \"#utility.yul\":7410:7416   */\n      dup3\n        /* \"#utility.yul\":7406:7423   */\n      and\n        /* \"#utility.yul\":7396:7423   */\n      swap2\n      pop\n        /* \"#utility.yul\":7352:7433   */\n    tag_241:\n        /* \"#utility.yul\":7480:7482   */\n      0x20\n        /* \"#utility.yul\":7472:7478   */\n      dup3\n        /* \"#utility.yul\":7469:7483   */\n      lt\n        /* \"#utility.yul\":7449:7467   */\n      dup2\n        /* \"#utility.yul\":7446:7484   */\n      sub\n        /* \"#utility.yul\":7443:7527   */\n      tag_242\n      jumpi\n        /* \"#utility.yul\":7499:7517   */\n      tag_243\n      tag_157\n      jump\t// in\n    tag_243:\n        /* \"#utility.yul\":7443:7527   */\n    tag_242:\n        /* \"#utility.yul\":7264:7533   */\n      pop\n        /* \"#utility.yul\":7213:7533   */\n      swap2\n      swap1\n      pop\n      jump\t// out\n        /* \"#utility.yul\":7539:7680   */\n    tag_158:\n        /* \"#utility.yul\":7588:7592   */\n      0x00\n        /* \"#utility.yul\":7611:7614   */\n      dup2\n        /* \"#utility.yul\":7603:7614   */\n      swap1\n      pop\n        /* \"#utility.yul\":7634:7637   */\n      dup2\n        /* \"#utility.yul\":7631:7632   */\n      0x00\n        /* \"#utility.yul\":7624:7638   */\n      mstore\n        /* \"#utility.yul\":7668:7672   */\n      0x20\n        /* \"#utility.yul\":7665:7666   */\n      0x00\n        /* \"#utility.yul\":7655:7673   */\n      keccak256\n        /* \"#utility.yul\":7647:7673   */\n      swap1\n      pop\n        /* \"#utility.yul\":7539:7680   */\n      swap2\n      swap1\n      pop\n      jump\t// out\n        /* \"#utility.yul\":7686:7779   */\n    tag_159:\n        /* \"#utility.yul\":7723:7729   */\n      0x00\n        /* \"#utility.yul\":7770:7772   */\n      0x20\n        /* \"#utility.yul\":7765:7767   */\n      0x1f\n        /* \"#utility.yul\":7758:7763   */\n      dup4\n        /* \"#utility.yul\":7754:7768   */\n      add\n        /* \"#utility.yul\":7750:7773   */\n      div\n        /* \"#utility.yul\":7740:7773   */\n      swap1\n      pop\n        /* \"#utility.yul\":7686:7779   */\n      swap2\n      swap1\n      pop\n      jump\t// out\n        /* \"#utility.yul\":7785:7892   */\n    tag_160:\n        /* \"#utility.yul\":7829:7837   */\n      0x00\n        /* \"#utility.yul\":7879:7884   */\n      dup3\n        /* \"#utility.yul\":7873:7877   */\n      dup3\n        /* \"#utility.yul\":7869:7885   */\n      shl\n        /* \"#utility.yul\":7848:7885   */\n      swap1\n      pop\n        /* \"#utility.yul\":7785:7892   */\n      swap3\n      swap2\n      pop\n      pop\n      jump\t// out\n        /* \"#utility.yul\":7898:8291   */\n    tag_161:\n        /* \"#utility.yul\":7967:7973   */\n      0x00\n        /* \"#utility.yul\":8017:8018   */\n      0x08\n        /* \"#utility.yul\":8005:8015   */\n      dup4\n        /* \"#utility.yul\":8001:8019   */\n      mul\n        /* \"#utility.yul\":8040:8137   */\n      tag_248\n        /* \"#utility.yul\":8070:8136   */\n      0xffffffffffffffffffffffffffffffffffffffffffffffffffffffffffffffff\n        /* \"#utility.yul\":8059:8068   */\n      dup3\n        /* \"#utility.yul\":8040:8137   */\n      tag_160\n      jump\t// in\n    tag_248:\n        /* \"#utility.yul\":8158:8197   */\n      tag_249\n        /* \"#utility.yul\":8188:8196   */\n      dup7\n        /* \"#utility.yul\":8177:8186   */\n      dup4\n        /* \"#utility.yul\":8158:8197   */\n      tag_160\n      jump\t// in\n    tag_249:\n        /* \"#utility.yul\":8146:8197   */\n      swap6\n      pop\n        /* \"#utility.yul\":8230:8234   */\n      dup1\n        /* \"#utility.yul\":8226:8235   */\n      not\n        /* \"#utility.yul\":8219:8224   */\n      dup5\n        /* \"#utility.yul\":8215:8236   */\n      and\n        /* \"#utility.yul\":8206:8236   */\n      swap4\n      pop\n        /* \"#utility.yul\":8279:8283   */\n      dup1\n        /* \"#utility.yul\":8269:8277   */\n      dup7\n        /* \"#utility.yul\":8265:8284   */\n      and\n        /* \"#utility.yul\":8258:8263   */\n      dup5\n        /* \"#utility.yul\":8255:8285   */\n      or\n        /* \"#utility.yul\":8245:8285   */\n      swap3\n      pop\n        /* \"#utility.yul\":7974:8291   */\n      pop\n      pop\n        /* \"#utility.yul\":7898:8291   */\n      swap4\n      swap3\n      pop\n      pop\n      pop\n      jump\t// out\n        /* \"#utility.yul\":8297:8357   */\n    tag_162:\n        /* \"#utility.yul\":8325:8328   */\n      0x00\n        /* \"#utility.yul\":8346:8351   */\n      dup2\n        /* \"#utility.yul\":8339:8351   */\n      swap1\n      pop\n        /* \"#utility.yul\":8297:8357   */\n      swap2\n      swap1\n      pop\n      jump\t// out\n        /* \"#utility.yul\":8363:8505   */\n    tag_163:\n        /* \"#utility.yul\":8413:8422   */\n      0x00\n        /* \"#utility.yul\":8446:8499   */\n      tag_252\n        /* \"#utility.yul\":8464:8498   */\n      tag_253\n        /* \"#utility.yul\":8473:8497   */\n      tag_254\n        /* \"#utility.yul\":8491:8496   */\n      dup5\n        /* \"#utility.yul\":8473:8497   */\n      tag_132\n      jump\t// in\n    tag_254:\n        /* \"#utility.yul\":8464:8498   */\n      tag_162\n      jump\t// in\n    tag_253:\n        /* \"#utility.yul\":8446:8499   */\n      tag_132\n      jump\t// in\n    tag_252:\n        /* \"#utility.yul\":8433:8499   */\n      swap1\n      pop\n        /* \"#utility.yul\":8363:8505   */\n      swap2\n      swap1\n      pop\n      jump\t// out\n        /* \"#utility.yul\":8511:8586   */\n    tag_164:\n        /* \"#utility.yul\":8554:8557   */\n      0x00\n        /* \"#utility.yul\":8575:8580   */\n      dup2\n        /* \"#utility.yul\":8568:8580   */\n      swap1\n      pop\n        /* \"#utility.yul\":8511:8586   */\n      swap2\n      swap1\n      pop\n      jump\t// out\n        /* \"#utility.yul\":8592:8861   */\n    tag_165:\n        /* \"#utility.yul\":8702:8741   */\n      tag_257\n        /* \"#utility.yul\":8733:8740   */\n      dup4\n        /* \"#utility.yul\":8702:8741   */\n      tag_163\n      jump\t// in\n    tag_257:\n        /* \"#utility.yul\":8763:8854   */\n      tag_258\n        /* \"#utility.yul\":8812:8853   */\n      tag_259\n        /* \"#utility.yul\":8836:8852   */\n      dup3\n        /* \"#utility.yul\":8812:8853   */\n      tag_164\n      jump\t// in\n    tag_259:\n        /* \"#utility.yul\":8804:8810   */\n      dup5\n        /* \"#utility.yul\":8797:8801   */\n      dup5\n        /* \"#utility.yul\":8791:8802   */\n      sload\n        /* \"#utility.yul\":8763:8854   */\n      tag_161\n      jump\t// in\n    tag_258:\n        /* \"#utility.yul\":8757:8761   */\n      dup3\n        /* \"#utility.yul\":8750:8855   */\n      sstore\n        /* \"#utility.yul\":8668:8861   */\n      pop\n        /* \"#utility.yul\":8592:8861   */\n      pop\n      pop\n      pop\n      jump\t// out\n        /* \"#utility.yul\":8867:8940   */\n    tag_166:\n        /* \"#utility.yul\":8912:8915   */\n      0x00\n        /* \"#utility.yul\":8867:8940   */\n      swap1\n      jump\t// out\n        /* \"#utility.yul\":8946:9135   */\n    tag_167:\n        /* \"#utility.yul\":9023:9055   */\n      tag_262\n      tag_166\n      jump\t// in\n    tag_262:\n        /* \"#utility.yul\":9064:9129   */\n      tag_263\n        /* \"#utility.yul\":9122:9128   */\n      dup2\n        /* \"#utility.yul\":9114:9120   */\n      dup5\n        /* \"#utility.yul\":9108:9112   */\n      dup5\n        /* \"#utility.yul\":9064:9129   */\n      tag_165\n      jump\t// in\n    tag_263:\n        /* \"#utility.yul\":8999:9135   */\n      pop\n        /* \"#utility.yul\":8946:9135   */\n      pop\n      pop\n      jump\t// out\n        /* \"#utility.yul\":9141:9327   */\n    tag_168:\n        /* \"#utility.yul\":9201:9321   */\n    tag_265:\n        /* \"#utility.yul\":9218:9221   */\n      dup2\n        /* \"#utility.yul\":9211:9216   */\n      dup2\n        /* \"#utility.yul\":9208:9222   */\n      lt\n        /* \"#utility.yul\":9201:9321   */\n      iszero\n      tag_267\n      jumpi\n        /* \"#utility.yul\":9272:9311   */\n      tag_268\n        /* \"#utility.yul\":9309:9310   */\n      0x00\n        /* \"#utility.yul\":9302:9307   */\n      dup3\n        /* \"#utility.yul\":9272:9311   */\n      tag_167\n      jump\t// in\n    tag_268:\n        /* \"#utility.yul\":9245:9246   */\n      0x01\n        /* \"#utility.yul\":9238:9243   */\n      dup2\n        /* \"#utility.yul\":9234:9247   */\n      add\n        /* \"#utility.yul\":9225:9247   */\n      swap1\n      pop\n        /* \"#utility.yul\":9201:9321   */\n      jump(tag_265)\n    tag_267:\n        /* \"#utility.yul\":9141:9327   */\n      pop\n      pop\n      jump\t// out\n        /* \"#utility.yul\":9333:9876   */\n    tag_169:\n        /* \"#utility.yul\":9434:9436   */\n      0x1f\n        /* \"#utility.yul\":9429:9432   */\n      dup3\n        /* \"#utility.yul\":9426:9437   */\n      gt\n        /* \"#utility.yul\":9423:9869   */\n      iszero\n      tag_270\n      jumpi\n        /* \"#utility.yul\":9468:9506   */\n      tag_271\n        /* \"#utility.yul\":9500:9505   */\n      dup2\n        /* \"#utility.yul\":9468:9506   */\n      tag_158\n      jump\t// in\n    tag_271:\n        /* \"#utility.yul\":9552:9581   */\n      tag_272\n        /* \"#utility.yul\":9570:9580   */\n      dup5\n        /* \"#utility.yul\":9552:9581   */\n      tag_159\n      jump\t// in\n    tag_272:\n        /* \"#utility.yul\":9542:9550   */\n      dup2\n        /* \"#utility.yul\":9538:9582   */\n      add\n        /* \"#utility.yul\":9735:9737   */\n      0x20\n        /* \"#utility.yul\":9723:9733   */\n      dup6\n        /* \"#utility.yul\":9720:9738   */\n      lt\n        /* \"#utility.yul\":9717:9766   */\n      iszero\n      tag_273\n      jumpi\n        /* \"#utility.yul\":9756:9764   */\n      dup2\n        /* \"#utility.yul\":9741:9764   */\n      swap1\n      pop\n        /* \"#utility.yul\":9717:9766   */\n    tag_273:\n        /* \"#utility.yul\":9779:9859   */\n      tag_274\n        /* \"#utility.yul\":9835:9857   */\n      tag_275\n        /* \"#utility.yul\":9853:9856   */\n      dup6\n        /* \"#utility.yul\":9835:9857   */\n      tag_159\n      jump\t// in\n    tag_275:\n        /* \"#utility.yul\":9825:9833   */\n      dup4\n        /* \"#utility.yul\":9821:9858   */\n      add\n        /* \"#utility.yul\":9808:9819   */\n      dup3\n        /* \"#utility.yul\":9779:9859   */\n      tag_168\n      jump\t// in\n    tag_274:\n        /* \"#utility.yul\":9438:9869   */\n      pop\n      pop\n        /* \"#utility.yul\":9423:9869   */\n    tag_270:\n        /* \"#utility.yul\":9333:9876   */\n      pop\n      pop\n      pop\n      jump\t// out\n        /* \"#utility.yul\":9882:9999   */\n    tag_170:\n        /* \"#utility.yul\":9936:9944   */\n      0x00\n        /* \"#utility.yul\":9986:9991   */\n      dup3\n        /* \"#utility.yul\":9980:9984   */\n      dup3\n        /* \"#utility.yul\":9976:9992   */\n      shr\n        /* \"#utility.yul\":9955:9992   */\n      swap1\n      pop\n        /* \"#utility.yul\":9882:9999   */\n      swap3\n      swap2\n      pop\n      pop\n      jump\t// out\n        /* \"#utility.yul\":10005:10174   */\n    tag_171:\n        /* \"#utility.yul\":10049:10055   */\n      0x00\n        /* \"#utility.yul\":10082:10133   */\n      tag_278\n        /* \"#utility.yul\":10130:10131   */\n      0x00\n        /* \"#utility.yul\":10126:10132   */\n      not\n        /* \"#utility.yul\":10118:10123   */\n      dup5\n        /* \"#utility.yul\":10115:10116   */\n      0x08\n        /* \"#utility.yul\":10111:10124   */\n      mul\n        /* \"#utility.yul\":10082:10133   */\n      tag_170\n      jump\t// in\n    tag_278:\n        /* \"#utility.yul\":10078:10134   */\n      not\n        /* \"#utility.yul\":10163:10167   */\n      dup1\n        /* \"#utility.yul\":10157:10161   */\n      dup4\n        /* \"#utility.yul\":10153:10168   */\n      and\n        /* \"#utility.yul\":10143:10168   */\n      swap2\n      pop\n        /* \"#utility.yul\":10056:10174   */\n      pop\n        /* \"#utility.yul\":10005:10174   */\n      swap3\n      swap2\n      pop\n      pop\n      jump\t// out\n        /* \"#utility.yul\":10179:10474   */\n    tag_172:\n        /* \"#utility.yul\":10255:10259   */\n      0x00\n        /* \"#utility.yul\":10401:10430   */\n      tag_280\n        /* \"#utility.yul\":10426:10429   */\n      dup4\n        /* \"#utility.yul\":10420:10424   */\n      dup4\n        /* \"#utility.yul\":10401:10430   */\n      tag_171\n      jump\t// in\n    tag_280:\n        /* \"#utility.yul\":10393:10430   */\n      swap2\n      pop\n        /* \"#utility.yul\":10463:10466   */\n      dup3\n        /* \"#utility.yul\":10460:10461   */\n      0x02\n        /* \"#utility.yul\":10456:10467   */\n      mul\n        /* \"#utility.yul\":10450:10454   */\n      dup3\n        /* \"#utility.yul\":10447:10468   */\n      or\n        /* \"#utility.yul\":10439:10468   */\n      swap1\n      pop\n        /* \"#utility.yul\":10179:10474   */\n      swap3\n      swap2\n      pop\n      pop\n      jump\t// out\n        /* \"#utility.yul\":10479:11874   */\n    tag_112:\n        /* \"#utility.yul\":10596:10633   */\n      tag_282\n        /* \"#utility.yul\":10629:10632   */\n      dup3\n        /* \"#utility.yul\":10596:10633   */\n      tag_153\n      jump\t// in\n    tag_282:\n        /* \"#utility.yul\":10698:10716   */\n      0xffffffffffffffff\n        /* \"#utility.yul\":10690:10696   */\n      dup2\n        /* \"#utility.yul\":10687:10717   */\n      gt\n        /* \"#utility.yul\":10684:10740   */\n      iszero\n      tag_283\n      jumpi\n        /* \"#utility.yul\":10720:10738   */\n      tag_284\n      tag_156\n      jump\t// in\n    tag_284:\n        /* \"#utility.yul\":10684:10740   */\n    tag_283:\n        /* \"#utility.yul\":10764:10802   */\n      tag_285\n        /* \"#utility.yul\":10796:10800   */\n      dup3\n        /* \"#utility.yul\":10790:10801   */\n      sload\n        /* \"#utility.yul\":10764:10802   */\n      tag_114\n      jump\t// in\n    tag_285:\n        /* \"#utility.yul\":10849:10916   */\n      tag_286\n        /* \"#utility.yul\":10909:10915   */\n      dup3\n        /* \"#utility.yul\":10901:10907   */\n      dup3\n        /* \"#utility.yul\":10895:10899   */\n      dup6\n        /* \"#utility.yul\":10849:10916   */\n      tag_169\n      jump\t// in\n    tag_286:\n        /* \"#utility.yul\":10943:10944   */\n      0x00\n        /* \"#utility.yul\":10967:10971   */\n      0x20\n        /* \"#utility.yul\":10954:10971   */\n      swap1\n      pop\n        /* \"#utility.yul\":10999:11001   */\n      0x1f\n        /* \"#utility.yul\":10991:10997   */\n      dup4\n        /* \"#utility.yul\":10988:11002   */\n      gt\n        /* \"#utility.yul\":11016:11017   */\n      0x01\n        /* \"#utility.yul\":11011:11629   */\n      dup2\n      eq\n      tag_288\n      jumpi\n        /* \"#utility.yul\":11673:11674   */\n      0x00\n        /* \"#utility.yul\":11690:11696   */\n      dup5\n        /* \"#utility.yul\":11687:11764   */\n      iszero\n      tag_289\n      jumpi\n        /* \"#utility.yul\":11739:11748   */\n      dup3\n        /* \"#utility.yul\":11734:11737   */\n      dup8\n        /* \"#utility.yul\":11730:11749   */\n      add\n        /* \"#utility.yul\":11724:11750   */\n      mload\n        /* \"#utility.yul\":11715:11750   */\n      swap1\n      pop\n        /* \"#utility.yul\":11687:11764   */\n    tag_289:\n        /* \"#utility.yul\":11790:11857   */\n      tag_290\n        /* \"#utility.yul\":11850:11856   */\n      dup6\n        /* \"#utility.yul\":11843:11848   */\n      dup3\n        /* \"#utility.yul\":11790:11857   */\n      tag_172\n      jump\t// in\n    tag_290:\n        /* \"#utility.yul\":11784:11788   */\n      dup7\n        /* \"#utility.yul\":11777:11858   */\n      sstore\n        /* \"#utility.yul\":11646:11868   */\n      pop\n        /* \"#utility.yul\":10981:11868   */\n      jump(tag_287)\n        /* \"#utility.yul\":11011:11629   */\n    tag_288:\n        /* \"#utility.yul\":11063:11067   */\n      0x1f\n        /* \"#utility.yul\":11059:11068   */\n      not\n        /* \"#utility.yul\":11051:11057   */\n      dup5\n        /* \"#utility.yul\":11047:11069   */\n      and\n        /* \"#utility.yul\":11097:11134   */\n      tag_291\n        /* \"#utility.yul\":11129:11133   */\n      dup7\n        /* \"#utility.yul\":11097:11134   */\n      tag_158\n      jump\t// in\n    tag_291:\n        /* \"#utility.yul\":11156:11157   */\n      0x00\n        /* \"#utility.yul\":11170:11378   */\n    tag_292:\n        /* \"#utility.yul\":11184:11191   */\n      dup3\n        /* \"#utility.yul\":11181:11182   */\n      dup2\n        /* \"#utility.yul\":11178:11192   */\n      lt\n        /* \"#utility.yul\":11170:11378   */\n      iszero\n      tag_294\n      jumpi\n        /* \"#utility.yul\":11263:11272   */\n      dup5\n        /* \"#utility.yul\":11258:11261   */\n      dup10\n        /* \"#utility.yul\":11254:11273   */\n      add\n        /* \"#utility.yul\":11248:11274   */\n      mload\n        /* \"#utility.yul\":11240:11246   */\n      dup3\n        /* \"#utility.yul\":11233:11275   */\n      sstore\n        /* \"#utility.yul\":11314:11315   */\n      0x01\n        /* \"#utility.yul\":11306:11312   */\n      dup3\n        /* \"#utility.yul\":11302:11316   */\n      add\n        /* \"#utility.yul\":11292:11316   */\n      swap2\n      pop\n        /* \"#utility.yul\":11361:11363   */\n      0x20\n        /* \"#utility.yul\":11350:11359   */\n      dup6\n        /* \"#utility.yul\":11346:11364   */\n      add\n        /* \"#utility.yul\":11333:11364   */\n      swap5\n      pop\n        /* \"#utility.yul\":11207:11211   */\n      0x20\n        /* \"#utility.yul\":11204:11205   */\n      dup2\n        /* \"#utility.yul\":11200:11212   */\n      add\n        /* \"#utility.yul\":11195:11212   */\n      swap1\n      pop\n        /* \"#utility.yul\":11170:11378   */\n      jump(tag_292)\n    tag_294:\n        /* \"#utility.yul\":11406:11412   */\n      dup7\n        /* \"#utility.yul\":11397:11404   */\n      dup4\n        /* \"#utility.yul\":11394:11413   */\n      lt\n        /* \"#utility.yul\":11391:11570   */\n      iszero\n      tag_295\n      jumpi\n        /* \"#utility.yul\":11464:11473   */\n      dup5\n        /* \"#utility.yul\":11459:11462   */\n      dup10\n        /* \"#utility.yul\":11455:11474   */\n      add\n        /* \"#utility.yul\":11449:11475   */\n      mload\n        /* \"#utility.yul\":11507:11555   */\n      tag_296\n        /* \"#utility.yul\":11549:11553   */\n      0x1f\n        /* \"#utility.yul\":11541:11547   */\n      dup10\n        /* \"#utility.yul\":11537:11554   */\n      and\n        /* \"#utility.yul\":11526:11535   */\n      dup3\n        /* \"#utility.yul\":11507:11555   */\n      tag_171\n      jump\t// in\n    tag_296:\n        /* \"#utility.yul\":11499:11505   */\n      dup4\n        /* \"#utility.yul\":11492:11556   */\n      sstore\n        /* \"#utility.yul\":11414:11570   */\n      pop\n        /* \"#utility.yul\":11391:11570   */\n    tag_295:\n        /* \"#utility.yul\":11616:11617   */\n      0x01\n        /* \"#utility.yul\":11612:11613   */\n      0x02\n        /* \"#utility.yul\":11604:11610   */\n      dup9\n        /* \"#utility.yul\":11600:11614   */\n      mul\n        /* \"#utility.yul\":11596:11618   */\n      add\n        /* \"#utility.yul\":11590:11594   */\n      dup9\n        /* \"#utility.yul\":11583:11619   */\n      sstore\n        /* \"#utility.yul\":11018:11629   */\n      pop\n      pop\n      pop\n        /* \"#utility.yul\":10981:11868   */\n    tag_287:\n      pop\n        /* \"#utility.yul\":10571:11874   */\n      pop\n      pop\n      pop\n        /* \"#utility.yul\":10479:11874   */\n      pop\n      pop\n      jump\t// out\n        /* \"#utility.yul\":11880:12060   */\n    tag_173:\n        /* \"#utility.yul\":11928:12005   */\n      0x4e487b7100000000000000000000000000000000000000000000000000000000\n        /* \"#utility.yul\":11925:11926   */\n      0x00\n        /* \"#utility.yul\":11918:12006   */\n      mstore\n        /* \"#utility.yul\":12025:12029   */\n      0x11\n        /* \"#utility.yul\":12022:12023   */\n      0x04\n        /* \"#utility.yul\":12015:12030   */\n      mstore\n        /* \"#utility.yul\":12049:12053   */\n      0x24\n        /* \"#utility.yul\":12046:12047   */\n      0x00\n        /* \"#utility.yul\":12039:12054   */\n      revert\n        /* \"#utility.yul\":12066:12257   */\n    tag_131:\n        /* \"#utility.yul\":12106:12109   */\n      0x00\n        /* \"#utility.yul\":12125:12145   */\n      tag_299\n        /* \"#utility.yul\":12143:12144   */\n      dup3\n        /* \"#utility.yul\":12125:12145   */\n      tag_132\n      jump\t// in\n    tag_299:\n        /* \"#utility.yul\":12120:12145   */\n      swap2\n      pop\n        /* \"#utility.yul\":12159:12179   */\n      tag_300\n        /* \"#utility.yul\":12177:12178   */\n      dup4\n        /* \"#utility.yul\":12159:12179   */\n      tag_132\n      jump\t// in\n    tag_300:\n        /* \"#utility.yul\":12154:12179   */\n      swap3\n      pop\n        /* \"#utility.yul\":12202:12203   */\n      dup3\n        /* \"#utility.yul\":12199:12200   */\n      dup3\n        /* \"#utility.yul\":12195:12204   */\n      add\n        /* \"#utility.yul\":12188:12204   */\n      swap1\n      pop\n        /* \"#utility.yul\":12223:12226   */\n      dup1\n        /* \"#utility.yul\":12220:12221   */\n      dup3\n        /* \"#utility.yul\":12217:12227   */\n      gt\n        /* \"#utility.yul\":12214:12250   */\n      iszero\n      tag_301\n      jumpi\n        /* \"#utility.yul\":12230:12248   */\n      tag_302\n      tag_173\n      jump\t// in\n    tag_302:\n        /* \"#utility.yul\":12214:12250   */\n    tag_301:\n        /* \"#utility.yul\":12066:12257   */\n      swap3\n      swap2\n      pop\n      pop\n      jump\t// out\n\n    auxdata: 0xa264697066735822122003cffd5ffdd1f19211244bb1d14bb914c66acb7aa797af1de1561aaadb6cc4ff64736f6c634300081a0033\n}\n",
				"bytecode": {
					"linkReferences": {},
					"object": "60806040526040518060600160405280600160ff168152602001600260ff168152602001600360ff168152505f9060036038929190604c565b50600180553480156047575f80fd5b5060b0565b828054828255905f5260205f209081019282156088579160200282015b828111156087578251829060ff169055916020019190600101906069565b5b509050609391906097565b5090565b5b8082111560ac575f815f9055506001016098565b5090565b610ca6806100bd5f395ff3fe608060405234801561000f575f80fd5b50600436106100fe575f3560e01c8063a56dfe4a11610095578063c5d7802e11610064578063c5d7802e14610257578063cb9f122014610275578063f1e6d19814610293578063febb0f7e146102b1576100fe565b8063a56dfe4a146101f3578063aec3d64014610211578063be44f8641461022f578063c29855781461024d576100fe565b80636a8d1e08116100d15780636a8d1e081461017a5780639b1a379c14610184578063a05f9906146101b5578063a0d0d59e146101d5576100fe565b806309879682146101025780630c55699c14610120578063121763491461013e5780632aca45f11461015c575b5f80fd5b61010a6102cf565b60405161011791906105fc565b60405180910390f35b6101286102e8565b60405161013591906105fc565b60405180910390f35b6101466102ee565b60405161015391906105fc565b60405180910390f35b610164610318565b60405161017191906105fc565b60405180910390f35b610182610348565b005b61019e6004803603810190610199919061067e565b61036d565b6040516101ac929190610741565b60405180910390f35b6101bd61037c565b6040516101cc93929190610812565b60405180910390f35b6101dd6103e0565b6040516101ea91906105fc565b60405180910390f35b6101fb610410565b60405161020891906105fc565b60405180910390f35b610219610416565b60405161022691906105fc565b60405180910390f35b610237610449565b60405161024491906105fc565b60405180910390f35b610255610476565b005b61025f6104cc565b60405161026c91906108a0565b60405180910390f35b61027d610558565b60405161028a91906105fc565b60405180910390f35b61029b610597565b6040516102a891906105fc565b60405180910390f35b6102b96105c1565b6040516102c691906105fc565b60405180910390f35b5f600180146102e1576102e06108c0565b5b6001905090565b60015481565b5f60018014610300576102ff6108c0565b5b60018014610311576103106108c0565b5b6001905090565b5f62093a80801461032c5761032b6108c0565b5b62093a80801461033f5761033e6108c0565b5b62093a80905090565b5f6064815f8154811061035e5761035d6108ed565b5b905f5260205f20018190555050565b365f8383915091509250929050565b5f8060605f3390505f4390505f80368080601f0160208091040260200160405190810160405280939291908181526020018383808284375f81840152601f19601f820116905080830192505050505050509050828282955095509550505050909192565b5f6201518080146103f4576103f36108c0565b5b620151808014610407576104066108c0565b5b62015180905090565b60025481565b5f633b9aca00801461042b5761042a6108c0565b5b633b9aca00801461043f5761043e6108c0565b5b633b9aca00905090565b5f610e10801461045c5761045b6108c0565b5b610e10801461046e5761046d6108c0565b5b610e10905090565b6005600181905550600280819055506040518060400160405280600481526020017f3078414100000000000000000000000000000000000000000000000000000000815250600390816104c99190610b41565b50565b600380546104d990610974565b80601f016020809104026020016040519081016040528092919081815260200182805461050590610974565b80156105505780601f1061052757610100808354040283529160200191610550565b820191905f5260205f20905b81548152906001019060200180831161053357829003601f168201915b505050505081565b5f670de0b6b3a76400008014610571576105706108c0565b5b670de0b6b3a76400008014610589576105886108c0565b5b670de0b6b3a7640000905090565b5f603c80146105a9576105a86108c0565b5b603c80146105ba576105b96108c0565b5b603c905090565b5f80600190505f600390505f81836105d99190610c3d565b905080935050505090565b5f819050919050565b6105f6816105e4565b82525050565b5f60208201905061060f5f8301846105ed565b92915050565b5f80fd5b5f80fd5b5f80fd5b5f80fd5b5f80fd5b5f8083601f84011261063e5761063d61061d565b5b8235905067ffffffffffffffff81111561065b5761065a610621565b5b60208301915083602082028301111561067757610676610625565b5b9250929050565b5f806020838503121561069457610693610615565b5b5f83013567ffffffffffffffff8111156106b1576106b0610619565b5b6106bd85828601610629565b92509250509250929050565b5f82825260208201905092915050565b5f80fd5b82818337505050565b5f6106f183856106c9565b93507f07ffffffffffffffffffffffffffffffffffffffffffffffffffffffffffffff831115610724576107236106d9565b5b6020830292506107358385846106dd565b82840190509392505050565b5f6020820190508181035f83015261075a8184866106e6565b90509392505050565b5f73ffffffffffffffffffffffffffffffffffffffff82169050919050565b5f61078c82610763565b9050919050565b61079c81610782565b82525050565b5f81519050919050565b5f82825260208201905092915050565b8281835e5f83830152505050565b5f601f19601f8301169050919050565b5f6107e4826107a2565b6107ee81856107ac565b93506107fe8185602086016107bc565b610807816107ca565b840191505092915050565b5f6060820190506108255f830186610793565b61083260208301856105ed565b818103604083015261084481846107da565b9050949350505050565b5f81519050919050565b5f82825260208201905092915050565b5f6108728261084e565b61087c8185610858565b935061088c8185602086016107bc565b610895816107ca565b840191505092915050565b5f6020820190508181035f8301526108b88184610868565b905092915050565b7f4e487b71000000000000000000000000000000000000000000000000000000005f52600160045260245ffd5b7f4e487b71000000000000000000000000000000000000000000000000000000005f52603260045260245ffd5b7f4e487b71000000000000000000000000000000000000000000000000000000005f52604160045260245ffd5b7f4e487b71000000000000000000000000000000000000000000000000000000005f52602260045260245ffd5b5f600282049050600182168061098b57607f821691505b60208210810361099e5761099d610947565b5b50919050565b5f819050815f5260205f209050919050565b5f6020601f8301049050919050565b5f82821b905092915050565b5f60088302610a007fffffffffffffffffffffffffffffffffffffffffffffffffffffffffffffffff826109c5565b610a0a86836109c5565b95508019841693508086168417925050509392505050565b5f819050919050565b5f610a45610a40610a3b846105e4565b610a22565b6105e4565b9050919050565b5f819050919050565b610a5e83610a2b565b610a72610a6a82610a4c565b8484546109d1565b825550505050565b5f90565b610a86610a7a565b610a91818484610a55565b505050565b5b81811015610ab457610aa95f82610a7e565b600181019050610a97565b5050565b601f821115610af957610aca816109a4565b610ad3846109b6565b81016020851015610ae2578190505b610af6610aee856109b6565b830182610a96565b50505b505050565b5f82821c905092915050565b5f610b195f1984600802610afe565b1980831691505092915050565b5f610b318383610b0a565b9150826002028217905092915050565b610b4a8261084e565b67ffffffffffffffff811115610b6357610b6261091a565b5b610b6d8254610974565b610b78828285610ab8565b5f60209050601f831160018114610ba9575f8415610b97578287015190505b610ba18582610b26565b865550610c08565b601f198416610bb7866109a4565b5f5b82811015610bde57848901518255600182019150602085019450602081019050610bb9565b86831015610bfb5784890151610bf7601f891682610b0a565b8355505b6001600288020188555050505b505050505050565b7f4e487b71000000000000000000000000000000000000000000000000000000005f52601160045260245ffd5b5f610c47826105e4565b9150610c52836105e4565b9250828201905080821115610c6a57610c69610c10565b5b9291505056fea264697066735822122003cffd5ffdd1f19211244bb1d14bb914c66acb7aa797af1de1561aaadb6cc4ff64736f6c634300081a0033",
					"opcodes": "PUSH1 0x80 PUSH1 0x40 MSTORE PUSH1 0x40 MLOAD DUP1 PUSH1 0x60 ADD PUSH1 0x40 MSTORE DUP1 PUSH1 0x1 PUSH1 0xFF AND DUP2 MSTORE PUSH1 0x20 ADD PUSH1 0x2 PUSH1 0xFF AND DUP2 MSTORE PUSH1 0x20 ADD PUSH1 0x3 PUSH1 0xFF AND DUP2 MSTORE POP PUSH0 SWAP1 PUSH1 0x3 PUSH1 0x38 SWAP3 SWAP2 SWAP1 PUSH1 0x4C JUMP JUMPDEST POP PUSH1 0x1 DUP1 SSTORE CALLVALUE DUP1 ISZERO PUSH1 0x47 JUMPI PUSH0 DUP1 REVERT JUMPDEST POP PUSH1 0xB0 JUMP JUMPDEST DUP3 DUP1 SLOAD DUP3 DUP3 SSTORE SWAP1 PUSH0 MSTORE PUSH1 0x20 PUSH0 KECCAK256 SWAP1 DUP2 ADD SWAP3 DUP3 ISZERO PUSH1 0x88 JUMPI SWAP2 PUSH1 0x20 MUL DUP3 ADD JUMPDEST DUP3 DUP2 GT ISZERO PUSH1 0x87 JUMPI DUP3 MLOAD DUP3 SWAP1 PUSH1 0xFF AND SWAP1 SSTORE SWAP2 PUSH1 0x20 ADD SWAP2 SWAP1 PUSH1 0x1 ADD SWAP1 PUSH1 0x69 JUMP JUMPDEST JUMPDEST POP SWAP1 POP PUSH1 0x93 SWAP2 SWAP1 PUSH1 0x97 JUMP JUMPDEST POP SWAP1 JUMP JUMPDEST JUMPDEST DUP1 DUP3 GT ISZERO PUSH1 0xAC JUMPI PUSH0 DUP2 PUSH0 SWAP1 SSTORE POP PUSH1 0x1 ADD PUSH1 0x98 JUMP JUMPDEST POP SWAP1 JUMP JUMPDEST PUSH2 0xCA6 DUP1 PUSH2 0xBD PUSH0 CODECOPY PUSH0 RETURN INVALID PUSH1 0x80 PUSH1 0x40 MSTORE CALLVALUE DUP1 ISZERO PUSH2 0xF JUMPI PUSH0 DUP1 REVERT JUMPDEST POP PUSH1 0x4 CALLDATASIZE LT PUSH2 0xFE JUMPI PUSH0 CALLDATALOAD PUSH1 0xE0 SHR DUP1 PUSH4 0xA56DFE4A GT PUSH2 0x95 JUMPI DUP1 PUSH4 0xC5D7802E GT PUSH2 0x64 JUMPI DUP1 PUSH4 0xC5D7802E EQ PUSH2 0x257 JUMPI DUP1 PUSH4 0xCB9F1220 EQ PUSH2 0x275 JUMPI DUP1 PUSH4 0xF1E6D198 EQ PUSH2 0x293 JUMPI DUP1 PUSH4 0xFEBB0F7E EQ PUSH2 0x2B1 JUMPI PUSH2 0xFE JUMP JUMPDEST DUP1 PUSH4 0xA56DFE4A EQ PUSH2 0x1F3 JUMPI DUP1 PUSH4 0xAEC3D640 EQ PUSH2 0x211 JUMPI DUP1 PUSH4 0xBE44F864 EQ PUSH2 0x22F JUMPI DUP1 PUSH4 0xC2985578 EQ PUSH2 0x24D JUMPI PUSH2 0xFE JUMP JUMPDEST DUP1 PUSH4 0x6A8D1E08 GT PUSH2 0xD1 JUMPI DUP1 PUSH4 0x6A8D1E08 EQ PUSH2 0x17A JUMPI DUP1 PUSH4 0x9B1A379C EQ PUSH2 0x184 JUMPI DUP1 PUSH4 0xA05F9906 EQ PUSH2 0x1B5 JUMPI DUP1 PUSH4 0xA0D0D59E EQ PUSH2 0x1D5 JUMPI PUSH2 0xFE JUMP JUMPDEST DUP1 PUSH4 0x9879682 EQ PUSH2 0x102 JUMPI DUP1 PUSH4 0xC55699C EQ PUSH2 0x120 JUMPI DUP1 PUSH4 0x12176349 EQ PUSH2 0x13E JUMPI DUP1 PUSH4 0x2ACA45F1 EQ PUSH2 0x15C JUMPI JUMPDEST PUSH0 DUP1 REVERT JUMPDEST PUSH2 0x10A PUSH2 0x2CF JUMP JUMPDEST PUSH1 0x40 MLOAD PUSH2 0x117 SWAP2 SWAP1 PUSH2 0x5FC JUMP JUMPDEST PUSH1 0x40 MLOAD DUP1 SWAP2 SUB SWAP1 RETURN JUMPDEST PUSH2 0x128 PUSH2 0x2E8 JUMP JUMPDEST PUSH1 0x40 MLOAD PUSH2 0x135 SWAP2 SWAP1 PUSH2 0x5FC JUMP JUMPDEST PUSH1 0x40 MLOAD DUP1 SWAP2 SUB SWAP1 RETURN JUMPDEST PUSH2 0x146 PUSH2 0x2EE JUMP JUMPDEST PUSH1 0x40 MLOAD PUSH2 0x153 SWAP2 SWAP1 PUSH2 0x5FC JUMP JUMPDEST PUSH1 0x40 MLOAD DUP1 SWAP2 SUB SWAP1 RETURN JUMPDEST PUSH2 0x164 PUSH2 0x318 JUMP JUMPDEST PUSH1 0x40 MLOAD PUSH2 0x171 SWAP2 SWAP1 PUSH2 0x5FC JUMP JUMPDEST PUSH1 0x40 MLOAD DUP1 SWAP2 SUB SWAP1 RETURN JUMPDEST PUSH2 0x182 PUSH2 0x348 JUMP JUMPDEST STOP JUMPDEST PUSH2 0x19E PUSH1 0x4 DUP1 CALLDATASIZE SUB DUP2 ADD SWAP1 PUSH2 0x199 SWAP2 SWAP1 PUSH2 0x67E JUMP JUMPDEST PUSH2 0x36D JUMP JUMPDEST PUSH1 0x40 MLOAD PUSH2 0x1AC SWAP3 SWAP2 SWAP1 PUSH2 0x741 JUMP JUMPDEST PUSH1 0x40 MLOAD DUP1 SWAP2 SUB SWAP1 RETURN JUMPDEST PUSH2 0x1BD PUSH2 0x37C JUMP JUMPDEST PUSH1 0x40 MLOAD PUSH2 0x1CC SWAP4 SWAP3 SWAP2 SWAP1 PUSH2 0x812 JUMP JUMPDEST PUSH1 0x40 MLOAD DUP1 SWAP2 SUB SWAP1 RETURN JUMPDEST PUSH2 0x1DD PUSH2 0x3E0 JUMP JUMPDEST PUSH1 0x40 MLOAD PUSH2 0x1EA SWAP2 SWAP1 PUSH2 0x5FC JUMP JUMPDEST PUSH1 0x40 MLOAD DUP1 SWAP2 SUB SWAP1 RETURN JUMPDEST PUSH2 0x1FB PUSH2 0x410 JUMP JUMPDEST PUSH1 0x40 MLOAD PUSH2 0x208 SWAP2 SWAP1 PUSH2 0x5FC JUMP JUMPDEST PUSH1 0x40 MLOAD DUP1 SWAP2 SUB SWAP1 RETURN JUMPDEST PUSH2 0x219 PUSH2 0x416 JUMP JUMPDEST PUSH1 0x40 MLOAD PUSH2 0x226 SWAP2 SWAP1 PUSH2 0x5FC JUMP JUMPDEST PUSH1 0x40 MLOAD DUP1 SWAP2 SUB SWAP1 RETURN JUMPDEST PUSH2 0x237 PUSH2 0x449 JUMP JUMPDEST PUSH1 0x40 MLOAD PUSH2 0x244 SWAP2 SWAP1 PUSH2 0x5FC JUMP JUMPDEST PUSH1 0x40 MLOAD DUP1 SWAP2 SUB SWAP1 RETURN JUMPDEST PUSH2 0x255 PUSH2 0x476 JUMP JUMPDEST STOP JUMPDEST PUSH2 0x25F PUSH2 0x4CC JUMP JUMPDEST PUSH1 0x40 MLOAD PUSH2 0x26C SWAP2 SWAP1 PUSH2 0x8A0 JUMP JUMPDEST PUSH1 0x40 MLOAD DUP1 SWAP2 SUB SWAP1 RETURN JUMPDEST PUSH2 0x27D PUSH2 0x558 JUMP JUMPDEST PUSH1 0x40 MLOAD PUSH2 0x28A SWAP2 SWAP1 PUSH2 0x5FC JUMP JUMPDEST PUSH1 0x40 MLOAD DUP1 SWAP2 SUB SWAP1 RETURN JUMPDEST PUSH2 0x29B PUSH2 0x597 JUMP JUMPDEST PUSH1 0x40 MLOAD PUSH2 0x2A8 SWAP2 SWAP1 PUSH2 0x5FC JUMP JUMPDEST PUSH1 0x40 MLOAD DUP1 SWAP2 SUB SWAP1 RETURN JUMPDEST PUSH2 0x2B9 PUSH2 0x5C1 JUMP JUMPDEST PUSH1 0x40 MLOAD PUSH2 0x2C6 SWAP2 SWAP1 PUSH2 0x5FC JUMP JUMPDEST PUSH1 0x40 MLOAD DUP1 SWAP2 SUB SWAP1 RETURN JUMPDEST PUSH0 PUSH1 0x1 DUP1 EQ PUSH2 0x2E1 JUMPI PUSH2 0x2E0 PUSH2 0x8C0 JUMP JUMPDEST JUMPDEST PUSH1 0x1 SWAP1 POP SWAP1 JUMP JUMPDEST PUSH1 0x1 SLOAD DUP2 JUMP JUMPDEST PUSH0 PUSH1 0x1 DUP1 EQ PUSH2 0x300 JUMPI PUSH2 0x2FF PUSH2 0x8C0 JUMP JUMPDEST JUMPDEST PUSH1 0x1 DUP1 EQ PUSH2 0x311 JUMPI PUSH2 0x310 PUSH2 0x8C0 JUMP JUMPDEST JUMPDEST PUSH1 0x1 SWAP1 POP SWAP1 JUMP JUMPDEST PUSH0 PUSH3 0x93A80 DUP1 EQ PUSH2 0x32C JUMPI PUSH2 0x32B PUSH2 0x8C0 JUMP JUMPDEST JUMPDEST PUSH3 0x93A80 DUP1 EQ PUSH2 0x33F JUMPI PUSH2 0x33E PUSH2 0x8C0 JUMP JUMPDEST JUMPDEST PUSH3 0x93A80 SWAP1 POP SWAP1 JUMP JUMPDEST PUSH0 PUSH1 0x64 DUP2 PUSH0 DUP2 SLOAD DUP2 LT PUSH2 0x35E JUMPI PUSH2 0x35D PUSH2 0x8ED JUMP JUMPDEST JUMPDEST SWAP1 PUSH0 MSTORE PUSH1 0x20 PUSH0 KECCAK256 ADD DUP2 SWAP1 SSTORE POP POP JUMP JUMPDEST CALLDATASIZE PUSH0 DUP4 DUP4 SWAP2 POP SWAP2 POP SWAP3 POP SWAP3 SWAP1 POP JUMP JUMPDEST PUSH0 DUP1 PUSH1 0x60 PUSH0 CALLER SWAP1 POP PUSH0 NUMBER SWAP1 POP PUSH0 DUP1 CALLDATASIZE DUP1 DUP1 PUSH1 0x1F ADD PUSH1 0x20 DUP1 SWAP2 DIV MUL PUSH1 0x20 ADD PUSH1 0x40 MLOAD SWAP1 DUP2 ADD PUSH1 0x40 MSTORE DUP1 SWAP4 SWAP3 SWAP2 SWAP1 DUP2 DUP2 MSTORE PUSH1 0x20 ADD DUP4 DUP4 DUP1 DUP3 DUP5 CALLDATACOPY PUSH0 DUP2 DUP5 ADD MSTORE PUSH1 0x1F NOT PUSH1 0x1F DUP3 ADD AND SWAP1 POP DUP1 DUP4 ADD SWAP3 POP POP POP POP POP POP POP SWAP1 POP DUP3 DUP3 DUP3 SWAP6 POP SWAP6 POP SWAP6 POP POP POP POP SWAP1 SWAP2 SWAP3 JUMP JUMPDEST PUSH0 PUSH3 0x15180 DUP1 EQ PUSH2 0x3F4 JUMPI PUSH2 0x3F3 PUSH2 0x8C0 JUMP JUMPDEST JUMPDEST PUSH3 0x15180 DUP1 EQ PUSH2 0x407 JUMPI PUSH2 0x406 PUSH2 0x8C0 JUMP JUMPDEST JUMPDEST PUSH3 0x15180 SWAP1 POP SWAP1 JUMP JUMPDEST PUSH1 0x2 SLOAD DUP2 JUMP JUMPDEST PUSH0 PUSH4 0x3B9ACA00 DUP1 EQ PUSH2 0x42B JUMPI PUSH2 0x42A PUSH2 0x8C0 JUMP JUMPDEST JUMPDEST PUSH4 0x3B9ACA00 DUP1 EQ PUSH2 0x43F JUMPI PUSH2 0x43E PUSH2 0x8C0 JUMP JUMPDEST JUMPDEST PUSH4 0x3B9ACA00 SWAP1 POP SWAP1 JUMP JUMPDEST PUSH0 PUSH2 0xE10 DUP1 EQ PUSH2 0x45C JUMPI PUSH2 0x45B PUSH2 0x8C0 JUMP JUMPDEST JUMPDEST PUSH2 0xE10 DUP1 EQ PUSH2 0x46E JUMPI PUSH2 0x46D PUSH2 0x8C0 JUMP JUMPDEST JUMPDEST PUSH2 0xE10 SWAP1 POP SWAP1 JUMP JUMPDEST PUSH1 0x5 PUSH1 0x1 DUP2 SWAP1 SSTORE POP PUSH1 0x2 DUP1 DUP2 SWAP1 SSTORE POP PUSH1 0x40 MLOAD DUP1 PUSH1 0x40 ADD PUSH1 0x40 MSTORE DUP1 PUSH1 0x4 DUP2 MSTORE PUSH1 0x20 ADD PUSH32 0x3078414100000000000000000000000000000000000000000000000000000000 DUP2 MSTORE POP PUSH1 0x3 SWAP1 DUP2 PUSH2 0x4C9 SWAP2 SWAP1 PUSH2 0xB41 JUMP JUMPDEST POP JUMP JUMPDEST PUSH1 0x3 DUP1 SLOAD PUSH2 0x4D9 SWAP1 PUSH2 0x974 JUMP JUMPDEST DUP1 PUSH1 0x1F ADD PUSH1 0x20 DUP1 SWAP2 DIV MUL PUSH1 0x20 ADD PUSH1 0x40 MLOAD SWAP1 DUP2 ADD PUSH1 0x40 MSTORE DUP1 SWAP3 SWAP2 SWAP1 DUP2 DUP2 MSTORE PUSH1 0x20 ADD DUP3 DUP1 SLOAD PUSH2 0x505 SWAP1 PUSH2 0x974 JUMP JUMPDEST DUP1 ISZERO PUSH2 0x550 JUMPI DUP1 PUSH1 0x1F LT PUSH2 0x527 JUMPI PUSH2 0x100 DUP1 DUP4 SLOAD DIV MUL DUP4 MSTORE SWAP2 PUSH1 0x20 ADD SWAP2 PUSH2 0x550 JUMP JUMPDEST DUP3 ADD SWAP2 SWAP1 PUSH0 MSTORE PUSH1 0x20 PUSH0 KECCAK256 SWAP1 JUMPDEST DUP2 SLOAD DUP2 MSTORE SWAP1 PUSH1 0x1 ADD SWAP1 PUSH1 0x20 ADD DUP1 DUP4 GT PUSH2 0x533 JUMPI DUP3 SWAP1 SUB PUSH1 0x1F AND DUP3 ADD SWAP2 JUMPDEST POP POP POP POP POP DUP2 JUMP JUMPDEST PUSH0 PUSH8 0xDE0B6B3A7640000 DUP1 EQ PUSH2 0x571 JUMPI PUSH2 0x570 PUSH2 0x8C0 JUMP JUMPDEST JUMPDEST PUSH8 0xDE0B6B3A7640000 DUP1 EQ PUSH2 0x589 JUMPI PUSH2 0x588 PUSH2 0x8C0 JUMP JUMPDEST JUMPDEST PUSH8 0xDE0B6B3A7640000 SWAP1 POP SWAP1 JUMP JUMPDEST PUSH0 PUSH1 0x3C DUP1 EQ PUSH2 0x5A9 JUMPI PUSH2 0x5A8 PUSH2 0x8C0 JUMP JUMPDEST JUMPDEST PUSH1 0x3C DUP1 EQ PUSH2 0x5BA JUMPI PUSH2 0x5B9 PUSH2 0x8C0 JUMP JUMPDEST JUMPDEST PUSH1 0x3C SWAP1 POP SWAP1 JUMP JUMPDEST PUSH0 DUP1 PUSH1 0x1 SWAP1 POP PUSH0 PUSH1 0x3 SWAP1 POP PUSH0 DUP2 DUP4 PUSH2 0x5D9 SWAP2 SWAP1 PUSH2 0xC3D JUMP JUMPDEST SWAP1 POP DUP1 SWAP4 POP POP POP POP SWAP1 JUMP JUMPDEST PUSH0 DUP2 SWAP1 POP SWAP2 SWAP1 POP JUMP JUMPDEST PUSH2 0x5F6 DUP2 PUSH2 0x5E4 JUMP JUMPDEST DUP3 MSTORE POP POP JUMP JUMPDEST PUSH0 PUSH1 0x20 DUP3 ADD SWAP1 POP PUSH2 0x60F PUSH0 DUP4 ADD DUP5 PUSH2 0x5ED JUMP JUMPDEST SWAP3 SWAP2 POP POP JUMP JUMPDEST PUSH0 DUP1 REVERT JUMPDEST PUSH0 DUP1 REVERT JUMPDEST PUSH0 DUP1 REVERT JUMPDEST PUSH0 DUP1 REVERT JUMPDEST PUSH0 DUP1 REVERT JUMPDEST PUSH0 DUP1 DUP4 PUSH1 0x1F DUP5 ADD SLT PUSH2 0x63E JUMPI PUSH2 0x63D PUSH2 0x61D JUMP JUMPDEST JUMPDEST DUP3 CALLDATALOAD SWAP1 POP PUSH8 0xFFFFFFFFFFFFFFFF DUP2 GT ISZERO PUSH2 0x65B JUMPI PUSH2 0x65A PUSH2 0x621 JUMP JUMPDEST JUMPDEST PUSH1 0x20 DUP4 ADD SWAP2 POP DUP4 PUSH1 0x20 DUP3 MUL DUP4 ADD GT ISZERO PUSH2 0x677 JUMPI PUSH2 0x676 PUSH2 0x625 JUMP JUMPDEST JUMPDEST SWAP3 POP SWAP3 SWAP1 POP JUMP JUMPDEST PUSH0 DUP1 PUSH1 0x20 DUP4 DUP6 SUB SLT ISZERO PUSH2 0x694 JUMPI PUSH2 0x693 PUSH2 0x615 JUMP JUMPDEST JUMPDEST PUSH0 DUP4 ADD CALLDATALOAD PUSH8 0xFFFFFFFFFFFFFFFF DUP2 GT ISZERO PUSH2 0x6B1 JUMPI PUSH2 0x6B0 PUSH2 0x619 JUMP JUMPDEST JUMPDEST PUSH2 0x6BD DUP6 DUP3 DUP7 ADD PUSH2 0x629 JUMP JUMPDEST SWAP3 POP SWAP3 POP POP SWAP3 POP SWAP3 SWAP1 POP JUMP JUMPDEST PUSH0 DUP3 DUP3 MSTORE PUSH1 0x20 DUP3 ADD SWAP1 POP SWAP3 SWAP2 POP POP JUMP JUMPDEST PUSH0 DUP1 REVERT JUMPDEST DUP3 DUP2 DUP4 CALLDATACOPY POP POP POP JUMP JUMPDEST PUSH0 PUSH2 0x6F1 DUP4 DUP6 PUSH2 0x6C9 JUMP JUMPDEST SWAP4 POP PUSH32 0x7FFFFFFFFFFFFFFFFFFFFFFFFFFFFFFFFFFFFFFFFFFFFFFFFFFFFFFFFFFFFFF DUP4 GT ISZERO PUSH2 0x724 JUMPI PUSH2 0x723 PUSH2 0x6D9 JUMP JUMPDEST JUMPDEST PUSH1 0x20 DUP4 MUL SWAP3 POP PUSH2 0x735 DUP4 DUP6 DUP5 PUSH2 0x6DD JUMP JUMPDEST DUP3 DUP5 ADD SWAP1 POP SWAP4 SWAP3 POP POP POP JUMP JUMPDEST PUSH0 PUSH1 0x20 DUP3 ADD SWAP1 POP DUP2 DUP2 SUB PUSH0 DUP4 ADD MSTORE PUSH2 0x75A DUP2 DUP5 DUP7 PUSH2 0x6E6 JUMP JUMPDEST SWAP1 POP SWAP4 SWAP3 POP POP POP JUMP JUMPDEST PUSH0 PUSH20 0xFFFFFFFFFFFFFFFFFFFFFFFFFFFFFFFFFFFFFFFF DUP3 AND SWAP1 POP SWAP2 SWAP1 POP JUMP JUMPDEST PUSH0 PUSH2 0x78C DUP3 PUSH2 0x763 JUMP JUMPDEST SWAP1 POP SWAP2 SWAP1 POP JUMP JUMPDEST PUSH2 0x79C DUP2 PUSH2 0x782 JUMP JUMPDEST DUP3 MSTORE POP POP JUMP JUMPDEST PUSH0 DUP2 MLOAD SWAP1 POP SWAP2 SWAP1 POP JUMP JUMPDEST PUSH0 DUP3 DUP3 MSTORE PUSH1 0x20 DUP3 ADD SWAP1 POP SWAP3 SWAP2 POP POP JUMP JUMPDEST DUP3 DUP2 DUP4 MCOPY PUSH0 DUP4 DUP4 ADD MSTORE POP POP POP JUMP JUMPDEST PUSH0 PUSH1 0x1F NOT PUSH1 0x1F DUP4 ADD AND SWAP1 POP SWAP2 SWAP1 POP JUMP JUMPDEST PUSH0 PUSH2 0x7E4 DUP3 PUSH2 0x7A2 JUMP JUMPDEST PUSH2 0x7EE DUP2 DUP6 PUSH2 0x7AC JUMP JUMPDEST SWAP4 POP PUSH2 0x7FE DUP2 DUP6 PUSH1 0x20 DUP7 ADD PUSH2 0x7BC JUMP JUMPDEST PUSH2 0x807 DUP2 PUSH2 0x7CA JUMP JUMPDEST DUP5 ADD SWAP2 POP POP SWAP3 SWAP2 POP POP JUMP JUMPDEST PUSH0 PUSH1 0x60 DUP3 ADD SWAP1 POP PUSH2 0x825 PUSH0 DUP4 ADD DUP7 PUSH2 0x793 JUMP JUMPDEST PUSH2 0x832 PUSH1 0x20 DUP4 ADD DUP6 PUSH2 0x5ED JUMP JUMPDEST DUP2 DUP2 SUB PUSH1 0x40 DUP4 ADD MSTORE PUSH2 0x844 DUP2 DUP5 PUSH2 0x7DA JUMP JUMPDEST SWAP1 POP SWAP5 SWAP4 POP POP POP POP JUMP JUMPDEST PUSH0 DUP2 MLOAD SWAP1 POP SWAP2 SWAP1 POP JUMP JUMPDEST PUSH0 DUP3 DUP3 MSTORE PUSH1 0x20 DUP3 ADD SWAP1 POP SWAP3 SWAP2 POP POP JUMP JUMPDEST PUSH0 PUSH2 0x872 DUP3 PUSH2 0x84E JUMP JUMPDEST PUSH2 0x87C DUP2 DUP6 PUSH2 0x858 JUMP JUMPDEST SWAP4 POP PUSH2 0x88C DUP2 DUP6 PUSH1 0x20 DUP7 ADD PUSH2 0x7BC JUMP JUMPDEST PUSH2 0x895 DUP2 PUSH2 0x7CA JUMP JUMPDEST DUP5 ADD SWAP2 POP POP SWAP3 SWAP2 POP POP JUMP JUMPDEST PUSH0 PUSH1 0x20 DUP3 ADD SWAP1 POP DUP2 DUP2 SUB PUSH0 DUP4 ADD MSTORE PUSH2 0x8B8 DUP2 DUP5 PUSH2 0x868 JUMP JUMPDEST SWAP1 POP SWAP3 SWAP2 POP POP JUMP JUMPDEST PUSH32 0x4E487B7100000000000000000000000000000000000000000000000000000000 PUSH0 MSTORE PUSH1 0x1 PUSH1 0x4 MSTORE PUSH1 0x24 PUSH0 REVERT JUMPDEST PUSH32 0x4E487B7100000000000000000000000000000000000000000000000000000000 PUSH0 MSTORE PUSH1 0x32 PUSH1 0x4 MSTORE PUSH1 0x24 PUSH0 REVERT JUMPDEST PUSH32 0x4E487B7100000000000000000000000000000000000000000000000000000000 PUSH0 MSTORE PUSH1 0x41 PUSH1 0x4 MSTORE PUSH1 0x24 PUSH0 REVERT JUMPDEST PUSH32 0x4E487B7100000000000000000000000000000000000000000000000000000000 PUSH0 MSTORE PUSH1 0x22 PUSH1 0x4 MSTORE PUSH1 0x24 PUSH0 REVERT JUMPDEST PUSH0 PUSH1 0x2 DUP3 DIV SWAP1 POP PUSH1 0x1 DUP3 AND DUP1 PUSH2 0x98B JUMPI PUSH1 0x7F DUP3 AND SWAP2 POP JUMPDEST PUSH1 0x20 DUP3 LT DUP2 SUB PUSH2 0x99E JUMPI PUSH2 0x99D PUSH2 0x947 JUMP JUMPDEST JUMPDEST POP SWAP2 SWAP1 POP JUMP JUMPDEST PUSH0 DUP2 SWAP1 POP DUP2 PUSH0 MSTORE PUSH1 0x20 PUSH0 KECCAK256 SWAP1 POP SWAP2 SWAP1 POP JUMP JUMPDEST PUSH0 PUSH1 0x20 PUSH1 0x1F DUP4 ADD DIV SWAP1 POP SWAP2 SWAP1 POP JUMP JUMPDEST PUSH0 DUP3 DUP3 SHL SWAP1 POP SWAP3 SWAP2 POP POP JUMP JUMPDEST PUSH0 PUSH1 0x8 DUP4 MUL PUSH2 0xA00 PUSH32 0xFFFFFFFFFFFFFFFFFFFFFFFFFFFFFFFFFFFFFFFFFFFFFFFFFFFFFFFFFFFFFFFF DUP3 PUSH2 0x9C5 JUMP JUMPDEST PUSH2 0xA0A DUP7 DUP4 PUSH2 0x9C5 JUMP JUMPDEST SWAP6 POP DUP1 NOT DUP5 AND SWAP4 POP DUP1 DUP7 AND DUP5 OR SWAP3 POP POP POP SWAP4 SWAP3 POP POP POP JUMP JUMPDEST PUSH0 DUP2 SWAP1 POP SWAP2 SWAP1 POP JUMP JUMPDEST PUSH0 PUSH2 0xA45 PUSH2 0xA40 PUSH2 0xA3B DUP5 PUSH2 0x5E4 JUMP JUMPDEST PUSH2 0xA22 JUMP JUMPDEST PUSH2 0x5E4 JUMP JUMPDEST SWAP1 POP SWAP2 SWAP1 POP JUMP JUMPDEST PUSH0 DUP2 SWAP1 POP SWAP2 SWAP1 POP JUMP JUMPDEST PUSH2 0xA5E DUP4 PUSH2 0xA2B JUMP JUMPDEST PUSH2 0xA72 PUSH2 0xA6A DUP3 PUSH2 0xA4C JUMP JUMPDEST DUP5 DUP5 SLOAD PUSH2 0x9D1 JUMP JUMPDEST DUP3 SSTORE POP POP POP POP JUMP JUMPDEST PUSH0 SWAP1 JUMP JUMPDEST PUSH2 0xA86 PUSH2 0xA7A JUMP JUMPDEST PUSH2 0xA91 DUP2 DUP5 DUP5 PUSH2 0xA55 JUMP JUMPDEST POP POP POP JUMP JUMPDEST JUMPDEST DUP2 DUP2 LT ISZERO PUSH2 0xAB4 JUMPI PUSH2 0xAA9 PUSH0 DUP3 PUSH2 0xA7E JUMP JUMPDEST PUSH1 0x1 DUP2 ADD SWAP1 POP PUSH2 0xA97 JUMP JUMPDEST POP POP JUMP JUMPDEST PUSH1 0x1F DUP3 GT ISZERO PUSH2 0xAF9 JUMPI PUSH2 0xACA DUP2 PUSH2 0x9A4 JUMP JUMPDEST PUSH2 0xAD3 DUP5 PUSH2 0x9B6 JUMP JUMPDEST DUP2 ADD PUSH1 0x20 DUP6 LT ISZERO PUSH2 0xAE2 JUMPI DUP2 SWAP1 POP JUMPDEST PUSH2 0xAF6 PUSH2 0xAEE DUP6 PUSH2 0x9B6 JUMP JUMPDEST DUP4 ADD DUP3 PUSH2 0xA96 JUMP JUMPDEST POP POP JUMPDEST POP POP POP JUMP JUMPDEST PUSH0 DUP3 DUP3 SHR SWAP1 POP SWAP3 SWAP2 POP POP JUMP JUMPDEST PUSH0 PUSH2 0xB19 PUSH0 NOT DUP5 PUSH1 0x8 MUL PUSH2 0xAFE JUMP JUMPDEST NOT DUP1 DUP4 AND SWAP2 POP POP SWAP3 SWAP2 POP POP JUMP JUMPDEST PUSH0 PUSH2 0xB31 DUP4 DUP4 PUSH2 0xB0A JUMP JUMPDEST SWAP2 POP DUP3 PUSH1 0x2 MUL DUP3 OR SWAP1 POP SWAP3 SWAP2 POP POP JUMP JUMPDEST PUSH2 0xB4A DUP3 PUSH2 0x84E JUMP JUMPDEST PUSH8 0xFFFFFFFFFFFFFFFF DUP2 GT ISZERO PUSH2 0xB63 JUMPI PUSH2 0xB62 PUSH2 0x91A JUMP JUMPDEST JUMPDEST PUSH2 0xB6D DUP3 SLOAD PUSH2 0x974 JUMP JUMPDEST PUSH2 0xB78 DUP3 DUP3 DUP6 PUSH2 0xAB8 JUMP JUMPDEST PUSH0 PUSH1 0x20 SWAP1 POP PUSH1 0x1F DUP4 GT PUSH1 0x1 DUP2 EQ PUSH2 0xBA9 JUMPI PUSH0 DUP5 ISZERO PUSH2 0xB97 JUMPI DUP3 DUP8 ADD MLOAD SWAP1 POP JUMPDEST PUSH2 0xBA1 DUP6 DUP3 PUSH2 0xB26 JUMP JUMPDEST DUP7 SSTORE POP PUSH2 0xC08 JUMP JUMPDEST PUSH1 0x1F NOT DUP5 AND PUSH2 0xBB7 DUP7 PUSH2 0x9A4 JUMP JUMPDEST PUSH0 JUMPDEST DUP3 DUP2 LT ISZERO PUSH2 0xBDE JUMPI DUP5 DUP10 ADD MLOAD DUP3 SSTORE PUSH1 0x1 DUP3 ADD SWAP2 POP PUSH1 0x20 DUP6 ADD SWAP5 POP PUSH1 0x20 DUP2 ADD SWAP1 POP PUSH2 0xBB9 JUMP JUMPDEST DUP7 DUP4 LT ISZERO PUSH2 0xBFB JUMPI DUP5 DUP10 ADD MLOAD PUSH2 0xBF7 PUSH1 0x1F DUP10 AND DUP3 PUSH2 0xB0A JUMP JUMPDEST DUP4 SSTORE POP JUMPDEST PUSH1 0x1 PUSH1 0x2 DUP9 MUL ADD DUP9 SSTORE POP POP POP JUMPDEST POP POP POP POP POP POP JUMP JUMPDEST PUSH32 0x4E487B7100000000000000000000000000000000000000000000000000000000 PUSH0 MSTORE PUSH1 0x11 PUSH1 0x4 MSTORE PUSH1 0x24 PUSH0 REVERT JUMPDEST PUSH0 PUSH2 0xC47 DUP3 PUSH2 0x5E4 JUMP JUMPDEST SWAP2 POP PUSH2 0xC52 DUP4 PUSH2 0x5E4 JUMP JUMPDEST SWAP3 POP DUP3 DUP3 ADD SWAP1 POP DUP1 DUP3 GT ISZERO PUSH2 0xC6A JUMPI PUSH2 0xC69 PUSH2 0xC10 JUMP JUMPDEST JUMPDEST SWAP3 SWAP2 POP POP JUMP INVALID LOG2 PUSH5 0x6970667358 0x22 SLT KECCAK256 SUB 0xCF REVERT PUSH0 REVERT 0xD1 CALL SWAP3 GT 0x24 0x4B 0xB1 0xD1 0x4B 0xB9 EQ 0xC6 PUSH11 0xCB7AA797AF1DE1561AAADB PUSH13 0xC4FF64736F6C634300081A0033 "
				},
				"gasEstimates": {
					"creation": {
						"codeDepositCost": "647600",
						"executionCost": "infinite",
						"totalCost": "infinite"
					},
					"external": {
						"bar()": "infinite",
						"daysUnit()": "467",
						"etherUnit()": "422",
						"fCalldata(uint256[])": "infinite",
						"fStorage()": "24461",
						"foo()": "infinite",
						"global()": "infinite",
						"gweiUnit()": "423",
						"hoursUnit()": "445",
						"minutesUnit()": "444",
						"secondsUnit()": "379",
						"weeksUnit()": "468",
						"weiUnit()": "446",
						"x()": "2471",
						"y()": "2448",
						"z()": "infinite"
					}
				},
				"methodIdentifiers": {
					"bar()": "febb0f7e",
					"daysUnit()": "a0d0d59e",
					"etherUnit()": "cb9f1220",
					"fCalldata(uint256[])": "9b1a379c",
					"fStorage()": "6a8d1e08",
					"foo()": "c2985578",
					"global()": "a05f9906",
					"gweiUnit()": "aec3d640",
					"hoursUnit()": "be44f864",
					"minutesUnit()": "f1e6d198",
					"secondsUnit()": "09879682",
					"weeksUnit()": "2aca45f1",
					"weiUnit()": "12176349",
					"x()": "0c55699c",
					"y()": "a56dfe4a",
					"z()": "c5d7802e"
				}
			},
			"storageLayout": {
				"storage": [
					{
						"astId": 21,
						"contract": "contracts/005_DataStorage.sol:DataStorage",
						"label": "_x",
						"offset": 0,
						"slot": "0",
						"type": "t_array(t_uint256)dyn_storage"
					},
					{
						"astId": 41,
						"contract": "contracts/005_DataStorage.sol:DataStorage",
						"label": "x",
						"offset": 0,
						"slot": "1",
						"type": "t_uint256"
					},
					{
						"astId": 43,
						"contract": "contracts/005_DataStorage.sol:DataStorage",
						"label": "y",
						"offset": 0,
						"slot": "2",
						"type": "t_uint256"
					},
					{
						"astId": 45,
						"contract": "contracts/005_DataStorage.sol:DataStorage",
						"label": "z",
						"offset": 0,
						"slot": "3",
						"type": "t_string_storage"
					}
				],
				"types": {
					"t_array(t_uint256)dyn_storage": {
						"base": "t_uint256",
						"encoding": "dynamic_array",
						"label": "uint256[]",
						"numberOfBytes": "32"
					},
					"t_string_storage": {
						"encoding": "bytes",
						"label": "string",
						"numberOfBytes": "32"
					},
					"t_uint256": {
						"encoding": "inplace",
						"label": "uint256",
						"numberOfBytes": "32"
					}
				}
			},
			"userdoc": {
				"kind": "user",
				"methods": {},
				"version": 1
			}
		}
	}
}