{
	"contracts/013_Inheritance.sol": {
		"Erzi": {
			"abi": [
				{
					"anonymous": false,
					"inputs": [
						{
							"indexed": false,
							"internalType": "string",
							"name": "msg",
							"type": "string"
						}
					],
					"name": "Log",
					"type": "event"
				},
				{
					"inputs": [],
					"name": "baba",
					"outputs": [],
					"stateMutability": "nonpayable",
					"type": "function"
				},
				{
					"inputs": [],
					"name": "callParent",
					"outputs": [],
					"stateMutability": "nonpayable",
					"type": "function"
				},
				{
					"inputs": [],
					"name": "callParentSuper",
					"outputs": [],
					"stateMutability": "nonpayable",
					"type": "function"
				},
				{
					"inputs": [],
					"name": "hip",
					"outputs": [],
					"stateMutability": "nonpayable",
					"type": "function"
				},
				{
					"inputs": [],
					"name": "pop",
					"outputs": [],
					"stateMutability": "nonpayable",
					"type": "function"
				},
				{
					"inputs": [],
					"name": "yeye",
					"outputs": [],
					"stateMutability": "nonpayable",
					"type": "function"
				}
			],
			"devdoc": {
				"kind": "dev",
				"methods": {},
				"version": 1
			},
			"evm": {
				"assembly": "    /* \"contracts/013_Inheritance.sol\":1647:1919  contract Erzi is Yeye, Baba {... */\n  mstore(0x40, 0x80)\n  callvalue\n  dup1\n  iszero\n  tag_1\n  jumpi\n  0x00\n  dup1\n  revert\ntag_1:\n  pop\n  dataSize(sub_0)\n  dup1\n  dataOffset(sub_0)\n  0x00\n  codecopy\n  0x00\n  return\nstop\n\nsub_0: assembly {\n        /* \"contracts/013_Inheritance.sol\":1647:1919  contract Erzi is Yeye, Baba {... */\n      mstore(0x40, 0x80)\n      callvalue\n      dup1\n      iszero\n      tag_1\n      jumpi\n      0x00\n      dup1\n      revert\n    tag_1:\n      pop\n      jumpi(tag_2, lt(calldatasize, 0x04))\n      shr(0xe0, calldataload(0x00))\n      dup1\n      0x0ca21e9c\n      eq\n      tag_3\n      jumpi\n      dup1\n      0x370ea142\n      eq\n      tag_4\n      jumpi\n      dup1\n      0x572e47ae\n      eq\n      tag_5\n      jumpi\n      dup1\n      0xa4ece52c\n      eq\n      tag_6\n      jumpi\n      dup1\n      0xb92a50e0\n      eq\n      tag_7\n      jumpi\n      dup1\n      0xfa030ef1\n      eq\n      tag_8\n      jumpi\n    tag_2:\n      0x00\n      dup1\n      revert\n        /* \"contracts/013_Inheritance.sol\":243:307  function yeye() public virtual {... */\n    tag_3:\n      tag_9\n      tag_10\n      jump\t// in\n    tag_9:\n      stop\n        /* \"contracts/013_Inheritance.sol\":1743:1827  function hip() public virtual override(Yeye, Baba) {... */\n    tag_4:\n      tag_11\n      tag_12\n      jump\t// in\n    tag_11:\n      stop\n        /* \"contracts/013_Inheritance.sol\":639:695  function callParent() public {... */\n    tag_5:\n      tag_13\n      tag_14\n      jump\t// in\n    tag_13:\n      stop\n        /* \"contracts/013_Inheritance.sol\":1833:1917  function pop() public virtual override(Yeye, Baba) {... */\n    tag_6:\n      tag_15\n      tag_16\n      jump\t// in\n    tag_15:\n      stop\n        /* \"contracts/013_Inheritance.sol\":701:763  function callParentSuper() public {... */\n    tag_7:\n      tag_17\n      tag_18\n      jump\t// in\n    tag_17:\n      stop\n        /* \"contracts/013_Inheritance.sol\":569:633  function baba() public virtual {... */\n    tag_8:\n      tag_19\n      tag_20\n      jump\t// in\n    tag_19:\n      stop\n        /* \"contracts/013_Inheritance.sol\":243:307  function yeye() public virtual {... */\n    tag_10:\n        /* \"contracts/013_Inheritance.sol\":289:300  Log(\"Yeye\") */\n      0xcf34ef537ac33ee1ac626ca1587a0a7e8e51561e5514f8cb36afa1c5102b3bab\n      mload(0x40)\n      tag_22\n      swap1\n      tag_23\n      jump\t// in\n    tag_22:\n      mload(0x40)\n      dup1\n      swap2\n      sub\n      swap1\n      log1\n        /* \"contracts/013_Inheritance.sol\":243:307  function yeye() public virtual {... */\n      jump\t// out\n        /* \"contracts/013_Inheritance.sol\":1743:1827  function hip() public virtual override(Yeye, Baba) {... */\n    tag_12:\n        /* \"contracts/013_Inheritance.sol\":1809:1820  Log(\"Erzi\") */\n      0xcf34ef537ac33ee1ac626ca1587a0a7e8e51561e5514f8cb36afa1c5102b3bab\n      mload(0x40)\n      tag_25\n      swap1\n      tag_26\n      jump\t// in\n    tag_25:\n      mload(0x40)\n      dup1\n      swap2\n      sub\n      swap1\n      log1\n        /* \"contracts/013_Inheritance.sol\":1743:1827  function hip() public virtual override(Yeye, Baba) {... */\n      jump\t// out\n        /* \"contracts/013_Inheritance.sol\":639:695  function callParent() public {... */\n    tag_14:\n        /* \"contracts/013_Inheritance.sol\":678:688  Yeye.pop() */\n      tag_28\n        /* \"contracts/013_Inheritance.sol\":678:686  Yeye.pop */\n      tag_29\n        /* \"contracts/013_Inheritance.sol\":678:688  Yeye.pop() */\n      jump\t// in\n    tag_28:\n        /* \"contracts/013_Inheritance.sol\":639:695  function callParent() public {... */\n      jump\t// out\n        /* \"contracts/013_Inheritance.sol\":1833:1917  function pop() public virtual override(Yeye, Baba) {... */\n    tag_16:\n        /* \"contracts/013_Inheritance.sol\":1899:1910  Log(\"Erzi\") */\n      0xcf34ef537ac33ee1ac626ca1587a0a7e8e51561e5514f8cb36afa1c5102b3bab\n      mload(0x40)\n      tag_31\n      swap1\n      tag_26\n      jump\t// in\n    tag_31:\n      mload(0x40)\n      dup1\n      swap2\n      sub\n      swap1\n      log1\n        /* \"contracts/013_Inheritance.sol\":1833:1917  function pop() public virtual override(Yeye, Baba) {... */\n      jump\t// out\n        /* \"contracts/013_Inheritance.sol\":701:763  function callParentSuper() public {... */\n    tag_18:\n        /* \"contracts/013_Inheritance.sol\":745:756  super.pop() */\n      tag_33\n        /* \"contracts/013_Inheritance.sol\":745:754  super.pop */\n      tag_29\n        /* \"contracts/013_Inheritance.sol\":745:756  super.pop() */\n      jump\t// in\n    tag_33:\n        /* \"contracts/013_Inheritance.sol\":701:763  function callParentSuper() public {... */\n      jump\t// out\n        /* \"contracts/013_Inheritance.sol\":569:633  function baba() public virtual {... */\n    tag_20:\n        /* \"contracts/013_Inheritance.sol\":615:626  Log(\"Baba\") */\n      0xcf34ef537ac33ee1ac626ca1587a0a7e8e51561e5514f8cb36afa1c5102b3bab\n      mload(0x40)\n      tag_35\n      swap1\n      tag_36\n      jump\t// in\n    tag_35:\n      mload(0x40)\n      dup1\n      swap2\n      sub\n      swap1\n      log1\n        /* \"contracts/013_Inheritance.sol\":569:633  function baba() public virtual {... */\n      jump\t// out\n        /* \"contracts/013_Inheritance.sol\":174:237  function pop() public virtual {... */\n    tag_29:\n        /* \"contracts/013_Inheritance.sol\":219:230  Log(\"Yeye\") */\n      0xcf34ef537ac33ee1ac626ca1587a0a7e8e51561e5514f8cb36afa1c5102b3bab\n      mload(0x40)\n      tag_38\n      swap1\n      tag_23\n      jump\t// in\n    tag_38:\n      mload(0x40)\n      dup1\n      swap2\n      sub\n      swap1\n      log1\n        /* \"contracts/013_Inheritance.sol\":174:237  function pop() public virtual {... */\n      jump\t// out\n        /* \"#utility.yul\":7:176   */\n    tag_39:\n        /* \"#utility.yul\":91:102   */\n      0x00\n        /* \"#utility.yul\":125:131   */\n      dup3\n        /* \"#utility.yul\":120:123   */\n      dup3\n        /* \"#utility.yul\":113:132   */\n      mstore\n        /* \"#utility.yul\":165:169   */\n      0x20\n        /* \"#utility.yul\":160:163   */\n      dup3\n        /* \"#utility.yul\":156:170   */\n      add\n        /* \"#utility.yul\":141:170   */\n      swap1\n      pop\n        /* \"#utility.yul\":7:176   */\n      swap3\n      swap2\n      pop\n      pop\n      jump\t// out\n        /* \"#utility.yul\":182:336   */\n    tag_40:\n        /* \"#utility.yul\":322:328   */\n      0x5965796500000000000000000000000000000000000000000000000000000000\n        /* \"#utility.yul\":318:319   */\n      0x00\n        /* \"#utility.yul\":310:316   */\n      dup3\n        /* \"#utility.yul\":306:320   */\n      add\n        /* \"#utility.yul\":299:329   */\n      mstore\n        /* \"#utility.yul\":182:336   */\n      pop\n      jump\t// out\n        /* \"#utility.yul\":342:707   */\n    tag_41:\n        /* \"#utility.yul\":484:487   */\n      0x00\n        /* \"#utility.yul\":505:571   */\n      tag_50\n        /* \"#utility.yul\":569:570   */\n      0x04\n        /* \"#utility.yul\":564:567   */\n      dup4\n        /* \"#utility.yul\":505:571   */\n      tag_39\n      jump\t// in\n    tag_50:\n        /* \"#utility.yul\":498:571   */\n      swap2\n      pop\n        /* \"#utility.yul\":580:673   */\n      tag_51\n        /* \"#utility.yul\":669:672   */\n      dup3\n        /* \"#utility.yul\":580:673   */\n      tag_40\n      jump\t// in\n    tag_51:\n        /* \"#utility.yul\":698:700   */\n      0x20\n        /* \"#utility.yul\":693:696   */\n      dup3\n        /* \"#utility.yul\":689:701   */\n      add\n        /* \"#utility.yul\":682:701   */\n      swap1\n      pop\n        /* \"#utility.yul\":342:707   */\n      swap2\n      swap1\n      pop\n      jump\t// out\n        /* \"#utility.yul\":713:1132   */\n    tag_23:\n        /* \"#utility.yul\":879:883   */\n      0x00\n        /* \"#utility.yul\":917:919   */\n      0x20\n        /* \"#utility.yul\":906:915   */\n      dup3\n        /* \"#utility.yul\":902:920   */\n      add\n        /* \"#utility.yul\":894:920   */\n      swap1\n      pop\n        /* \"#utility.yul\":966:975   */\n      dup2\n        /* \"#utility.yul\":960:964   */\n      dup2\n        /* \"#utility.yul\":956:976   */\n      sub\n        /* \"#utility.yul\":952:953   */\n      0x00\n        /* \"#utility.yul\":941:950   */\n      dup4\n        /* \"#utility.yul\":937:954   */\n      add\n        /* \"#utility.yul\":930:977   */\n      mstore\n        /* \"#utility.yul\":994:1125   */\n      tag_53\n        /* \"#utility.yul\":1120:1124   */\n      dup2\n        /* \"#utility.yul\":994:1125   */\n      tag_41\n      jump\t// in\n    tag_53:\n        /* \"#utility.yul\":986:1125   */\n      swap1\n      pop\n        /* \"#utility.yul\":713:1132   */\n      swap2\n      swap1\n      pop\n      jump\t// out\n        /* \"#utility.yul\":1138:1292   */\n    tag_42:\n        /* \"#utility.yul\":1278:1284   */\n      0x45727a6900000000000000000000000000000000000000000000000000000000\n        /* \"#utility.yul\":1274:1275   */\n      0x00\n        /* \"#utility.yul\":1266:1272   */\n      dup3\n        /* \"#utility.yul\":1262:1276   */\n      add\n        /* \"#utility.yul\":1255:1285   */\n      mstore\n        /* \"#utility.yul\":1138:1292   */\n      pop\n      jump\t// out\n        /* \"#utility.yul\":1298:1663   */\n    tag_43:\n        /* \"#utility.yul\":1440:1443   */\n      0x00\n        /* \"#utility.yul\":1461:1527   */\n      tag_56\n        /* \"#utility.yul\":1525:1526   */\n      0x04\n        /* \"#utility.yul\":1520:1523   */\n      dup4\n        /* \"#utility.yul\":1461:1527   */\n      tag_39\n      jump\t// in\n    tag_56:\n        /* \"#utility.yul\":1454:1527   */\n      swap2\n      pop\n        /* \"#utility.yul\":1536:1629   */\n      tag_57\n        /* \"#utility.yul\":1625:1628   */\n      dup3\n        /* \"#utility.yul\":1536:1629   */\n      tag_42\n      jump\t// in\n    tag_57:\n        /* \"#utility.yul\":1654:1656   */\n      0x20\n        /* \"#utility.yul\":1649:1652   */\n      dup3\n        /* \"#utility.yul\":1645:1657   */\n      add\n        /* \"#utility.yul\":1638:1657   */\n      swap1\n      pop\n        /* \"#utility.yul\":1298:1663   */\n      swap2\n      swap1\n      pop\n      jump\t// out\n        /* \"#utility.yul\":1669:2088   */\n    tag_26:\n        /* \"#utility.yul\":1835:1839   */\n      0x00\n        /* \"#utility.yul\":1873:1875   */\n      0x20\n        /* \"#utility.yul\":1862:1871   */\n      dup3\n        /* \"#utility.yul\":1858:1876   */\n      add\n        /* \"#utility.yul\":1850:1876   */\n      swap1\n      pop\n        /* \"#utility.yul\":1922:1931   */\n      dup2\n        /* \"#utility.yul\":1916:1920   */\n      dup2\n        /* \"#utility.yul\":1912:1932   */\n      sub\n        /* \"#utility.yul\":1908:1909   */\n      0x00\n        /* \"#utility.yul\":1897:1906   */\n      dup4\n        /* \"#utility.yul\":1893:1910   */\n      add\n        /* \"#utility.yul\":1886:1933   */\n      mstore\n        /* \"#utility.yul\":1950:2081   */\n      tag_59\n        /* \"#utility.yul\":2076:2080   */\n      dup2\n        /* \"#utility.yul\":1950:2081   */\n      tag_43\n      jump\t// in\n    tag_59:\n        /* \"#utility.yul\":1942:2081   */\n      swap1\n      pop\n        /* \"#utility.yul\":1669:2088   */\n      swap2\n      swap1\n      pop\n      jump\t// out\n        /* \"#utility.yul\":2094:2248   */\n    tag_44:\n        /* \"#utility.yul\":2234:2240   */\n      0x4261626100000000000000000000000000000000000000000000000000000000\n        /* \"#utility.yul\":2230:2231   */\n      0x00\n        /* \"#utility.yul\":2222:2228   */\n      dup3\n        /* \"#utility.yul\":2218:2232   */\n      add\n        /* \"#utility.yul\":2211:2241   */\n      mstore\n        /* \"#utility.yul\":2094:2248   */\n      pop\n      jump\t// out\n        /* \"#utility.yul\":2254:2619   */\n    tag_45:\n        /* \"#utility.yul\":2396:2399   */\n      0x00\n        /* \"#utility.yul\":2417:2483   */\n      tag_62\n        /* \"#utility.yul\":2481:2482   */\n      0x04\n        /* \"#utility.yul\":2476:2479   */\n      dup4\n        /* \"#utility.yul\":2417:2483   */\n      tag_39\n      jump\t// in\n    tag_62:\n        /* \"#utility.yul\":2410:2483   */\n      swap2\n      pop\n        /* \"#utility.yul\":2492:2585   */\n      tag_63\n        /* \"#utility.yul\":2581:2584   */\n      dup3\n        /* \"#utility.yul\":2492:2585   */\n      tag_44\n      jump\t// in\n    tag_63:\n        /* \"#utility.yul\":2610:2612   */\n      0x20\n        /* \"#utility.yul\":2605:2608   */\n      dup3\n        /* \"#utility.yul\":2601:2613   */\n      add\n        /* \"#utility.yul\":2594:2613   */\n      swap1\n      pop\n        /* \"#utility.yul\":2254:2619   */\n      swap2\n      swap1\n      pop\n      jump\t// out\n        /* \"#utility.yul\":2625:3044   */\n    tag_36:\n        /* \"#utility.yul\":2791:2795   */\n      0x00\n        /* \"#utility.yul\":2829:2831   */\n      0x20\n        /* \"#utility.yul\":2818:2827   */\n      dup3\n        /* \"#utility.yul\":2814:2832   */\n      add\n        /* \"#utility.yul\":2806:2832   */\n      swap1\n      pop\n        /* \"#utility.yul\":2878:2887   */\n      dup2\n        /* \"#utility.yul\":2872:2876   */\n      dup2\n        /* \"#utility.yul\":2868:2888   */\n      sub\n        /* \"#utility.yul\":2864:2865   */\n      0x00\n        /* \"#utility.yul\":2853:2862   */\n      dup4\n        /* \"#utility.yul\":2849:2866   */\n      add\n        /* \"#utility.yul\":2842:2889   */\n      mstore\n        /* \"#utility.yul\":2906:3037   */\n      tag_65\n        /* \"#utility.yul\":3032:3036   */\n      dup2\n        /* \"#utility.yul\":2906:3037   */\n      tag_45\n      jump\t// in\n    tag_65:\n        /* \"#utility.yul\":2898:3037   */\n      swap1\n      pop\n        /* \"#utility.yul\":2625:3044   */\n      swap2\n      swap1\n      pop\n      jump\t// out\n\n    auxdata: 0xa26469706673582212205d3d3e8645bc0fcf9fac036af4a1df67940902a381a241adcb6fba9f431d37be64736f6c634300081a0033\n}\n",
				"bytecode": {
					"linkReferences": {},
					"object": "6080604052348015600e575f80fd5b506103458061001c5f395ff3fe608060405234801561000f575f80fd5b5060043610610060575f3560e01c80630ca21e9c14610064578063370ea1421461006e578063572e47ae14610078578063a4ece52c14610082578063b92a50e01461008c578063fa030ef114610096575b5f80fd5b61006c6100a0565b005b6100766100d7565b005b61008061010e565b005b61008a610118565b005b61009461014f565b005b61009e610159565b005b7fcf34ef537ac33ee1ac626ca1587a0a7e8e51561e5514f8cb36afa1c5102b3bab6040516100cd90610221565b60405180910390a1565b7fcf34ef537ac33ee1ac626ca1587a0a7e8e51561e5514f8cb36afa1c5102b3bab60405161010490610289565b60405180910390a1565b610116610190565b565b7fcf34ef537ac33ee1ac626ca1587a0a7e8e51561e5514f8cb36afa1c5102b3bab60405161014590610289565b60405180910390a1565b610157610190565b565b7fcf34ef537ac33ee1ac626ca1587a0a7e8e51561e5514f8cb36afa1c5102b3bab604051610186906102f1565b60405180910390a1565b7fcf34ef537ac33ee1ac626ca1587a0a7e8e51561e5514f8cb36afa1c5102b3bab6040516101bd90610221565b60405180910390a1565b5f82825260208201905092915050565b7f59657965000000000000000000000000000000000000000000000000000000005f82015250565b5f61020b6004836101c7565b9150610216826101d7565b602082019050919050565b5f6020820190508181035f830152610238816101ff565b9050919050565b7f45727a69000000000000000000000000000000000000000000000000000000005f82015250565b5f6102736004836101c7565b915061027e8261023f565b602082019050919050565b5f6020820190508181035f8301526102a081610267565b9050919050565b7f42616261000000000000000000000000000000000000000000000000000000005f82015250565b5f6102db6004836101c7565b91506102e6826102a7565b602082019050919050565b5f6020820190508181035f830152610308816102cf565b905091905056fea26469706673582212205d3d3e8645bc0fcf9fac036af4a1df67940902a381a241adcb6fba9f431d37be64736f6c634300081a0033",
					"opcodes": "PUSH1 0x80 PUSH1 0x40 MSTORE CALLVALUE DUP1 ISZERO PUSH1 0xE JUMPI PUSH0 DUP1 REVERT JUMPDEST POP PUSH2 0x345 DUP1 PUSH2 0x1C PUSH0 CODECOPY PUSH0 RETURN INVALID PUSH1 0x80 PUSH1 0x40 MSTORE CALLVALUE DUP1 ISZERO PUSH2 0xF JUMPI PUSH0 DUP1 REVERT JUMPDEST POP PUSH1 0x4 CALLDATASIZE LT PUSH2 0x60 JUMPI PUSH0 CALLDATALOAD PUSH1 0xE0 SHR DUP1 PUSH4 0xCA21E9C EQ PUSH2 0x64 JUMPI DUP1 PUSH4 0x370EA142 EQ PUSH2 0x6E JUMPI DUP1 PUSH4 0x572E47AE EQ PUSH2 0x78 JUMPI DUP1 PUSH4 0xA4ECE52C EQ PUSH2 0x82 JUMPI DUP1 PUSH4 0xB92A50E0 EQ PUSH2 0x8C JUMPI DUP1 PUSH4 0xFA030EF1 EQ PUSH2 0x96 JUMPI JUMPDEST PUSH0 DUP1 REVERT JUMPDEST PUSH2 0x6C PUSH2 0xA0 JUMP JUMPDEST STOP JUMPDEST PUSH2 0x76 PUSH2 0xD7 JUMP JUMPDEST STOP JUMPDEST PUSH2 0x80 PUSH2 0x10E JUMP JUMPDEST STOP JUMPDEST PUSH2 0x8A PUSH2 0x118 JUMP JUMPDEST STOP JUMPDEST PUSH2 0x94 PUSH2 0x14F JUMP JUMPDEST STOP JUMPDEST PUSH2 0x9E PUSH2 0x159 JUMP JUMPDEST STOP JUMPDEST PUSH32 0xCF34EF537AC33EE1AC626CA1587A0A7E8E51561E5514F8CB36AFA1C5102B3BAB PUSH1 0x40 MLOAD PUSH2 0xCD SWAP1 PUSH2 0x221 JUMP JUMPDEST PUSH1 0x40 MLOAD DUP1 SWAP2 SUB SWAP1 LOG1 JUMP JUMPDEST PUSH32 0xCF34EF537AC33EE1AC626CA1587A0A7E8E51561E5514F8CB36AFA1C5102B3BAB PUSH1 0x40 MLOAD PUSH2 0x104 SWAP1 PUSH2 0x289 JUMP JUMPDEST PUSH1 0x40 MLOAD DUP1 SWAP2 SUB SWAP1 LOG1 JUMP JUMPDEST PUSH2 0x116 PUSH2 0x190 JUMP JUMPDEST JUMP JUMPDEST PUSH32 0xCF34EF537AC33EE1AC626CA1587A0A7E8E51561E5514F8CB36AFA1C5102B3BAB PUSH1 0x40 MLOAD PUSH2 0x145 SWAP1 PUSH2 0x289 JUMP JUMPDEST PUSH1 0x40 MLOAD DUP1 SWAP2 SUB SWAP1 LOG1 JUMP JUMPDEST PUSH2 0x157 PUSH2 0x190 JUMP JUMPDEST JUMP JUMPDEST PUSH32 0xCF34EF537AC33EE1AC626CA1587A0A7E8E51561E5514F8CB36AFA1C5102B3BAB PUSH1 0x40 MLOAD PUSH2 0x186 SWAP1 PUSH2 0x2F1 JUMP JUMPDEST PUSH1 0x40 MLOAD DUP1 SWAP2 SUB SWAP1 LOG1 JUMP JUMPDEST PUSH32 0xCF34EF537AC33EE1AC626CA1587A0A7E8E51561E5514F8CB36AFA1C5102B3BAB PUSH1 0x40 MLOAD PUSH2 0x1BD SWAP1 PUSH2 0x221 JUMP JUMPDEST PUSH1 0x40 MLOAD DUP1 SWAP2 SUB SWAP1 LOG1 JUMP JUMPDEST PUSH0 DUP3 DUP3 MSTORE PUSH1 0x20 DUP3 ADD SWAP1 POP SWAP3 SWAP2 POP POP JUMP JUMPDEST PUSH32 0x5965796500000000000000000000000000000000000000000000000000000000 PUSH0 DUP3 ADD MSTORE POP JUMP JUMPDEST PUSH0 PUSH2 0x20B PUSH1 0x4 DUP4 PUSH2 0x1C7 JUMP JUMPDEST SWAP2 POP PUSH2 0x216 DUP3 PUSH2 0x1D7 JUMP JUMPDEST PUSH1 0x20 DUP3 ADD SWAP1 POP SWAP2 SWAP1 POP JUMP JUMPDEST PUSH0 PUSH1 0x20 DUP3 ADD SWAP1 POP DUP2 DUP2 SUB PUSH0 DUP4 ADD MSTORE PUSH2 0x238 DUP2 PUSH2 0x1FF JUMP JUMPDEST SWAP1 POP SWAP2 SWAP1 POP JUMP JUMPDEST PUSH32 0x45727A6900000000000000000000000000000000000000000000000000000000 PUSH0 DUP3 ADD MSTORE POP JUMP JUMPDEST PUSH0 PUSH2 0x273 PUSH1 0x4 DUP4 PUSH2 0x1C7 JUMP JUMPDEST SWAP2 POP PUSH2 0x27E DUP3 PUSH2 0x23F JUMP JUMPDEST PUSH1 0x20 DUP3 ADD SWAP1 POP SWAP2 SWAP1 POP JUMP JUMPDEST PUSH0 PUSH1 0x20 DUP3 ADD SWAP1 POP DUP2 DUP2 SUB PUSH0 DUP4 ADD MSTORE PUSH2 0x2A0 DUP2 PUSH2 0x267 JUMP JUMPDEST SWAP1 POP SWAP2 SWAP1 POP JUMP JUMPDEST PUSH32 0x4261626100000000000000000000000000000000000000000000000000000000 PUSH0 DUP3 ADD MSTORE POP JUMP JUMPDEST PUSH0 PUSH2 0x2DB PUSH1 0x4 DUP4 PUSH2 0x1C7 JUMP JUMPDEST SWAP2 POP PUSH2 0x2E6 DUP3 PUSH2 0x2A7 JUMP JUMPDEST PUSH1 0x20 DUP3 ADD SWAP1 POP SWAP2 SWAP1 POP JUMP JUMPDEST PUSH0 PUSH1 0x20 DUP3 ADD SWAP1 POP DUP2 DUP2 SUB PUSH0 DUP4 ADD MSTORE PUSH2 0x308 DUP2 PUSH2 0x2CF JUMP JUMPDEST SWAP1 POP SWAP2 SWAP1 POP JUMP INVALID LOG2 PUSH5 0x6970667358 0x22 SLT KECCAK256 TSTORE RETURNDATASIZE RETURNDATACOPY DUP7 GASLIMIT 0xBC 0xF 0xCF SWAP16 0xAC SUB PUSH11 0xF4A1DF67940902A381A241 0xAD 0xCB PUSH16 0xBA9F431D37BE64736F6C634300081A00 CALLER "
				},
				"gasEstimates": {
					"creation": {
						"codeDepositCost": "167400",
						"executionCost": "212",
						"totalCost": "167612"
					},
					"external": {
						"baba()": "2028",
						"callParent()": "1986",
						"callParentSuper()": "2030",
						"hip()": "1940",
						"pop()": "1984",
						"yeye()": "1918"
					}
				},
				"methodIdentifiers": {
					"baba()": "fa030ef1",
					"callParent()": "572e47ae",
					"callParentSuper()": "b92a50e0",
					"hip()": "370ea142",
					"pop()": "a4ece52c",
					"yeye()": "0ca21e9c"
				}
			},
			"storageLayout": {
				"storage": [],
				"types": null
			},
			"userdoc": {
				"kind": "user",
				"methods": {},
				"version": 1
			}
		}
	}
}