{
	"contracts/006_ArrayAndStruct.sol": {
		"ArrayAndStruct": {
			"abi": [
				{
					"inputs": [],
					"name": "f",
					"outputs": [],
					"stateMutability": "pure",
					"type": "function"
				},
				{
					"inputs": [
						{
							"internalType": "uint256[3]",
							"name": "_data",
							"type": "uint256[3]"
						}
					],
					"name": "g",
					"outputs": [],
					"stateMutability": "pure",
					"type": "function"
				},
				{
					"inputs": [],
					"name": "initStudent1",
					"outputs": [],
					"stateMutability": "nonpayable",
					"type": "function"
				},
				{
					"inputs": [],
					"name": "initStudent2",
					"outputs": [],
					"stateMutability": "nonpayable",
					"type": "function"
				},
				{
					"inputs": [],
					"name": "initStudent3",
					"outputs": [],
					"stateMutability": "nonpayable",
					"type": "function"
				},
				{
					"inputs": [],
					"name": "initStudent4",
					"outputs": [],
					"stateMutability": "nonpayable",
					"type": "function"
				}
			],
			"devdoc": {
				"kind": "dev",
				"methods": {},
				"version": 1
			},
			"evm": {
				"assembly": "    /* \"contracts/006_ArrayAndStruct.sol\":57:1191  contract ArrayAndStruct {... */\n  mstore(0x40, 0x80)\n  callvalue\n  dup1\n  iszero\n  tag_1\n  jumpi\n  0x00\n  dup1\n  revert\ntag_1:\n  pop\n  dataSize(sub_0)\n  dup1\n  dataOffset(sub_0)\n  0x00\n  codecopy\n  0x00\n  return\nstop\n\nsub_0: assembly {\n        /* \"contracts/006_ArrayAndStruct.sol\":57:1191  contract ArrayAndStruct {... */\n      mstore(0x40, 0x80)\n      callvalue\n      dup1\n      iszero\n      tag_1\n      jumpi\n      0x00\n      dup1\n      revert\n    tag_1:\n      pop\n      jumpi(tag_2, lt(calldatasize, 0x04))\n      shr(0xe0, calldataload(0x00))\n      dup1\n      0x1a8d7dc3\n      eq\n      tag_3\n      jumpi\n      dup1\n      0x26121ff0\n      eq\n      tag_4\n      jumpi\n      dup1\n      0x5a4236b1\n      eq\n      tag_5\n      jumpi\n      dup1\n      0x9ebb8d20\n      eq\n      tag_6\n      jumpi\n      dup1\n      0xa8b63e6f\n      eq\n      tag_7\n      jumpi\n      dup1\n      0xd14d385d\n      eq\n      tag_8\n      jumpi\n    tag_2:\n      0x00\n      dup1\n      revert\n        /* \"contracts/006_ArrayAndStruct.sol\":925:1016  function initStudent2() external{... */\n    tag_3:\n      tag_9\n      tag_10\n      jump\t// in\n    tag_9:\n      stop\n        /* \"contracts/006_ArrayAndStruct.sol\":469:532  function f() public pure {... */\n    tag_4:\n      tag_11\n      tag_12\n      jump\t// in\n    tag_11:\n      stop\n        /* \"contracts/006_ArrayAndStruct.sol\":1022:1096  function initStudent3() external {... */\n    tag_5:\n      tag_13\n      tag_14\n      jump\t// in\n    tag_13:\n      stop\n        /* \"contracts/006_ArrayAndStruct.sol\":1102:1189  function initStudent4() external {... */\n    tag_6:\n      tag_15\n      tag_16\n      jump\t// in\n    tag_15:\n      stop\n        /* \"contracts/006_ArrayAndStruct.sol\":752:919  function initStudent1() external{... */\n    tag_7:\n      tag_17\n      tag_18\n      jump\t// in\n    tag_17:\n      stop\n        /* \"contracts/006_ArrayAndStruct.sol\":538:608  function g(uint256[3] memory _data) public pure {... */\n    tag_8:\n      tag_19\n      0x04\n      dup1\n      calldatasize\n      sub\n      dup2\n      add\n      swap1\n      tag_20\n      swap2\n      swap1\n      tag_21\n      jump\t// in\n    tag_20:\n      tag_22\n      jump\t// in\n    tag_19:\n      stop\n        /* \"contracts/006_ArrayAndStruct.sol\":925:1016  function initStudent2() external{... */\n    tag_10:\n        /* \"contracts/006_ArrayAndStruct.sol\":980:981  1 */\n      0x01\n        /* \"contracts/006_ArrayAndStruct.sol\":967:974  student */\n      0x6e\n        /* \"contracts/006_ArrayAndStruct.sol\":967:977  student.id */\n      0x00\n      add\n        /* \"contracts/006_ArrayAndStruct.sol\":967:981  student.id = 1 */\n      dup2\n      swap1\n      sstore\n      pop\n        /* \"contracts/006_ArrayAndStruct.sol\":1007:1009  80 */\n      0x50\n        /* \"contracts/006_ArrayAndStruct.sol\":991:998  student */\n      0x6e\n        /* \"contracts/006_ArrayAndStruct.sol\":991:1004  student.score */\n      0x01\n      add\n        /* \"contracts/006_ArrayAndStruct.sol\":991:1009  student.score = 80 */\n      dup2\n      swap1\n      sstore\n      pop\n        /* \"contracts/006_ArrayAndStruct.sol\":925:1016  function initStudent2() external{... */\n      jump\t// out\n        /* \"contracts/006_ArrayAndStruct.sol\":469:532  function f() public pure {... */\n    tag_12:\n        /* \"contracts/006_ArrayAndStruct.sol\":504:525  g([uint256(1), 2, 3]) */\n      tag_25\n      mload(0x40)\n      dup1\n      0x60\n      add\n      0x40\n      mstore\n      dup1\n        /* \"contracts/006_ArrayAndStruct.sol\":515:516  1 */\n      0x01\n        /* \"contracts/006_ArrayAndStruct.sol\":504:525  g([uint256(1), 2, 3]) */\n      dup2\n      mstore\n      0x20\n      add\n        /* \"contracts/006_ArrayAndStruct.sol\":519:520  2 */\n      0x02\n        /* \"contracts/006_ArrayAndStruct.sol\":504:525  g([uint256(1), 2, 3]) */\n      dup2\n      mstore\n      0x20\n      add\n        /* \"contracts/006_ArrayAndStruct.sol\":522:523  3 */\n      0x03\n        /* \"contracts/006_ArrayAndStruct.sol\":504:525  g([uint256(1), 2, 3]) */\n      dup2\n      mstore\n      pop\n        /* \"contracts/006_ArrayAndStruct.sol\":504:505  g */\n      tag_22\n        /* \"contracts/006_ArrayAndStruct.sol\":504:525  g([uint256(1), 2, 3]) */\n      jump\t// in\n    tag_25:\n        /* \"contracts/006_ArrayAndStruct.sol\":469:532  function f() public pure {... */\n      jump\t// out\n        /* \"contracts/006_ArrayAndStruct.sol\":1022:1096  function initStudent3() external {... */\n    tag_14:\n        /* \"contracts/006_ArrayAndStruct.sol\":1075:1089  Student(3, 90) */\n      mload(0x40)\n      dup1\n      0x40\n      add\n      0x40\n      mstore\n      dup1\n        /* \"contracts/006_ArrayAndStruct.sol\":1083:1084  3 */\n      0x03\n        /* \"contracts/006_ArrayAndStruct.sol\":1075:1089  Student(3, 90) */\n      dup2\n      mstore\n      0x20\n      add\n        /* \"contracts/006_ArrayAndStruct.sol\":1086:1088  90 */\n      0x5a\n        /* \"contracts/006_ArrayAndStruct.sol\":1075:1089  Student(3, 90) */\n      dup2\n      mstore\n      pop\n        /* \"contracts/006_ArrayAndStruct.sol\":1065:1072  student */\n      0x6e\n        /* \"contracts/006_ArrayAndStruct.sol\":1065:1089  student = Student(3, 90) */\n      0x00\n      dup3\n      add\n      mload\n      dup2\n      0x00\n      add\n      sstore\n      0x20\n      dup3\n      add\n      mload\n      dup2\n      0x01\n      add\n      sstore\n      swap1\n      pop\n      pop\n        /* \"contracts/006_ArrayAndStruct.sol\":1022:1096  function initStudent3() external {... */\n      jump\t// out\n        /* \"contracts/006_ArrayAndStruct.sol\":1102:1189  function initStudent4() external {... */\n    tag_16:\n        /* \"contracts/006_ArrayAndStruct.sol\":1155:1182  Student({id: 4, score: 60}) */\n      mload(0x40)\n      dup1\n      0x40\n      add\n      0x40\n      mstore\n      dup1\n        /* \"contracts/006_ArrayAndStruct.sol\":1168:1169  4 */\n      0x04\n        /* \"contracts/006_ArrayAndStruct.sol\":1155:1182  Student({id: 4, score: 60}) */\n      dup2\n      mstore\n      0x20\n      add\n        /* \"contracts/006_ArrayAndStruct.sol\":1178:1180  60 */\n      0x3c\n        /* \"contracts/006_ArrayAndStruct.sol\":1155:1182  Student({id: 4, score: 60}) */\n      dup2\n      mstore\n      pop\n        /* \"contracts/006_ArrayAndStruct.sol\":1145:1152  student */\n      0x6e\n        /* \"contracts/006_ArrayAndStruct.sol\":1145:1182  student = Student({id: 4, score: 60}) */\n      0x00\n      dup3\n      add\n      mload\n      dup2\n      0x00\n      add\n      sstore\n      0x20\n      dup3\n      add\n      mload\n      dup2\n      0x01\n      add\n      sstore\n      swap1\n      pop\n      pop\n        /* \"contracts/006_ArrayAndStruct.sol\":1102:1189  function initStudent4() external {... */\n      jump\t// out\n        /* \"contracts/006_ArrayAndStruct.sol\":752:919  function initStudent1() external{... */\n    tag_18:\n        /* \"contracts/006_ArrayAndStruct.sol\":794:818  Student storage _student */\n      0x00\n        /* \"contracts/006_ArrayAndStruct.sol\":821:828  student */\n      0x6e\n        /* \"contracts/006_ArrayAndStruct.sol\":794:828  Student storage _student = student */\n      swap1\n      pop\n        /* \"contracts/006_ArrayAndStruct.sol\":880:882  11 */\n      0x0b\n        /* \"contracts/006_ArrayAndStruct.sol\":866:874  _student */\n      dup2\n        /* \"contracts/006_ArrayAndStruct.sol\":866:877  _student.id */\n      0x00\n      add\n        /* \"contracts/006_ArrayAndStruct.sol\":866:882  _student.id = 11 */\n      dup2\n      swap1\n      sstore\n      pop\n        /* \"contracts/006_ArrayAndStruct.sol\":909:912  100 */\n      0x64\n        /* \"contracts/006_ArrayAndStruct.sol\":892:900  _student */\n      dup2\n        /* \"contracts/006_ArrayAndStruct.sol\":892:906  _student.score */\n      0x01\n      add\n        /* \"contracts/006_ArrayAndStruct.sol\":892:912  _student.score = 100 */\n      dup2\n      swap1\n      sstore\n      pop\n        /* \"contracts/006_ArrayAndStruct.sol\":784:919  {... */\n      pop\n        /* \"contracts/006_ArrayAndStruct.sol\":752:919  function initStudent1() external{... */\n      jump\t// out\n        /* \"contracts/006_ArrayAndStruct.sol\":538:608  function g(uint256[3] memory _data) public pure {... */\n    tag_22:\n      pop\n      jump\t// out\n        /* \"#utility.yul\":7:82   */\n    tag_30:\n        /* \"#utility.yul\":40:46   */\n      0x00\n        /* \"#utility.yul\":73:75   */\n      0x40\n        /* \"#utility.yul\":67:76   */\n      mload\n        /* \"#utility.yul\":57:76   */\n      swap1\n      pop\n        /* \"#utility.yul\":7:82   */\n      swap1\n      jump\t// out\n        /* \"#utility.yul\":88:205   */\n    tag_31:\n        /* \"#utility.yul\":197:198   */\n      0x00\n        /* \"#utility.yul\":194:195   */\n      dup1\n        /* \"#utility.yul\":187:199   */\n      revert\n        /* \"#utility.yul\":334:451   */\n    tag_33:\n        /* \"#utility.yul\":443:444   */\n      0x00\n        /* \"#utility.yul\":440:441   */\n      dup1\n        /* \"#utility.yul\":433:445   */\n      revert\n        /* \"#utility.yul\":457:559   */\n    tag_34:\n        /* \"#utility.yul\":498:504   */\n      0x00\n        /* \"#utility.yul\":549:551   */\n      0x1f\n        /* \"#utility.yul\":545:552   */\n      not\n        /* \"#utility.yul\":540:542   */\n      0x1f\n        /* \"#utility.yul\":533:538   */\n      dup4\n        /* \"#utility.yul\":529:543   */\n      add\n        /* \"#utility.yul\":525:553   */\n      and\n        /* \"#utility.yul\":515:553   */\n      swap1\n      pop\n        /* \"#utility.yul\":457:559   */\n      swap2\n      swap1\n      pop\n      jump\t// out\n        /* \"#utility.yul\":565:745   */\n    tag_35:\n        /* \"#utility.yul\":613:690   */\n      0x4e487b7100000000000000000000000000000000000000000000000000000000\n        /* \"#utility.yul\":610:611   */\n      0x00\n        /* \"#utility.yul\":603:691   */\n      mstore\n        /* \"#utility.yul\":710:714   */\n      0x41\n        /* \"#utility.yul\":707:708   */\n      0x04\n        /* \"#utility.yul\":700:715   */\n      mstore\n        /* \"#utility.yul\":734:738   */\n      0x24\n        /* \"#utility.yul\":731:732   */\n      0x00\n        /* \"#utility.yul\":724:739   */\n      revert\n        /* \"#utility.yul\":751:1032   */\n    tag_36:\n        /* \"#utility.yul\":834:861   */\n      tag_53\n        /* \"#utility.yul\":856:860   */\n      dup3\n        /* \"#utility.yul\":834:861   */\n      tag_34\n      jump\t// in\n    tag_53:\n        /* \"#utility.yul\":826:832   */\n      dup2\n        /* \"#utility.yul\":822:862   */\n      add\n        /* \"#utility.yul\":964:970   */\n      dup2\n        /* \"#utility.yul\":952:962   */\n      dup2\n        /* \"#utility.yul\":949:971   */\n      lt\n        /* \"#utility.yul\":928:946   */\n      0xffffffffffffffff\n        /* \"#utility.yul\":916:926   */\n      dup3\n        /* \"#utility.yul\":913:947   */\n      gt\n        /* \"#utility.yul\":910:972   */\n      or\n        /* \"#utility.yul\":907:995   */\n      iszero\n      tag_54\n      jumpi\n        /* \"#utility.yul\":975:993   */\n      tag_55\n      tag_35\n      jump\t// in\n    tag_55:\n        /* \"#utility.yul\":907:995   */\n    tag_54:\n        /* \"#utility.yul\":1015:1025   */\n      dup1\n        /* \"#utility.yul\":1011:1013   */\n      0x40\n        /* \"#utility.yul\":1004:1026   */\n      mstore\n        /* \"#utility.yul\":794:1032   */\n      pop\n        /* \"#utility.yul\":751:1032   */\n      pop\n      pop\n      jump\t// out\n        /* \"#utility.yul\":1038:1167   */\n    tag_37:\n        /* \"#utility.yul\":1072:1078   */\n      0x00\n        /* \"#utility.yul\":1099:1119   */\n      tag_57\n      tag_30\n      jump\t// in\n    tag_57:\n        /* \"#utility.yul\":1089:1119   */\n      swap1\n      pop\n        /* \"#utility.yul\":1128:1161   */\n      tag_58\n        /* \"#utility.yul\":1156:1160   */\n      dup3\n        /* \"#utility.yul\":1148:1154   */\n      dup3\n        /* \"#utility.yul\":1128:1161   */\n      tag_36\n      jump\t// in\n    tag_58:\n        /* \"#utility.yul\":1038:1167   */\n      swap2\n      swap1\n      pop\n      jump\t// out\n        /* \"#utility.yul\":1173:1422   */\n    tag_38:\n        /* \"#utility.yul\":1248:1252   */\n      0x00\n        /* \"#utility.yul\":1338:1356   */\n      0xffffffffffffffff\n        /* \"#utility.yul\":1330:1336   */\n      dup3\n        /* \"#utility.yul\":1327:1357   */\n      gt\n        /* \"#utility.yul\":1324:1380   */\n      iszero\n      tag_60\n      jumpi\n        /* \"#utility.yul\":1360:1378   */\n      tag_61\n      tag_35\n      jump\t// in\n    tag_61:\n        /* \"#utility.yul\":1324:1380   */\n    tag_60:\n        /* \"#utility.yul\":1410:1414   */\n      0x20\n        /* \"#utility.yul\":1402:1408   */\n      dup3\n        /* \"#utility.yul\":1398:1415   */\n      mul\n        /* \"#utility.yul\":1390:1415   */\n      swap1\n      pop\n        /* \"#utility.yul\":1173:1422   */\n      swap2\n      swap1\n      pop\n      jump\t// out\n        /* \"#utility.yul\":1428:1545   */\n    tag_39:\n        /* \"#utility.yul\":1537:1538   */\n      0x00\n        /* \"#utility.yul\":1534:1535   */\n      dup1\n        /* \"#utility.yul\":1527:1539   */\n      revert\n        /* \"#utility.yul\":1551:1628   */\n    tag_40:\n        /* \"#utility.yul\":1588:1595   */\n      0x00\n        /* \"#utility.yul\":1617:1622   */\n      dup2\n        /* \"#utility.yul\":1606:1622   */\n      swap1\n      pop\n        /* \"#utility.yul\":1551:1628   */\n      swap2\n      swap1\n      pop\n      jump\t// out\n        /* \"#utility.yul\":1634:1756   */\n    tag_41:\n        /* \"#utility.yul\":1707:1731   */\n      tag_65\n        /* \"#utility.yul\":1725:1730   */\n      dup2\n        /* \"#utility.yul\":1707:1731   */\n      tag_40\n      jump\t// in\n    tag_65:\n        /* \"#utility.yul\":1700:1705   */\n      dup2\n        /* \"#utility.yul\":1697:1732   */\n      eq\n        /* \"#utility.yul\":1687:1750   */\n      tag_66\n      jumpi\n        /* \"#utility.yul\":1746:1747   */\n      0x00\n        /* \"#utility.yul\":1743:1744   */\n      dup1\n        /* \"#utility.yul\":1736:1748   */\n      revert\n        /* \"#utility.yul\":1687:1750   */\n    tag_66:\n        /* \"#utility.yul\":1634:1756   */\n      pop\n      jump\t// out\n        /* \"#utility.yul\":1762:1901   */\n    tag_42:\n        /* \"#utility.yul\":1808:1813   */\n      0x00\n        /* \"#utility.yul\":1846:1852   */\n      dup2\n        /* \"#utility.yul\":1833:1853   */\n      calldataload\n        /* \"#utility.yul\":1824:1853   */\n      swap1\n      pop\n        /* \"#utility.yul\":1862:1895   */\n      tag_68\n        /* \"#utility.yul\":1889:1894   */\n      dup2\n        /* \"#utility.yul\":1862:1895   */\n      tag_41\n      jump\t// in\n    tag_68:\n        /* \"#utility.yul\":1762:1901   */\n      swap3\n      swap2\n      pop\n      pop\n      jump\t// out\n        /* \"#utility.yul\":1925:2568   */\n    tag_43:\n        /* \"#utility.yul\":2019:2024   */\n      0x00\n        /* \"#utility.yul\":2044:2123   */\n      tag_70\n        /* \"#utility.yul\":2060:2122   */\n      tag_71\n        /* \"#utility.yul\":2115:2121   */\n      dup5\n        /* \"#utility.yul\":2060:2122   */\n      tag_38\n      jump\t// in\n    tag_71:\n        /* \"#utility.yul\":2044:2123   */\n      tag_37\n      jump\t// in\n    tag_70:\n        /* \"#utility.yul\":2035:2123   */\n      swap1\n      pop\n        /* \"#utility.yul\":2143:2148   */\n      dup1\n        /* \"#utility.yul\":2196:2200   */\n      0x20\n        /* \"#utility.yul\":2188:2194   */\n      dup5\n        /* \"#utility.yul\":2184:2201   */\n      mul\n        /* \"#utility.yul\":2176:2182   */\n      dup4\n        /* \"#utility.yul\":2172:2202   */\n      add\n        /* \"#utility.yul\":2225:2228   */\n      dup6\n        /* \"#utility.yul\":2217:2223   */\n      dup2\n        /* \"#utility.yul\":2214:2229   */\n      gt\n        /* \"#utility.yul\":2211:2333   */\n      iszero\n      tag_72\n      jumpi\n        /* \"#utility.yul\":2244:2323   */\n      tag_73\n      tag_39\n      jump\t// in\n    tag_73:\n        /* \"#utility.yul\":2211:2333   */\n    tag_72:\n        /* \"#utility.yul\":2359:2365   */\n      dup4\n        /* \"#utility.yul\":2342:2562   */\n    tag_74:\n        /* \"#utility.yul\":2376:2382   */\n      dup2\n        /* \"#utility.yul\":2371:2374   */\n      dup2\n        /* \"#utility.yul\":2368:2383   */\n      lt\n        /* \"#utility.yul\":2342:2562   */\n      iszero\n      tag_76\n      jumpi\n        /* \"#utility.yul\":2451:2454   */\n      dup1\n        /* \"#utility.yul\":2480:2517   */\n      tag_77\n        /* \"#utility.yul\":2513:2516   */\n      dup9\n        /* \"#utility.yul\":2501:2511   */\n      dup3\n        /* \"#utility.yul\":2480:2517   */\n      tag_42\n      jump\t// in\n    tag_77:\n        /* \"#utility.yul\":2475:2478   */\n      dup5\n        /* \"#utility.yul\":2468:2518   */\n      mstore\n        /* \"#utility.yul\":2547:2551   */\n      0x20\n        /* \"#utility.yul\":2542:2545   */\n      dup5\n        /* \"#utility.yul\":2538:2552   */\n      add\n        /* \"#utility.yul\":2531:2552   */\n      swap4\n      pop\n        /* \"#utility.yul\":2418:2562   */\n      pop\n        /* \"#utility.yul\":2402:2406   */\n      0x20\n        /* \"#utility.yul\":2397:2400   */\n      dup2\n        /* \"#utility.yul\":2393:2407   */\n      add\n        /* \"#utility.yul\":2386:2407   */\n      swap1\n      pop\n        /* \"#utility.yul\":2342:2562   */\n      jump(tag_74)\n    tag_76:\n        /* \"#utility.yul\":2346:2367   */\n      pop\n        /* \"#utility.yul\":2025:2568   */\n      pop\n      pop\n        /* \"#utility.yul\":1925:2568   */\n      swap4\n      swap3\n      pop\n      pop\n      pop\n      jump\t// out\n        /* \"#utility.yul\":2592:2931   */\n    tag_44:\n        /* \"#utility.yul\":2661:2666   */\n      0x00\n        /* \"#utility.yul\":2710:2713   */\n      dup3\n        /* \"#utility.yul\":2703:2707   */\n      0x1f\n        /* \"#utility.yul\":2695:2701   */\n      dup4\n        /* \"#utility.yul\":2691:2708   */\n      add\n        /* \"#utility.yul\":2687:2714   */\n      slt\n        /* \"#utility.yul\":2677:2799   */\n      tag_79\n      jumpi\n        /* \"#utility.yul\":2718:2797   */\n      tag_80\n      tag_33\n      jump\t// in\n    tag_80:\n        /* \"#utility.yul\":2677:2799   */\n    tag_79:\n        /* \"#utility.yul\":2822:2826   */\n      0x03\n        /* \"#utility.yul\":2844:2925   */\n      tag_81\n        /* \"#utility.yul\":2921:2924   */\n      dup5\n        /* \"#utility.yul\":2913:2919   */\n      dup3\n        /* \"#utility.yul\":2905:2911   */\n      dup6\n        /* \"#utility.yul\":2844:2925   */\n      tag_43\n      jump\t// in\n    tag_81:\n        /* \"#utility.yul\":2835:2925   */\n      swap2\n      pop\n        /* \"#utility.yul\":2667:2931   */\n      pop\n        /* \"#utility.yul\":2592:2931   */\n      swap3\n      swap2\n      pop\n      pop\n      jump\t// out\n        /* \"#utility.yul\":2937:3312   */\n    tag_21:\n        /* \"#utility.yul\":3019:3025   */\n      0x00\n        /* \"#utility.yul\":3068:3070   */\n      0x60\n        /* \"#utility.yul\":3056:3065   */\n      dup3\n        /* \"#utility.yul\":3047:3054   */\n      dup5\n        /* \"#utility.yul\":3043:3066   */\n      sub\n        /* \"#utility.yul\":3039:3071   */\n      slt\n        /* \"#utility.yul\":3036:3155   */\n      iszero\n      tag_83\n      jumpi\n        /* \"#utility.yul\":3074:3153   */\n      tag_84\n      tag_31\n      jump\t// in\n    tag_84:\n        /* \"#utility.yul\":3036:3155   */\n    tag_83:\n        /* \"#utility.yul\":3194:3195   */\n      0x00\n        /* \"#utility.yul\":3219:3295   */\n      tag_85\n        /* \"#utility.yul\":3287:3294   */\n      dup5\n        /* \"#utility.yul\":3278:3284   */\n      dup3\n        /* \"#utility.yul\":3267:3276   */\n      dup6\n        /* \"#utility.yul\":3263:3285   */\n      add\n        /* \"#utility.yul\":3219:3295   */\n      tag_44\n      jump\t// in\n    tag_85:\n        /* \"#utility.yul\":3209:3295   */\n      swap2\n      pop\n        /* \"#utility.yul\":3165:3305   */\n      pop\n        /* \"#utility.yul\":2937:3312   */\n      swap3\n      swap2\n      pop\n      pop\n      jump\t// out\n\n    auxdata: 0xa2646970667358221220b56f5ce834e064e3d075d0eef3d31f5bc0ab50fa33b55dfc529c4f5bd5e0491164736f6c634300081a0033\n}\n",
				"bytecode": {
					"linkReferences": {},
					"object": "6080604052348015600e575f80fd5b5061034e8061001c5f395ff3fe608060405234801561000f575f80fd5b5060043610610060575f3560e01c80631a8d7dc31461006457806326121ff01461006e5780635a4236b1146100785780639ebb8d2014610082578063a8b63e6f1461008c578063d14d385d14610096575b5f80fd5b61006c6100b2565b005b6100766100c9565b005b6100806100f1565b005b61008a610121565b005b610094610151565b005b6100b060048036038101906100ab91906102ed565b61016c565b005b6001606e5f01819055506050606e60010181905550565b6100ef60405180606001604052806001815260200160028152602001600381525061016c565b565b604051806040016040528060038152602001605a815250606e5f820151815f015560208201518160010155905050565b604051806040016040528060048152602001603c815250606e5f820151815f015560208201518160010155905050565b5f606e9050600b815f01819055506064816001018190555050565b50565b5f604051905090565b5f80fd5b5f80fd5b5f601f19601f8301169050919050565b7f4e487b71000000000000000000000000000000000000000000000000000000005f52604160045260245ffd5b6101c682610180565b810181811067ffffffffffffffff821117156101e5576101e4610190565b5b80604052505050565b5f6101f761016f565b905061020382826101bd565b919050565b5f67ffffffffffffffff82111561022257610221610190565b5b602082029050919050565b5f80fd5b5f819050919050565b61024381610231565b811461024d575f80fd5b50565b5f8135905061025e8161023a565b92915050565b5f61027661027184610208565b6101ee565b905080602084028301858111156102905761028f61022d565b5b835b818110156102b957806102a58882610250565b845260208401935050602081019050610292565b5050509392505050565b5f82601f8301126102d7576102d661017c565b5b60036102e4848285610264565b91505092915050565b5f6060828403121561030257610301610178565b5b5f61030f848285016102c3565b9150509291505056fea2646970667358221220b56f5ce834e064e3d075d0eef3d31f5bc0ab50fa33b55dfc529c4f5bd5e0491164736f6c634300081a0033",
					"opcodes": "PUSH1 0x80 PUSH1 0x40 MSTORE CALLVALUE DUP1 ISZERO PUSH1 0xE JUMPI PUSH0 DUP1 REVERT JUMPDEST POP PUSH2 0x34E DUP1 PUSH2 0x1C PUSH0 CODECOPY PUSH0 RETURN INVALID PUSH1 0x80 PUSH1 0x40 MSTORE CALLVALUE DUP1 ISZERO PUSH2 0xF JUMPI PUSH0 DUP1 REVERT JUMPDEST POP PUSH1 0x4 CALLDATASIZE LT PUSH2 0x60 JUMPI PUSH0 CALLDATALOAD PUSH1 0xE0 SHR DUP1 PUSH4 0x1A8D7DC3 EQ PUSH2 0x64 JUMPI DUP1 PUSH4 0x26121FF0 EQ PUSH2 0x6E JUMPI DUP1 PUSH4 0x5A4236B1 EQ PUSH2 0x78 JUMPI DUP1 PUSH4 0x9EBB8D20 EQ PUSH2 0x82 JUMPI DUP1 PUSH4 0xA8B63E6F EQ PUSH2 0x8C JUMPI DUP1 PUSH4 0xD14D385D EQ PUSH2 0x96 JUMPI JUMPDEST PUSH0 DUP1 REVERT JUMPDEST PUSH2 0x6C PUSH2 0xB2 JUMP JUMPDEST STOP JUMPDEST PUSH2 0x76 PUSH2 0xC9 JUMP JUMPDEST STOP JUMPDEST PUSH2 0x80 PUSH2 0xF1 JUMP JUMPDEST STOP JUMPDEST PUSH2 0x8A PUSH2 0x121 JUMP JUMPDEST STOP JUMPDEST PUSH2 0x94 PUSH2 0x151 JUMP JUMPDEST STOP JUMPDEST PUSH2 0xB0 PUSH1 0x4 DUP1 CALLDATASIZE SUB DUP2 ADD SWAP1 PUSH2 0xAB SWAP2 SWAP1 PUSH2 0x2ED JUMP JUMPDEST PUSH2 0x16C JUMP JUMPDEST STOP JUMPDEST PUSH1 0x1 PUSH1 0x6E PUSH0 ADD DUP2 SWAP1 SSTORE POP PUSH1 0x50 PUSH1 0x6E PUSH1 0x1 ADD DUP2 SWAP1 SSTORE POP JUMP JUMPDEST PUSH2 0xEF PUSH1 0x40 MLOAD DUP1 PUSH1 0x60 ADD PUSH1 0x40 MSTORE DUP1 PUSH1 0x1 DUP2 MSTORE PUSH1 0x20 ADD PUSH1 0x2 DUP2 MSTORE PUSH1 0x20 ADD PUSH1 0x3 DUP2 MSTORE POP PUSH2 0x16C JUMP JUMPDEST JUMP JUMPDEST PUSH1 0x40 MLOAD DUP1 PUSH1 0x40 ADD PUSH1 0x40 MSTORE DUP1 PUSH1 0x3 DUP2 MSTORE PUSH1 0x20 ADD PUSH1 0x5A DUP2 MSTORE POP PUSH1 0x6E PUSH0 DUP3 ADD MLOAD DUP2 PUSH0 ADD SSTORE PUSH1 0x20 DUP3 ADD MLOAD DUP2 PUSH1 0x1 ADD SSTORE SWAP1 POP POP JUMP JUMPDEST PUSH1 0x40 MLOAD DUP1 PUSH1 0x40 ADD PUSH1 0x40 MSTORE DUP1 PUSH1 0x4 DUP2 MSTORE PUSH1 0x20 ADD PUSH1 0x3C DUP2 MSTORE POP PUSH1 0x6E PUSH0 DUP3 ADD MLOAD DUP2 PUSH0 ADD SSTORE PUSH1 0x20 DUP3 ADD MLOAD DUP2 PUSH1 0x1 ADD SSTORE SWAP1 POP POP JUMP JUMPDEST PUSH0 PUSH1 0x6E SWAP1 POP PUSH1 0xB DUP2 PUSH0 ADD DUP2 SWAP1 SSTORE POP PUSH1 0x64 DUP2 PUSH1 0x1 ADD DUP2 SWAP1 SSTORE POP POP JUMP JUMPDEST POP JUMP JUMPDEST PUSH0 PUSH1 0x40 MLOAD SWAP1 POP SWAP1 JUMP JUMPDEST PUSH0 DUP1 REVERT JUMPDEST PUSH0 DUP1 REVERT JUMPDEST PUSH0 PUSH1 0x1F NOT PUSH1 0x1F DUP4 ADD AND SWAP1 POP SWAP2 SWAP1 POP JUMP JUMPDEST PUSH32 0x4E487B7100000000000000000000000000000000000000000000000000000000 PUSH0 MSTORE PUSH1 0x41 PUSH1 0x4 MSTORE PUSH1 0x24 PUSH0 REVERT JUMPDEST PUSH2 0x1C6 DUP3 PUSH2 0x180 JUMP JUMPDEST DUP2 ADD DUP2 DUP2 LT PUSH8 0xFFFFFFFFFFFFFFFF DUP3 GT OR ISZERO PUSH2 0x1E5 JUMPI PUSH2 0x1E4 PUSH2 0x190 JUMP JUMPDEST JUMPDEST DUP1 PUSH1 0x40 MSTORE POP POP POP JUMP JUMPDEST PUSH0 PUSH2 0x1F7 PUSH2 0x16F JUMP JUMPDEST SWAP1 POP PUSH2 0x203 DUP3 DUP3 PUSH2 0x1BD JUMP JUMPDEST SWAP2 SWAP1 POP JUMP JUMPDEST PUSH0 PUSH8 0xFFFFFFFFFFFFFFFF DUP3 GT ISZERO PUSH2 0x222 JUMPI PUSH2 0x221 PUSH2 0x190 JUMP JUMPDEST JUMPDEST PUSH1 0x20 DUP3 MUL SWAP1 POP SWAP2 SWAP1 POP JUMP JUMPDEST PUSH0 DUP1 REVERT JUMPDEST PUSH0 DUP2 SWAP1 POP SWAP2 SWAP1 POP JUMP JUMPDEST PUSH2 0x243 DUP2 PUSH2 0x231 JUMP JUMPDEST DUP2 EQ PUSH2 0x24D JUMPI PUSH0 DUP1 REVERT JUMPDEST POP JUMP JUMPDEST PUSH0 DUP2 CALLDATALOAD SWAP1 POP PUSH2 0x25E DUP2 PUSH2 0x23A JUMP JUMPDEST SWAP3 SWAP2 POP POP JUMP JUMPDEST PUSH0 PUSH2 0x276 PUSH2 0x271 DUP5 PUSH2 0x208 JUMP JUMPDEST PUSH2 0x1EE JUMP JUMPDEST SWAP1 POP DUP1 PUSH1 0x20 DUP5 MUL DUP4 ADD DUP6 DUP2 GT ISZERO PUSH2 0x290 JUMPI PUSH2 0x28F PUSH2 0x22D JUMP JUMPDEST JUMPDEST DUP4 JUMPDEST DUP2 DUP2 LT ISZERO PUSH2 0x2B9 JUMPI DUP1 PUSH2 0x2A5 DUP9 DUP3 PUSH2 0x250 JUMP JUMPDEST DUP5 MSTORE PUSH1 0x20 DUP5 ADD SWAP4 POP POP PUSH1 0x20 DUP2 ADD SWAP1 POP PUSH2 0x292 JUMP JUMPDEST POP POP POP SWAP4 SWAP3 POP POP POP JUMP JUMPDEST PUSH0 DUP3 PUSH1 0x1F DUP4 ADD SLT PUSH2 0x2D7 JUMPI PUSH2 0x2D6 PUSH2 0x17C JUMP JUMPDEST JUMPDEST PUSH1 0x3 PUSH2 0x2E4 DUP5 DUP3 DUP6 PUSH2 0x264 JUMP JUMPDEST SWAP2 POP POP SWAP3 SWAP2 POP POP JUMP JUMPDEST PUSH0 PUSH1 0x60 DUP3 DUP5 SUB SLT ISZERO PUSH2 0x302 JUMPI PUSH2 0x301 PUSH2 0x178 JUMP JUMPDEST JUMPDEST PUSH0 PUSH2 0x30F DUP5 DUP3 DUP6 ADD PUSH2 0x2C3 JUMP JUMPDEST SWAP2 POP POP SWAP3 SWAP2 POP POP JUMP INVALID LOG2 PUSH5 0x6970667358 0x22 SLT KECCAK256 0xB5 PUSH16 0x5CE834E064E3D075D0EEF3D31F5BC0AB POP STATICCALL CALLER 0xB5 TSTORE 0xFC MSTORE SWAP13 0x4F JUMPDEST 0xD5 0xE0 BLOBHASH GT PUSH5 0x736F6C6343 STOP ADDMOD BYTE STOP CALLER "
				},
				"gasEstimates": {
					"creation": {
						"codeDepositCost": "169200",
						"executionCost": "212",
						"totalCost": "169412"
					},
					"external": {
						"f()": "246",
						"g(uint256[3])": "infinite",
						"initStudent1()": "44460",
						"initStudent2()": "44360",
						"initStudent3()": "44474",
						"initStudent4()": "44496"
					}
				},
				"methodIdentifiers": {
					"f()": "26121ff0",
					"g(uint256[3])": "d14d385d",
					"initStudent1()": "a8b63e6f",
					"initStudent2()": "1a8d7dc3",
					"initStudent3()": "5a4236b1",
					"initStudent4()": "9ebb8d20"
				}
			},
			"storageLayout": {
				"storage": [
					{
						"astId": 5,
						"contract": "contracts/006_ArrayAndStruct.sol:ArrayAndStruct",
						"label": "array1",
						"offset": 0,
						"slot": "0",
						"type": "t_array(t_uint256)8_storage"
					},
					{
						"astId": 9,
						"contract": "contracts/006_ArrayAndStruct.sol:ArrayAndStruct",
						"label": "array2",
						"offset": 0,
						"slot": "8",
						"type": "t_array(t_bytes1)5_storage"
					},
					{
						"astId": 13,
						"contract": "contracts/006_ArrayAndStruct.sol:ArrayAndStruct",
						"label": "array3",
						"offset": 0,
						"slot": "9",
						"type": "t_array(t_address)100_storage"
					},
					{
						"astId": 16,
						"contract": "contracts/006_ArrayAndStruct.sol:ArrayAndStruct",
						"label": "array4",
						"offset": 0,
						"slot": "109",
						"type": "t_array(t_uint256)dyn_storage"
					},
					{
						"astId": 46,
						"contract": "contracts/006_ArrayAndStruct.sol:ArrayAndStruct",
						"label": "student",
						"offset": 0,
						"slot": "110",
						"type": "t_struct(Student)43_storage"
					}
				],
				"types": {
					"t_address": {
						"encoding": "inplace",
						"label": "address",
						"numberOfBytes": "20"
					},
					"t_array(t_address)100_storage": {
						"base": "t_address",
						"encoding": "inplace",
						"label": "address[100]",
						"numberOfBytes": "3200"
					},
					"t_array(t_bytes1)5_storage": {
						"base": "t_bytes1",
						"encoding": "inplace",
						"label": "bytes1[5]",
						"numberOfBytes": "32"
					},
					"t_array(t_uint256)8_storage": {
						"base": "t_uint256",
						"encoding": "inplace",
						"label": "uint256[8]",
						"numberOfBytes": "256"
					},
					"t_array(t_uint256)dyn_storage": {
						"base": "t_uint256",
						"encoding": "dynamic_array",
						"label": "uint256[]",
						"numberOfBytes": "32"
					},
					"t_bytes1": {
						"encoding": "inplace",
						"label": "bytes1",
						"numberOfBytes": "1"
					},
					"t_struct(Student)43_storage": {
						"encoding": "inplace",
						"label": "struct ArrayAndStruct.Student",
						"members": [
							{
								"astId": 40,
								"contract": "contracts/006_ArrayAndStruct.sol:ArrayAndStruct",
								"label": "id",
								"offset": 0,
								"slot": "0",
								"type": "t_uint256"
							},
							{
								"astId": 42,
								"contract": "contracts/006_ArrayAndStruct.sol:ArrayAndStruct",
								"label": "score",
								"offset": 0,
								"slot": "1",
								"type": "t_uint256"
							}
						],
						"numberOfBytes": "64"
					},
					"t_uint256": {
						"encoding": "inplace",
						"label": "uint256",
						"numberOfBytes": "32"
					}
				}
			},
			"userdoc": {
				"kind": "user",
				"methods": {},
				"version": 1
			}
		}
	}
}