{
	"data": {
		"bytecode": {
			"linkReferences": {},
			"object": "6080604052348015600e575f80fd5b506102dd8061001c5f395ff3fe608060405234801561000f575f80fd5b5060043610610060575f3560e01c80630ca21e9c14610064578063370ea1421461006e578063572e47ae14610078578063a4ece52c14610082578063b92a50e01461008c578063fa030ef114610096575b5f80fd5b61006c6100a0565b005b6100766100d7565b005b61008061010e565b005b61008a610118565b005b61009461014f565b005b61009e610159565b005b7fcf34ef537ac33ee1ac626ca1587a0a7e8e51561e5514f8cb36afa1c5102b3bab6040516100cd90610221565b60405180910390a1565b7fcf34ef537ac33ee1ac626ca1587a0a7e8e51561e5514f8cb36afa1c5102b3bab60405161010490610289565b60405180910390a1565b610116610190565b565b7fcf34ef537ac33ee1ac626ca1587a0a7e8e51561e5514f8cb36afa1c5102b3bab60405161014590610289565b60405180910390a1565b610157610190565b565b7fcf34ef537ac33ee1ac626ca1587a0a7e8e51561e5514f8cb36afa1c5102b3bab60405161018690610289565b60405180910390a1565b7fcf34ef537ac33ee1ac626ca1587a0a7e8e51561e5514f8cb36afa1c5102b3bab6040516101bd90610221565b60405180910390a1565b5f82825260208201905092915050565b7f59657965000000000000000000000000000000000000000000000000000000005f82015250565b5f61020b6004836101c7565b9150610216826101d7565b602082019050919050565b5f6020820190508181035f830152610238816101ff565b9050919050565b7f42616261000000000000000000000000000000000000000000000000000000005f82015250565b5f6102736004836101c7565b915061027e8261023f565b602082019050919050565b5f6020820190508181035f8301526102a081610267565b905091905056fea26469706673582212203d23f70f74119839e9979c2e8c665afb927bd946181e6a4e8ea04eb2e6db787664736f6c634300081a0033",
			"opcodes": "PUSH1 0x80 PUSH1 0x40 MSTORE CALLVALUE DUP1 ISZERO PUSH1 0xE JUMPI PUSH0 DUP1 REVERT JUMPDEST POP PUSH2 0x2DD DUP1 PUSH2 0x1C PUSH0 CODECOPY PUSH0 RETURN INVALID PUSH1 0x80 PUSH1 0x40 MSTORE CALLVALUE DUP1 ISZERO PUSH2 0xF JUMPI PUSH0 DUP1 REVERT JUMPDEST POP PUSH1 0x4 CALLDATASIZE LT PUSH2 0x60 JUMPI PUSH0 CALLDATALOAD PUSH1 0xE0 SHR DUP1 PUSH4 0xCA21E9C EQ PUSH2 0x64 JUMPI DUP1 PUSH4 0x370EA142 EQ PUSH2 0x6E JUMPI DUP1 PUSH4 0x572E47AE EQ PUSH2 0x78 JUMPI DUP1 PUSH4 0xA4ECE52C EQ PUSH2 0x82 JUMPI DUP1 PUSH4 0xB92A50E0 EQ PUSH2 0x8C JUMPI DUP1 PUSH4 0xFA030EF1 EQ PUSH2 0x96 JUMPI JUMPDEST PUSH0 DUP1 REVERT JUMPDEST PUSH2 0x6C PUSH2 0xA0 JUMP JUMPDEST STOP JUMPDEST PUSH2 0x76 PUSH2 0xD7 JUMP JUMPDEST STOP JUMPDEST PUSH2 0x80 PUSH2 0x10E JUMP JUMPDEST STOP JUMPDEST PUSH2 0x8A PUSH2 0x118 JUMP JUMPDEST STOP JUMPDEST PUSH2 0x94 PUSH2 0x14F JUMP JUMPDEST STOP JUMPDEST PUSH2 0x9E PUSH2 0x159 JUMP JUMPDEST STOP JUMPDEST PUSH32 0xCF34EF537AC33EE1AC626CA1587A0A7E8E51561E5514F8CB36AFA1C5102B3BAB PUSH1 0x40 MLOAD PUSH2 0xCD SWAP1 PUSH2 0x221 JUMP JUMPDEST PUSH1 0x40 MLOAD DUP1 SWAP2 SUB SWAP1 LOG1 JUMP JUMPDEST PUSH32 0xCF34EF537AC33EE1AC626CA1587A0A7E8E51561E5514F8CB36AFA1C5102B3BAB PUSH1 0x40 MLOAD PUSH2 0x104 SWAP1 PUSH2 0x289 JUMP JUMPDEST PUSH1 0x40 MLOAD DUP1 SWAP2 SUB SWAP1 LOG1 JUMP JUMPDEST PUSH2 0x116 PUSH2 0x190 JUMP JUMPDEST JUMP JUMPDEST PUSH32 0xCF34EF537AC33EE1AC626CA1587A0A7E8E51561E5514F8CB36AFA1C5102B3BAB PUSH1 0x40 MLOAD PUSH2 0x145 SWAP1 PUSH2 0x289 JUMP JUMPDEST PUSH1 0x40 MLOAD DUP1 SWAP2 SUB SWAP1 LOG1 JUMP JUMPDEST PUSH2 0x157 PUSH2 0x190 JUMP JUMPDEST JUMP JUMPDEST PUSH32 0xCF34EF537AC33EE1AC626CA1587A0A7E8E51561E5514F8CB36AFA1C5102B3BAB PUSH1 0x40 MLOAD PUSH2 0x186 SWAP1 PUSH2 0x289 JUMP JUMPDEST PUSH1 0x40 MLOAD DUP1 SWAP2 SUB SWAP1 LOG1 JUMP JUMPDEST PUSH32 0xCF34EF537AC33EE1AC626CA1587A0A7E8E51561E5514F8CB36AFA1C5102B3BAB PUSH1 0x40 MLOAD PUSH2 0x1BD SWAP1 PUSH2 0x221 JUMP JUMPDEST PUSH1 0x40 MLOAD DUP1 SWAP2 SUB SWAP1 LOG1 JUMP JUMPDEST PUSH0 DUP3 DUP3 MSTORE PUSH1 0x20 DUP3 ADD SWAP1 POP SWAP3 SWAP2 POP POP JUMP JUMPDEST PUSH32 0x5965796500000000000000000000000000000000000000000000000000000000 PUSH0 DUP3 ADD MSTORE POP JUMP JUMPDEST PUSH0 PUSH2 0x20B PUSH1 0x4 DUP4 PUSH2 0x1C7 JUMP JUMPDEST SWAP2 POP PUSH2 0x216 DUP3 PUSH2 0x1D7 JUMP JUMPDEST PUSH1 0x20 DUP3 ADD SWAP1 POP SWAP2 SWAP1 POP JUMP JUMPDEST PUSH0 PUSH1 0x20 DUP3 ADD SWAP1 POP DUP2 DUP2 SUB PUSH0 DUP4 ADD MSTORE PUSH2 0x238 DUP2 PUSH2 0x1FF JUMP JUMPDEST SWAP1 POP SWAP2 SWAP1 POP JUMP JUMPDEST PUSH32 0x4261626100000000000000000000000000000000000000000000000000000000 PUSH0 DUP3 ADD MSTORE POP JUMP JUMPDEST PUSH0 PUSH2 0x273 PUSH1 0x4 DUP4 PUSH2 0x1C7 JUMP JUMPDEST SWAP2 POP PUSH2 0x27E DUP3 PUSH2 0x23F JUMP JUMPDEST PUSH1 0x20 DUP3 ADD SWAP1 POP SWAP2 SWAP1 POP JUMP JUMPDEST PUSH0 PUSH1 0x20 DUP3 ADD SWAP1 POP DUP2 DUP2 SUB PUSH0 DUP4 ADD MSTORE PUSH2 0x2A0 DUP2 PUSH2 0x267 JUMP JUMPDEST SWAP1 POP SWAP2 SWAP1 POP JUMP INVALID LOG2 PUSH5 0x6970667358 0x22 SLT KECCAK256 RETURNDATASIZE 0x23 0xF7 0xF PUSH21 0x119839E9979C2E8C665AFB927BD946181E6A4E8EA0 0x4E 0xB2 0xE6 0xDB PUSH25 0x7664736F6C634300081A003300000000000000000000000000 "
		},
		"gasEstimates": {
			"creation": {
				"codeDepositCost": "146600",
				"executionCost": "188",
				"totalCost": "146788"
			},
			"external": {
				"baba()": "2028",
				"callParent()": "1986",
				"callParentSuper()": "2030",
				"hip()": "1940",
				"pop()": "1984",
				"yeye()": "1918"
			}
		},
		"methodIdentifiers": {
			"baba()": "fa030ef1",
			"callParent()": "572e47ae",
			"callParentSuper()": "b92a50e0",
			"hip()": "370ea142",
			"pop()": "a4ece52c",
			"yeye()": "0ca21e9c"
		}
	},
	"abi": [
		{
			"anonymous": false,
			"inputs": [
				{
					"indexed": false,
					"internalType": "string",
					"name": "msg",
					"type": "string"
				}
			],
			"name": "Log",
			"type": "event"
		},
		{
			"inputs": [],
			"name": "baba",
			"outputs": [],
			"stateMutability": "nonpayable",
			"type": "function"
		},
		{
			"inputs": [],
			"name": "callParent",
			"outputs": [],
			"stateMutability": "nonpayable",
			"type": "function"
		},
		{
			"inputs": [],
			"name": "callParentSuper",
			"outputs": [],
			"stateMutability": "nonpayable",
			"type": "function"
		},
		{
			"inputs": [],
			"name": "hip",
			"outputs": [],
			"stateMutability": "nonpayable",
			"type": "function"
		},
		{
			"inputs": [],
			"name": "pop",
			"outputs": [],
			"stateMutability": "nonpayable",
			"type": "function"
		},
		{
			"inputs": [],
			"name": "yeye",
			"outputs": [],
			"stateMutability": "nonpayable",
			"type": "function"
		}
	]
}